{
  "_format": "hh-sol-artifact-1",
  "contractName": "DepositInEth",
  "sourceName": "contracts/endpoint/DepositInEth.sol",
  "abi": [
    {
      "inputs": [
        {
          "internalType": "address",
          "name": "_base",
          "type": "address"
        }
      ],
      "stateMutability": "nonpayable",
      "type": "constructor"
    },
    {
      "anonymous": false,
      "inputs": [
        {
          "indexed": true,
          "internalType": "address",
          "name": "previousOwner",
          "type": "address"
        },
        {
          "indexed": true,
          "internalType": "address",
          "name": "newOwner",
          "type": "address"
        }
      ],
      "name": "OwnershipTransferred",
      "type": "event"
    },
    {
      "inputs": [],
      "name": "base",
      "outputs": [
        {
          "internalType": "contract IERC721",
          "name": "",
          "type": "address"
        }
      ],
      "stateMutability": "view",
      "type": "function"
    },
    {
      "inputs": [
        {
          "internalType": "uint256",
          "name": "tokenId",
          "type": "uint256"
        }
      ],
      "name": "checkdeposit",
      "outputs": [
        {
          "internalType": "bool",
          "name": "",
          "type": "bool"
        }
      ],
      "stateMutability": "view",
      "type": "function"
    },
    {
      "inputs": [
        {
          "internalType": "uint256",
          "name": "tokenId",
          "type": "uint256"
        }
      ],
      "name": "deposit",
      "outputs": [],
      "stateMutability": "nonpayable",
      "type": "function"
    },
    {
      "inputs": [],
      "name": "owner",
      "outputs": [
        {
          "internalType": "address",
          "name": "",
          "type": "address"
        }
      ],
      "stateMutability": "view",
      "type": "function"
    },
    {
      "inputs": [],
      "name": "renounceOwnership",
      "outputs": [],
      "stateMutability": "nonpayable",
      "type": "function"
    },
    {
      "inputs": [
        {
          "internalType": "address",
          "name": "operator",
          "type": "address"
        }
      ],
      "name": "setOperator",
      "outputs": [],
      "stateMutability": "nonpayable",
      "type": "function"
    },
    {
      "inputs": [
        {
          "internalType": "address",
          "name": "whiteaddress",
          "type": "address"
        },
        {
          "internalType": "bool",
          "name": "op",
          "type": "bool"
        }
      ],
      "name": "setWhitelist",
      "outputs": [],
      "stateMutability": "nonpayable",
      "type": "function"
    },
    {
      "inputs": [
        {
          "internalType": "address",
          "name": "newOwner",
          "type": "address"
        }
      ],
      "name": "transferOwnership",
      "outputs": [],
      "stateMutability": "nonpayable",
      "type": "function"
    },
    {
      "inputs": [
        {
          "internalType": "uint256",
          "name": "tokenId",
          "type": "uint256"
        },
        {
          "internalType": "address",
          "name": "to",
          "type": "address"
        }
      ],
      "name": "withdraw",
      "outputs": [],
      "stateMutability": "nonpayable",
      "type": "function"
    }
  ],
  "bytecode": "0x60806040523480156200001157600080fd5b5060405162000fdb38038062000fdb8339818101604052810190620000379190620001d5565b620000576200004b6200009f60201b60201c565b620000a760201b60201c565b80600360006101000a81548173ffffffffffffffffffffffffffffffffffffffff021916908373ffffffffffffffffffffffffffffffffffffffff1602179055505062000207565b600033905090565b60008060009054906101000a900473ffffffffffffffffffffffffffffffffffffffff169050816000806101000a81548173ffffffffffffffffffffffffffffffffffffffff021916908373ffffffffffffffffffffffffffffffffffffffff1602179055508173ffffffffffffffffffffffffffffffffffffffff168173ffffffffffffffffffffffffffffffffffffffff167f8be0079c531659141344cd1fd0a4f28419497f9722a3daafe3b4186f6b6457e060405160405180910390a35050565b600080fd5b600073ffffffffffffffffffffffffffffffffffffffff82169050919050565b60006200019d8262000170565b9050919050565b620001af8162000190565b8114620001bb57600080fd5b50565b600081519050620001cf81620001a4565b92915050565b600060208284031215620001ee57620001ed6200016b565b5b6000620001fe84828501620001be565b91505092915050565b610dc480620002176000396000f3fe608060405234801561001057600080fd5b50600436106100925760003560e01c80638da5cb5b116100665780638da5cb5b146100f7578063b3ab15fb14610115578063b6b55f2514610131578063c1d6d5331461014d578063f2fde38b1461017d57610092565b8062f714ce146100975780635001f3b5146100b357806353d6fd59146100d1578063715018a6146100ed575b600080fd5b6100b160048036038101906100ac9190610967565b610199565b005b6100bb6103d9565b6040516100c89190610a06565b60405180910390f35b6100eb60048036038101906100e69190610a59565b6103ff565b005b6100f5610462565b005b6100ff610476565b60405161010c9190610aa8565b60405180910390f35b61012f600480360381019061012a9190610ac3565b61049f565b005b61014b60048036038101906101469190610af0565b61053a565b005b61016760048036038101906101629190610af0565b6106d6565b6040516101749190610b2c565b60405180910390f35b61019760048036038101906101929190610ac3565b610700565b005b600260003373ffffffffffffffffffffffffffffffffffffffff1673ffffffffffffffffffffffffffffffffffffffff16815260200190815260200160002060009054906101000a900460ff16610225576040517f08c379a000000000000000000000000000000000000000000000000000000000815260040161021c90610ba4565b60405180910390fd5b3073ffffffffffffffffffffffffffffffffffffffff16600360009054906101000a900473ffffffffffffffffffffffffffffffffffffffff1673ffffffffffffffffffffffffffffffffffffffff16636352211e846040518263ffffffff1660e01b81526004016102979190610bd3565b60206040518083038186803b1580156102af57600080fd5b505afa1580156102c3573d6000803e3d6000fd5b505050506040513d601f19601f820116820180604052508101906102e79190610c03565b73ffffffffffffffffffffffffffffffffffffffff1614801561030f575061030e826106d6565b5b61031857600080fd5b600360009054906101000a900473ffffffffffffffffffffffffffffffffffffffff1673ffffffffffffffffffffffffffffffffffffffff166323b872dd3083856040518463ffffffff1660e01b815260040161037793929190610c30565b600060405180830381600087803b15801561039157600080fd5b505af11580156103a5573d6000803e3d6000fd5b5050505060006001600084815260200190815260200160002060006101000a81548160ff0219169083151502179055505050565b600360009054906101000a900473ffffffffffffffffffffffffffffffffffffffff1681565b610407610784565b80600260008473ffffffffffffffffffffffffffffffffffffffff1673ffffffffffffffffffffffffffffffffffffffff16815260200190815260200160002060006101000a81548160ff0219169083151502179055505050565b61046a610784565b6104746000610802565b565b60008060009054906101000a900473ffffffffffffffffffffffffffffffffffffffff16905090565b6104a7610784565b600360009054906101000a900473ffffffffffffffffffffffffffffffffffffffff1673ffffffffffffffffffffffffffffffffffffffff1663a22cb4658260016040518363ffffffff1660e01b8152600401610505929190610c67565b600060405180830381600087803b15801561051f57600080fd5b505af1158015610533573d6000803e3d6000fd5b5050505050565b600260003373ffffffffffffffffffffffffffffffffffffffff1673ffffffffffffffffffffffffffffffffffffffff16815260200190815260200160002060009054906101000a900460ff166105c6576040517f08c379a00000000000000000000000000000000000000000000000000000000081526004016105bd90610ba4565b60405180910390fd5b3073ffffffffffffffffffffffffffffffffffffffff16600360009054906101000a900473ffffffffffffffffffffffffffffffffffffffff1673ffffffffffffffffffffffffffffffffffffffff16636352211e836040518263ffffffff1660e01b81526004016106389190610bd3565b60206040518083038186803b15801561065057600080fd5b505afa158015610664573d6000803e3d6000fd5b505050506040513d601f19601f820116820180604052508101906106889190610c03565b73ffffffffffffffffffffffffffffffffffffffff16146106a857600080fd5b600180600083815260200190815260200160002060006101000a81548160ff02191690831515021790555050565b60006001600083815260200190815260200160002060009054906101000a900460ff169050919050565b610708610784565b600073ffffffffffffffffffffffffffffffffffffffff168173ffffffffffffffffffffffffffffffffffffffff161415610778576040517f08c379a000000000000000000000000000000000000000000000000000000000815260040161076f90610d02565b60405180910390fd5b61078181610802565b50565b61078c6108c6565b73ffffffffffffffffffffffffffffffffffffffff166107aa610476565b73ffffffffffffffffffffffffffffffffffffffff1614610800576040517f08c379a00000000000000000000000000000000000000000000000000000000081526004016107f790610d6e565b60405180910390fd5b565b60008060009054906101000a900473ffffffffffffffffffffffffffffffffffffffff169050816000806101000a81548173ffffffffffffffffffffffffffffffffffffffff021916908373ffffffffffffffffffffffffffffffffffffffff1602179055508173ffffffffffffffffffffffffffffffffffffffff168173ffffffffffffffffffffffffffffffffffffffff167f8be0079c531659141344cd1fd0a4f28419497f9722a3daafe3b4186f6b6457e060405160405180910390a35050565b600033905090565b600080fd5b6000819050919050565b6108e6816108d3565b81146108f157600080fd5b50565b600081359050610903816108dd565b92915050565b600073ffffffffffffffffffffffffffffffffffffffff82169050919050565b600061093482610909565b9050919050565b61094481610929565b811461094f57600080fd5b50565b6000813590506109618161093b565b92915050565b6000806040838503121561097e5761097d6108ce565b5b600061098c858286016108f4565b925050602061099d85828601610952565b9150509250929050565b6000819050919050565b60006109cc6109c76109c284610909565b6109a7565b610909565b9050919050565b60006109de826109b1565b9050919050565b60006109f0826109d3565b9050919050565b610a00816109e5565b82525050565b6000602082019050610a1b60008301846109f7565b92915050565b60008115159050919050565b610a3681610a21565b8114610a4157600080fd5b50565b600081359050610a5381610a2d565b92915050565b60008060408385031215610a7057610a6f6108ce565b5b6000610a7e85828601610952565b9250506020610a8f85828601610a44565b9150509250929050565b610aa281610929565b82525050565b6000602082019050610abd6000830184610a99565b92915050565b600060208284031215610ad957610ad86108ce565b5b6000610ae784828501610952565b91505092915050565b600060208284031215610b0657610b056108ce565b5b6000610b14848285016108f4565b91505092915050565b610b2681610a21565b82525050565b6000602082019050610b416000830184610b1d565b92915050565b600082825260208201905092915050565b7f6e6f7420696e2077686974656c69737400000000000000000000000000000000600082015250565b6000610b8e601083610b47565b9150610b9982610b58565b602082019050919050565b60006020820190508181036000830152610bbd81610b81565b9050919050565b610bcd816108d3565b82525050565b6000602082019050610be86000830184610bc4565b92915050565b600081519050610bfd8161093b565b92915050565b600060208284031215610c1957610c186108ce565b5b6000610c2784828501610bee565b91505092915050565b6000606082019050610c456000830186610a99565b610c526020830185610a99565b610c5f6040830184610bc4565b949350505050565b6000604082019050610c7c6000830185610a99565b610c896020830184610b1d565b9392505050565b7f4f776e61626c653a206e6577206f776e657220697320746865207a65726f206160008201527f6464726573730000000000000000000000000000000000000000000000000000602082015250565b6000610cec602683610b47565b9150610cf782610c90565b604082019050919050565b60006020820190508181036000830152610d1b81610cdf565b9050919050565b7f4f776e61626c653a2063616c6c6572206973206e6f7420746865206f776e6572600082015250565b6000610d58602083610b47565b9150610d6382610d22565b602082019050919050565b60006020820190508181036000830152610d8781610d4b565b905091905056fea2646970667358221220fc62cf8504db4914f41838a0c2b907739cf84539e74983102728f7238aac182964736f6c63430008090033",
  "linkReferences": {},
  "deployedLinkReferences": {}
}