{
  "_format": "hh-sol-artifact-1",
  "contractName": "Commit",
  "sourceName": "contracts/eth-registry/Commit.sol",
  "abi": [
    {
      "inputs": [
        {
          "internalType": "uint256",
          "name": "_minCommitmentAge",
          "type": "uint256"
        },
        {
          "internalType": "uint256",
          "name": "_maxCommitmentAge",
          "type": "uint256"
        },
        {
          "internalType": "uint256",
          "name": "baseprice",
          "type": "uint256"
        },
        {
          "internalType": "uint256",
          "name": "premiumprice",
          "type": "uint256"
        },
        {
          "internalType": "contract Register",
          "name": "_base",
          "type": "address"
        }
      ],
      "stateMutability": "nonpayable",
      "type": "constructor"
    },
    {
      "anonymous": false,
      "inputs": [
        {
          "indexed": false,
          "internalType": "string",
          "name": "name",
          "type": "string"
        },
        {
          "indexed": true,
          "internalType": "bytes32",
          "name": "label",
          "type": "bytes32"
        },
        {
          "indexed": true,
          "internalType": "address",
          "name": "owner",
          "type": "address"
        },
        {
          "indexed": false,
          "internalType": "uint256",
          "name": "expires",
          "type": "uint256"
        }
      ],
      "name": "NameRegistered",
      "type": "event"
    },
    {
      "anonymous": false,
      "inputs": [
        {
          "indexed": false,
          "internalType": "string",
          "name": "name",
          "type": "string"
        },
        {
          "indexed": true,
          "internalType": "bytes32",
          "name": "label",
          "type": "bytes32"
        },
        {
          "indexed": false,
          "internalType": "uint256",
          "name": "expires",
          "type": "uint256"
        }
      ],
      "name": "NameRenewed",
      "type": "event"
    },
    {
      "anonymous": false,
      "inputs": [
        {
          "indexed": true,
          "internalType": "address",
          "name": "previousOwner",
          "type": "address"
        },
        {
          "indexed": true,
          "internalType": "address",
          "name": "newOwner",
          "type": "address"
        }
      ],
      "name": "OwnershipTransferred",
      "type": "event"
    },
    {
      "inputs": [],
      "name": "MIN_REGISTRATION_DURATION",
      "outputs": [
        {
          "internalType": "uint256",
          "name": "",
          "type": "uint256"
        }
      ],
      "stateMutability": "view",
      "type": "function"
    },
    {
      "inputs": [],
      "name": "base",
      "outputs": [
        {
          "internalType": "contract Register",
          "name": "",
          "type": "address"
        }
      ],
      "stateMutability": "view",
      "type": "function"
    },
    {
      "inputs": [
        {
          "internalType": "string",
          "name": "name",
          "type": "string"
        }
      ],
      "name": "byte_check_lable",
      "outputs": [
        {
          "internalType": "bytes32",
          "name": "",
          "type": "bytes32"
        }
      ],
      "stateMutability": "pure",
      "type": "function"
    },
    {
      "inputs": [
        {
          "internalType": "uint256",
          "name": "tokenId",
          "type": "uint256"
        }
      ],
      "name": "checkTokenName",
      "outputs": [
        {
          "internalType": "string",
          "name": "",
          "type": "string"
        }
      ],
      "stateMutability": "view",
      "type": "function"
    },
    {
      "inputs": [
        {
          "internalType": "bytes32",
          "name": "commitment",
          "type": "bytes32"
        }
      ],
      "name": "check_commit_time",
      "outputs": [
        {
          "internalType": "uint256",
          "name": "",
          "type": "uint256"
        }
      ],
      "stateMutability": "view",
      "type": "function"
    },
    {
      "inputs": [
        {
          "internalType": "string",
          "name": "name",
          "type": "string"
        }
      ],
      "name": "check_lable",
      "outputs": [
        {
          "internalType": "uint256",
          "name": "",
          "type": "uint256"
        }
      ],
      "stateMutability": "pure",
      "type": "function"
    },
    {
      "inputs": [],
      "name": "checkcurrent",
      "outputs": [
        {
          "internalType": "uint256",
          "name": "",
          "type": "uint256"
        }
      ],
      "stateMutability": "view",
      "type": "function"
    },
    {
      "inputs": [
        {
          "internalType": "bytes32",
          "name": "commitment",
          "type": "bytes32"
        }
      ],
      "name": "commit",
      "outputs": [],
      "stateMutability": "nonpayable",
      "type": "function"
    },
    {
      "inputs": [
        {
          "internalType": "bytes32",
          "name": "",
          "type": "bytes32"
        }
      ],
      "name": "commitments",
      "outputs": [
        {
          "internalType": "uint256",
          "name": "",
          "type": "uint256"
        }
      ],
      "stateMutability": "view",
      "type": "function"
    },
    {
      "inputs": [
        {
          "internalType": "string",
          "name": "name",
          "type": "string"
        },
        {
          "internalType": "address",
          "name": "owner",
          "type": "address"
        },
        {
          "internalType": "uint256",
          "name": "duration",
          "type": "uint256"
        },
        {
          "internalType": "uint256",
          "name": "secret",
          "type": "uint256"
        }
      ],
      "name": "makeCommitment",
      "outputs": [
        {
          "internalType": "bytes32",
          "name": "",
          "type": "bytes32"
        }
      ],
      "stateMutability": "view",
      "type": "function"
    },
    {
      "inputs": [],
      "name": "maxCommitmentAge",
      "outputs": [
        {
          "internalType": "uint256",
          "name": "",
          "type": "uint256"
        }
      ],
      "stateMutability": "view",
      "type": "function"
    },
    {
      "inputs": [],
      "name": "minCommitmentAge",
      "outputs": [
        {
          "internalType": "uint256",
          "name": "",
          "type": "uint256"
        }
      ],
      "stateMutability": "view",
      "type": "function"
    },
    {
      "inputs": [
        {
          "internalType": "string",
          "name": "name",
          "type": "string"
        }
      ],
      "name": "name_available",
      "outputs": [
        {
          "internalType": "bool",
          "name": "",
          "type": "bool"
        }
      ],
      "stateMutability": "view",
      "type": "function"
    },
    {
      "inputs": [],
      "name": "owner",
      "outputs": [
        {
          "internalType": "address",
          "name": "",
          "type": "address"
        }
      ],
      "stateMutability": "view",
      "type": "function"
    },
    {
      "inputs": [],
      "name": "price",
      "outputs": [
        {
          "internalType": "uint256",
          "name": "base",
          "type": "uint256"
        },
        {
          "internalType": "uint256",
          "name": "premium",
          "type": "uint256"
        }
      ],
      "stateMutability": "view",
      "type": "function"
    },
    {
      "inputs": [
        {
          "internalType": "string",
          "name": "name",
          "type": "string"
        },
        {
          "internalType": "address",
          "name": "owner",
          "type": "address"
        },
        {
          "internalType": "uint256",
          "name": "duration",
          "type": "uint256"
        },
        {
          "internalType": "uint256",
          "name": "secret",
          "type": "uint256"
        }
      ],
      "name": "register",
      "outputs": [
        {
          "internalType": "uint256",
          "name": "",
          "type": "uint256"
        }
      ],
      "stateMutability": "payable",
      "type": "function"
    },
    {
      "inputs": [
        {
          "internalType": "string",
          "name": "name",
          "type": "string"
        },
        {
          "internalType": "uint256",
          "name": "duration",
          "type": "uint256"
        }
      ],
      "name": "renew",
      "outputs": [
        {
          "internalType": "uint256",
          "name": "",
          "type": "uint256"
        }
      ],
      "stateMutability": "payable",
      "type": "function"
    },
    {
      "inputs": [],
      "name": "renounceOwnership",
      "outputs": [],
      "stateMutability": "nonpayable",
      "type": "function"
    },
    {
      "inputs": [
        {
          "internalType": "uint256",
          "name": "baseprice",
          "type": "uint256"
        },
        {
          "internalType": "uint256",
          "name": "premiumprice",
          "type": "uint256"
        }
      ],
      "name": "setfee",
      "outputs": [],
      "stateMutability": "nonpayable",
      "type": "function"
    },
    {
      "inputs": [
        {
          "internalType": "uint256",
          "name": "",
          "type": "uint256"
        }
      ],
      "name": "token_name",
      "outputs": [
        {
          "internalType": "string",
          "name": "",
          "type": "string"
        }
      ],
      "stateMutability": "view",
      "type": "function"
    },
    {
      "inputs": [
        {
          "internalType": "address",
          "name": "newOwner",
          "type": "address"
        }
      ],
      "name": "transferOwnership",
      "outputs": [],
      "stateMutability": "nonpayable",
      "type": "function"
    },
    {
      "inputs": [],
      "name": "withdraw",
      "outputs": [],
      "stateMutability": "nonpayable",
      "type": "function"
    }
  ],
  "bytecode": "0x60e06040523480156200001157600080fd5b506040516200263b3803806200263b833981810160405281019062000037919062000266565b620000576200004b620000e160201b60201c565b620000e960201b60201c565b8484116200006457600080fd5b84608081815250508360a08181525050600083118015620000855750600082115b6200008f57600080fd5b826001600001819055508160018001819055508073ffffffffffffffffffffffffffffffffffffffff1660c08173ffffffffffffffffffffffffffffffffffffffff16815250505050505050620002ee565b600033905090565b60008060009054906101000a900473ffffffffffffffffffffffffffffffffffffffff169050816000806101000a81548173ffffffffffffffffffffffffffffffffffffffff021916908373ffffffffffffffffffffffffffffffffffffffff1602179055508173ffffffffffffffffffffffffffffffffffffffff168173ffffffffffffffffffffffffffffffffffffffff167f8be0079c531659141344cd1fd0a4f28419497f9722a3daafe3b4186f6b6457e060405160405180910390a35050565b600080fd5b6000819050919050565b620001c781620001b2565b8114620001d357600080fd5b50565b600081519050620001e781620001bc565b92915050565b600073ffffffffffffffffffffffffffffffffffffffff82169050919050565b60006200021a82620001ed565b9050919050565b60006200022e826200020d565b9050919050565b620002408162000221565b81146200024c57600080fd5b50565b600081519050620002608162000235565b92915050565b600080600080600060a08688031215620002855762000284620001ad565b5b60006200029588828901620001d6565b9550506020620002a888828901620001d6565b9450506040620002bb88828901620001d6565b9350506060620002ce88828901620001d6565b9250506080620002e1888289016200024f565b9150509295509295909350565b60805160a05160c0516122f362000348600039600081816105e1015281816107a401528181610b0d0152610cdf01526000818161093701528181610ef101526111d30152600081816106de015261115201526122f36000f3fe6080604052600436106101355760003560e01c8063a035b1fe116100ab578063e3c0e6161161006f578063e3c0e61614610413578063e513c2c314610450578063ecd4cff91461048d578063ee0b1b8c146104ca578063f14fcbc814610507578063f2fde38b1461053057610135565b8063a035b1fe1461031f578063acf1a8411461034b578063ce1e09c01461037b578063df5071f3146103a6578063e30e3657146103e357610135565b8063672727ab116100fd578063672727ab1461020d578063715018a61461024a578063839df945146102615780638a95b09f1461029e5780638d839ffe146102c95780638da5cb5b146102f457610135565b80631894be521461013a578063286d9471146101635780633ccfd60b146101a05780635001f3b5146101b757806350c400e9146101e2575b600080fd5b34801561014657600080fd5b50610161600480360381019061015c91906113b7565b610559565b005b34801561016f57600080fd5b5061018a6004803603810190610185919061153d565b610578565b604051610197919061159f565b60405180910390f35b3480156101ac57600080fd5b506101b561058f565b005b3480156101c357600080fd5b506101cc6105df565b6040516101d99190611639565b60405180910390f35b3480156101ee57600080fd5b506101f7610603565b6040516102049190611663565b60405180910390f35b34801561021957600080fd5b50610234600480360381019061022f919061167e565b61060b565b6040516102419190611733565b60405180910390f35b34801561025657600080fd5b5061025f6106ab565b005b34801561026d57600080fd5b5061028860048036038101906102839190611781565b6106bf565b6040516102959190611663565b60405180910390f35b3480156102aa57600080fd5b506102b36106d7565b6040516102c09190611663565b60405180910390f35b3480156102d557600080fd5b506102de6106dc565b6040516102eb9190611663565b60405180910390f35b34801561030057600080fd5b50610309610700565b60405161031691906117cf565b60405180910390f35b34801561032b57600080fd5b50610334610729565b6040516103429291906117ea565b60405180910390f35b61036560048036038101906103609190611873565b61073b565b6040516103729190611663565b60405180910390f35b34801561038757600080fd5b50610390610935565b60405161039d9190611663565b60405180910390f35b3480156103b257600080fd5b506103cd60048036038101906103c891906118d3565b610959565b6040516103da9190611663565b60405180910390f35b6103fd60048036038101906103f8919061194c565b61097e565b60405161040a9190611663565b60405180910390f35b34801561041f57600080fd5b5061043a6004803603810190610435919061153d565b610cd0565b60405161044791906119ef565b60405180910390f35b34801561045c57600080fd5b5061047760048036038101906104729190611781565b610d9f565b6040516104849190611663565b60405180910390f35b34801561049957600080fd5b506104b460048036038101906104af9190611a0a565b610dbc565b6040516104c1919061159f565b60405180910390f35b3480156104d657600080fd5b506104f160048036038101906104ec919061167e565b610e49565b6040516104fe9190611733565b60405180910390f35b34801561051357600080fd5b5061052e60048036038101906105299190611781565b610eee565b005b34801561053c57600080fd5b5061055760048036038101906105529190611a8d565b610f89565b005b61056161100d565b816001600001819055508060018001819055505050565b6000818051906020012060001c60001b9050919050565b610597610700565b73ffffffffffffffffffffffffffffffffffffffff166108fc479081150290604051600060405180830381858888f193505050501580156105dc573d6000803e3d6000fd5b50565b7f000000000000000000000000000000000000000000000000000000000000000081565b600042905090565b6004602052806000526040600020600091509050805461062a90611ae9565b80601f016020809104026020016040519081016040528092919081815260200182805461065690611ae9565b80156106a35780601f10610678576101008083540402835291602001916106a3565b820191906000526020600020905b81548152906001019060200180831161068657829003601f168201915b505050505081565b6106b361100d565b6106bd600061108b565b565b60036020528060005260406000206000915090505481565b600181565b7f000000000000000000000000000000000000000000000000000000000000000081565b60008060009054906101000a900473ffffffffffffffffffffffffffffffffffffffff16905090565b60018060000154908060010154905082565b600080848460405161074e929190611b4b565b604051809103902090506001600001543410156107a0576040517f08c379a000000000000000000000000000000000000000000000000000000000815260040161079790611bd6565b60405180910390fd5b60007f000000000000000000000000000000000000000000000000000000000000000073ffffffffffffffffffffffffffffffffffffffff1663c475abff8360001c866040518363ffffffff1660e01b81526004016108009291906117ea565b602060405180830381600087803b15801561081a57600080fd5b505af115801561082e573d6000803e3d6000fd5b505050506040513d601f19601f820116820180604052508101906108529190611c0b565b90508360018001546108649190611c67565b6001600001546108749190611cc1565b3411156108ed573373ffffffffffffffffffffffffffffffffffffffff166108fc8560018001546108a59190611c67565b600160000154346108b69190611d17565b6108c09190611d17565b9081150290604051600060405180830381858888f193505050501580156108eb573d6000803e3d6000fd5b505b817f93bc1a84707231b1d9552157299797c64a1a8c5bc79f05153716630c9c4936fc87878460405161092193929190611d78565b60405180910390a280925050509392505050565b7f000000000000000000000000000000000000000000000000000000000000000081565b6000828260405161096b929190611b4b565b604051809103902060001c905092915050565b600060038686905010156109c7576040517f08c379a00000000000000000000000000000000000000000000000000000000081526004016109be90611df6565b60405180910390fd5b600086866040516109d9929190611b4b565b604051809103902090508686600460008460001c81526020019081526020016000209190610a089291906112ca565b50836001800154610a199190611c67565b600160000154610a299190611cc1565b341015610a6b576040517f08c379a0000000000000000000000000000000000000000000000000000000008152600401610a6290611e62565b60405180910390fd5b610b0987878080601f016020809104026020016040519081016040528093929190818152602001838380828437600081840152601f19601f8201169050808301925050505050505085610b048a8a8080601f016020809104026020016040519081016040528093929190818152602001838380828437600081840152601f19601f82011690508083019250505050505050898989610dbc565b61114f565b60007f000000000000000000000000000000000000000000000000000000000000000073ffffffffffffffffffffffffffffffffffffffff1663fca247ac8360001c88886040518463ffffffff1660e01b8152600401610b6b93929190611e82565b602060405180830381600087803b158015610b8557600080fd5b505af1158015610b99573d6000803e3d6000fd5b505050506040513d601f19601f82011682018060405250810190610bbd9190611c0b565b9050846001800154610bcf9190611c67565b600160000154610bdf9190611cc1565b341115610c58573373ffffffffffffffffffffffffffffffffffffffff166108fc866001800154610c109190611c67565b600160000154610c209190611cc1565b34610c2b9190611d17565b9081150290604051600060405180830381858888f19350505050158015610c56573d6000803e3d6000fd5b505b8573ffffffffffffffffffffffffffffffffffffffff168888604051610c7f929190611b4b565b60405180910390207f0667086d08417333ce63f40d5bc2ef6fd330e25aaaf317b7c489541f8fe600fa8a8a85604051610cba93929190611d78565b60405180910390a3809250505095945050505050565b600080828051906020012090507f000000000000000000000000000000000000000000000000000000000000000073ffffffffffffffffffffffffffffffffffffffff166396e494e88260001c6040518263ffffffff1660e01b8152600401610d399190611663565b60206040518083038186803b158015610d5157600080fd5b505afa158015610d65573d6000803e3d6000fd5b505050506040513d601f19601f82011682018060405250810190610d899190611ee5565b8015610d9757506003835110155b915050919050565b600060036000838152602001908152602001600020549050919050565b60008085805190602001209050610dd286610cd0565b610e11576040517f08c379a0000000000000000000000000000000000000000000000000000000008152600401610e0890611f5e565b60405180910390fd5b80858585604051602001610e289493929190611f7e565b60405160208183030381529060405280519060200120915050949350505050565b6060600460008381526020019081526020016000208054610e6990611ae9565b80601f0160208091040260200160405190810160405280929190818152602001828054610e9590611ae9565b8015610ee25780601f10610eb757610100808354040283529160200191610ee2565b820191906000526020600020905b815481529060010190602001808311610ec557829003601f168201915b50505050509050919050565b427f00000000000000000000000000000000000000000000000000000000000000006003600084815260200190815260200160002054610f2e9190611cc1565b10610f6e576040517f08c379a0000000000000000000000000000000000000000000000000000000008152600401610f659061200f565b60405180910390fd5b42600360008381526020019081526020016000208190555050565b610f9161100d565b600073ffffffffffffffffffffffffffffffffffffffff168173ffffffffffffffffffffffffffffffffffffffff161415611001576040517f08c379a0000000000000000000000000000000000000000000000000000000008152600401610ff8906120a1565b60405180910390fd5b61100a8161108b565b50565b6110156112c2565b73ffffffffffffffffffffffffffffffffffffffff16611033610700565b73ffffffffffffffffffffffffffffffffffffffff1614611089576040517f08c379a00000000000000000000000000000000000000000000000000000000081526004016110809061210d565b60405180910390fd5b565b60008060009054906101000a900473ffffffffffffffffffffffffffffffffffffffff169050816000806101000a81548173ffffffffffffffffffffffffffffffffffffffff021916908373ffffffffffffffffffffffffffffffffffffffff1602179055508173ffffffffffffffffffffffffffffffffffffffff168173ffffffffffffffffffffffffffffffffffffffff167f8be0079c531659141344cd1fd0a4f28419497f9722a3daafe3b4186f6b6457e060405160405180910390a35050565b427f0000000000000000000000000000000000000000000000000000000000000000600360008481526020019081526020016000205461118f9190611cc1565b11156111d0576040517f08c379a00000000000000000000000000000000000000000000000000000000081526004016111c79061219f565b60405180910390fd5b427f000000000000000000000000000000000000000000000000000000000000000060036000848152602001908152602001600020546112109190611cc1565b11611250576040517f08c379a000000000000000000000000000000000000000000000000000000000815260040161124790612231565b60405180910390fd5b61125983610cd0565b611298576040517f08c379a000000000000000000000000000000000000000000000000000000000815260040161128f9061229d565b60405180910390fd5b600360008281526020019081526020016000206000905560018210156112bd57600080fd5b505050565b600033905090565b8280546112d690611ae9565b90600052602060002090601f0160209004810192826112f8576000855561133f565b82601f1061131157803560ff191683800117855561133f565b8280016001018555821561133f579182015b8281111561133e578235825591602001919060010190611323565b5b50905061134c9190611350565b5090565b5b80821115611369576000816000905550600101611351565b5090565b6000604051905090565b600080fd5b600080fd5b6000819050919050565b61139481611381565b811461139f57600080fd5b50565b6000813590506113b18161138b565b92915050565b600080604083850312156113ce576113cd611377565b5b60006113dc858286016113a2565b92505060206113ed858286016113a2565b9150509250929050565b600080fd5b600080fd5b6000601f19601f8301169050919050565b7f4e487b7100000000000000000000000000000000000000000000000000000000600052604160045260246000fd5b61144a82611401565b810181811067ffffffffffffffff8211171561146957611468611412565b5b80604052505050565b600061147c61136d565b90506114888282611441565b919050565b600067ffffffffffffffff8211156114a8576114a7611412565b5b6114b182611401565b9050602081019050919050565b82818337600083830152505050565b60006114e06114db8461148d565b611472565b9050828152602081018484840111156114fc576114fb6113fc565b5b6115078482856114be565b509392505050565b600082601f830112611524576115236113f7565b5b81356115348482602086016114cd565b91505092915050565b60006020828403121561155357611552611377565b5b600082013567ffffffffffffffff8111156115715761157061137c565b5b61157d8482850161150f565b91505092915050565b6000819050919050565b61159981611586565b82525050565b60006020820190506115b46000830184611590565b92915050565b600073ffffffffffffffffffffffffffffffffffffffff82169050919050565b6000819050919050565b60006115ff6115fa6115f5846115ba565b6115da565b6115ba565b9050919050565b6000611611826115e4565b9050919050565b600061162382611606565b9050919050565b61163381611618565b82525050565b600060208201905061164e600083018461162a565b92915050565b61165d81611381565b82525050565b60006020820190506116786000830184611654565b92915050565b60006020828403121561169457611693611377565b5b60006116a2848285016113a2565b91505092915050565b600081519050919050565b600082825260208201905092915050565b60005b838110156116e55780820151818401526020810190506116ca565b838111156116f4576000848401525b50505050565b6000611705826116ab565b61170f81856116b6565b935061171f8185602086016116c7565b61172881611401565b840191505092915050565b6000602082019050818103600083015261174d81846116fa565b905092915050565b61175e81611586565b811461176957600080fd5b50565b60008135905061177b81611755565b92915050565b60006020828403121561179757611796611377565b5b60006117a58482850161176c565b91505092915050565b60006117b9826115ba565b9050919050565b6117c9816117ae565b82525050565b60006020820190506117e460008301846117c0565b92915050565b60006040820190506117ff6000830185611654565b61180c6020830184611654565b9392505050565b600080fd5b600080fd5b60008083601f840112611833576118326113f7565b5b8235905067ffffffffffffffff8111156118505761184f611813565b5b60208301915083600182028301111561186c5761186b611818565b5b9250929050565b60008060006040848603121561188c5761188b611377565b5b600084013567ffffffffffffffff8111156118aa576118a961137c565b5b6118b68682870161181d565b935093505060206118c9868287016113a2565b9150509250925092565b600080602083850312156118ea576118e9611377565b5b600083013567ffffffffffffffff8111156119085761190761137c565b5b6119148582860161181d565b92509250509250929050565b611929816117ae565b811461193457600080fd5b50565b60008135905061194681611920565b92915050565b60008060008060006080868803121561196857611967611377565b5b600086013567ffffffffffffffff8111156119865761198561137c565b5b6119928882890161181d565b955095505060206119a588828901611937565b93505060406119b6888289016113a2565b92505060606119c7888289016113a2565b9150509295509295909350565b60008115159050919050565b6119e9816119d4565b82525050565b6000602082019050611a0460008301846119e0565b92915050565b60008060008060808587031215611a2457611a23611377565b5b600085013567ffffffffffffffff811115611a4257611a4161137c565b5b611a4e8782880161150f565b9450506020611a5f87828801611937565b9350506040611a70878288016113a2565b9250506060611a81878288016113a2565b91505092959194509250565b600060208284031215611aa357611aa2611377565b5b6000611ab184828501611937565b91505092915050565b7f4e487b7100000000000000000000000000000000000000000000000000000000600052602260045260246000fd5b60006002820490506001821680611b0157607f821691505b60208210811415611b1557611b14611aba565b5b50919050565b600081905092915050565b6000611b328385611b1b565b9350611b3f8385846114be565b82840190509392505050565b6000611b58828486611b26565b91508190509392505050565b7f455448436f6e74726f6c6c65723a204e6f7420656e6f7567682045746865722060008201527f70726f766964656420666f722072656e6577616c000000000000000000000000602082015250565b6000611bc06034836116b6565b9150611bcb82611b64565b604082019050919050565b60006020820190508181036000830152611bef81611bb3565b9050919050565b600081519050611c058161138b565b92915050565b600060208284031215611c2157611c20611377565b5b6000611c2f84828501611bf6565b91505092915050565b7f4e487b7100000000000000000000000000000000000000000000000000000000600052601160045260246000fd5b6000611c7282611381565b9150611c7d83611381565b9250817fffffffffffffffffffffffffffffffffffffffffffffffffffffffffffffffff0483118215151615611cb657611cb5611c38565b5b828202905092915050565b6000611ccc82611381565b9150611cd783611381565b9250827fffffffffffffffffffffffffffffffffffffffffffffffffffffffffffffffff03821115611d0c57611d0b611c38565b5b828201905092915050565b6000611d2282611381565b9150611d2d83611381565b925082821015611d4057611d3f611c38565b5b828203905092915050565b6000611d5783856116b6565b9350611d648385846114be565b611d6d83611401565b840190509392505050565b60006040820190508181036000830152611d93818587611d4b565b9050611da26020830184611654565b949350505050565b7f696c6c6567616c206e616d650000000000000000000000000000000000000000600082015250565b6000611de0600c836116b6565b9150611deb82611daa565b602082019050919050565b60006020820190508181036000830152611e0f81611dd3565b9050919050565b7f204e6f7420656e6f7567682065746865722070726f7669646564000000000000600082015250565b6000611e4c601a836116b6565b9150611e5782611e16565b602082019050919050565b60006020820190508181036000830152611e7b81611e3f565b9050919050565b6000606082019050611e976000830186611654565b611ea460208301856117c0565b611eb16040830184611654565b949350505050565b611ec2816119d4565b8114611ecd57600080fd5b50565b600081519050611edf81611eb9565b92915050565b600060208284031215611efb57611efa611377565b5b6000611f0984828501611ed0565b91505092915050565b7f54686973206e616d6520686173206265656e20616c7265616479206578697374600082015250565b6000611f486020836116b6565b9150611f5382611f12565b602082019050919050565b60006020820190508181036000830152611f7781611f3b565b9050919050565b6000608082019050611f936000830187611590565b611fa060208301866117c0565b611fad6040830185611654565b611fba6060830184611654565b95945050505050565b7f5468697320636f6d6d69746d656e7420686173206e6f74206578706972656400600082015250565b6000611ff9601f836116b6565b915061200482611fc3565b602082019050919050565b6000602082019050818103600083015261202881611fec565b9050919050565b7f4f776e61626c653a206e6577206f776e657220697320746865207a65726f206160008201527f6464726573730000000000000000000000000000000000000000000000000000602082015250565b600061208b6026836116b6565b91506120968261202f565b604082019050919050565b600060208201905081810360008301526120ba8161207e565b9050919050565b7f4f776e61626c653a2063616c6c6572206973206e6f7420746865206f776e6572600082015250565b60006120f76020836116b6565b9150612102826120c1565b602082019050919050565b60006020820190508181036000830152612126816120ea565b9050919050565b7f436f6d6d69746d656e74206973206e6f742076616c69642c20506c656173652060008201527f7761697421000000000000000000000000000000000000000000000000000000602082015250565b60006121896025836116b6565b91506121948261212d565b604082019050919050565b600060208201905081810360008301526121b88161217c565b9050919050565b7f436f6d6d69746d656e742068617320657870697265642c506c6561736520636f60008201527f6d6d697420616761696e21000000000000000000000000000000000000000000602082015250565b600061221b602b836116b6565b9150612226826121bf565b604082019050919050565b6000602082019050818103600083015261224a8161220e565b9050919050565b7f4e616d6520697320756e617661696c61626c6500000000000000000000000000600082015250565b60006122876013836116b6565b915061229282612251565b602082019050919050565b600060208201905081810360008301526122b68161227a565b905091905056fea2646970667358221220258847e4ca022724478ad38d8bd994b4000658b8f2e52ef2d50dc280fad7f24664736f6c63430008090033",
  "linkReferences": {},
  "deployedLinkReferences": {}
}