{
  "_format": "hh-sol-artifact-1",
  "contractName": "Register",
  "sourceName": "contracts/eth-registry/Register.sol",
  "abi": [
    {
      "inputs": [
        {
          "internalType": "contract NodeController",
          "name": "_nodecontroller",
          "type": "address"
        }
      ],
      "stateMutability": "nonpayable",
      "type": "constructor"
    },
    {
      "anonymous": false,
      "inputs": [
        {
          "indexed": true,
          "internalType": "address",
          "name": "owner",
          "type": "address"
        },
        {
          "indexed": true,
          "internalType": "address",
          "name": "approved",
          "type": "address"
        },
        {
          "indexed": true,
          "internalType": "uint256",
          "name": "tokenId",
          "type": "uint256"
        }
      ],
      "name": "Approval",
      "type": "event"
    },
    {
      "anonymous": false,
      "inputs": [
        {
          "indexed": true,
          "internalType": "address",
          "name": "owner",
          "type": "address"
        },
        {
          "indexed": true,
          "internalType": "address",
          "name": "operator",
          "type": "address"
        },
        {
          "indexed": false,
          "internalType": "bool",
          "name": "approved",
          "type": "bool"
        }
      ],
      "name": "ApprovalForAll",
      "type": "event"
    },
    {
      "anonymous": false,
      "inputs": [
        {
          "indexed": true,
          "internalType": "address",
          "name": "previousOwner",
          "type": "address"
        },
        {
          "indexed": true,
          "internalType": "address",
          "name": "newOwner",
          "type": "address"
        }
      ],
      "name": "OwnershipTransferred",
      "type": "event"
    },
    {
      "anonymous": false,
      "inputs": [
        {
          "indexed": true,
          "internalType": "address",
          "name": "from",
          "type": "address"
        },
        {
          "indexed": true,
          "internalType": "address",
          "name": "to",
          "type": "address"
        },
        {
          "indexed": true,
          "internalType": "uint256",
          "name": "tokenId",
          "type": "uint256"
        }
      ],
      "name": "Transfer",
      "type": "event"
    },
    {
      "inputs": [],
      "name": "GRACE_PERIOD",
      "outputs": [
        {
          "internalType": "uint256",
          "name": "",
          "type": "uint256"
        }
      ],
      "stateMutability": "view",
      "type": "function"
    },
    {
      "inputs": [
        {
          "internalType": "address",
          "name": "controller",
          "type": "address"
        }
      ],
      "name": "addController",
      "outputs": [],
      "stateMutability": "nonpayable",
      "type": "function"
    },
    {
      "inputs": [
        {
          "internalType": "address",
          "name": "to",
          "type": "address"
        },
        {
          "internalType": "uint256",
          "name": "tokenId",
          "type": "uint256"
        }
      ],
      "name": "approve",
      "outputs": [],
      "stateMutability": "nonpayable",
      "type": "function"
    },
    {
      "inputs": [
        {
          "internalType": "uint256",
          "name": "id",
          "type": "uint256"
        }
      ],
      "name": "available",
      "outputs": [
        {
          "internalType": "bool",
          "name": "",
          "type": "bool"
        }
      ],
      "stateMutability": "view",
      "type": "function"
    },
    {
      "inputs": [
        {
          "internalType": "address",
          "name": "owner",
          "type": "address"
        }
      ],
      "name": "balanceOf",
      "outputs": [
        {
          "internalType": "uint256",
          "name": "",
          "type": "uint256"
        }
      ],
      "stateMutability": "view",
      "type": "function"
    },
    {
      "inputs": [
        {
          "internalType": "uint256",
          "name": "id",
          "type": "uint256"
        }
      ],
      "name": "checkExpire",
      "outputs": [
        {
          "internalType": "uint256",
          "name": "",
          "type": "uint256"
        }
      ],
      "stateMutability": "view",
      "type": "function"
    },
    {
      "inputs": [
        {
          "internalType": "string",
          "name": "name",
          "type": "string"
        }
      ],
      "name": "check_node",
      "outputs": [
        {
          "internalType": "bytes32",
          "name": "",
          "type": "bytes32"
        }
      ],
      "stateMutability": "pure",
      "type": "function"
    },
    {
      "inputs": [],
      "name": "checkdefaultResolver",
      "outputs": [
        {
          "internalType": "address",
          "name": "",
          "type": "address"
        }
      ],
      "stateMutability": "view",
      "type": "function"
    },
    {
      "inputs": [
        {
          "internalType": "uint256",
          "name": "label",
          "type": "uint256"
        }
      ],
      "name": "checkduration",
      "outputs": [
        {
          "internalType": "uint256",
          "name": "",
          "type": "uint256"
        }
      ],
      "stateMutability": "view",
      "type": "function"
    },
    {
      "inputs": [
        {
          "internalType": "address",
          "name": "",
          "type": "address"
        }
      ],
      "name": "controllers",
      "outputs": [
        {
          "internalType": "bool",
          "name": "",
          "type": "bool"
        }
      ],
      "stateMutability": "view",
      "type": "function"
    },
    {
      "inputs": [],
      "name": "defaultResolver",
      "outputs": [
        {
          "internalType": "address",
          "name": "",
          "type": "address"
        }
      ],
      "stateMutability": "view",
      "type": "function"
    },
    {
      "inputs": [
        {
          "internalType": "uint256",
          "name": "tokenId",
          "type": "uint256"
        }
      ],
      "name": "getApproved",
      "outputs": [
        {
          "internalType": "address",
          "name": "",
          "type": "address"
        }
      ],
      "stateMutability": "view",
      "type": "function"
    },
    {
      "inputs": [
        {
          "internalType": "address",
          "name": "owner",
          "type": "address"
        },
        {
          "internalType": "address",
          "name": "operator",
          "type": "address"
        }
      ],
      "name": "isApprovedForAll",
      "outputs": [
        {
          "internalType": "bool",
          "name": "",
          "type": "bool"
        }
      ],
      "stateMutability": "view",
      "type": "function"
    },
    {
      "inputs": [
        {
          "internalType": "string",
          "name": "name",
          "type": "string"
        }
      ],
      "name": "makeNode",
      "outputs": [
        {
          "internalType": "bytes32",
          "name": "",
          "type": "bytes32"
        }
      ],
      "stateMutability": "pure",
      "type": "function"
    },
    {
      "inputs": [],
      "name": "name",
      "outputs": [
        {
          "internalType": "string",
          "name": "",
          "type": "string"
        }
      ],
      "stateMutability": "view",
      "type": "function"
    },
    {
      "inputs": [],
      "name": "nodecontroller",
      "outputs": [
        {
          "internalType": "contract NodeController",
          "name": "",
          "type": "address"
        }
      ],
      "stateMutability": "view",
      "type": "function"
    },
    {
      "inputs": [],
      "name": "owner",
      "outputs": [
        {
          "internalType": "address",
          "name": "",
          "type": "address"
        }
      ],
      "stateMutability": "view",
      "type": "function"
    },
    {
      "inputs": [
        {
          "internalType": "uint256",
          "name": "tokenId",
          "type": "uint256"
        }
      ],
      "name": "ownerOf",
      "outputs": [
        {
          "internalType": "address",
          "name": "",
          "type": "address"
        }
      ],
      "stateMutability": "view",
      "type": "function"
    },
    {
      "inputs": [
        {
          "internalType": "uint256",
          "name": "id",
          "type": "uint256"
        },
        {
          "internalType": "address",
          "name": "owner",
          "type": "address"
        }
      ],
      "name": "reclaim",
      "outputs": [],
      "stateMutability": "nonpayable",
      "type": "function"
    },
    {
      "inputs": [
        {
          "internalType": "uint256",
          "name": "id",
          "type": "uint256"
        },
        {
          "internalType": "address",
          "name": "owner",
          "type": "address"
        },
        {
          "internalType": "uint256",
          "name": "duration",
          "type": "uint256"
        }
      ],
      "name": "register",
      "outputs": [
        {
          "internalType": "uint256",
          "name": "",
          "type": "uint256"
        }
      ],
      "stateMutability": "nonpayable",
      "type": "function"
    },
    {
      "inputs": [
        {
          "internalType": "address",
          "name": "controller",
          "type": "address"
        }
      ],
      "name": "removeController",
      "outputs": [],
      "stateMutability": "nonpayable",
      "type": "function"
    },
    {
      "inputs": [
        {
          "internalType": "uint256",
          "name": "id",
          "type": "uint256"
        },
        {
          "internalType": "uint256",
          "name": "duration",
          "type": "uint256"
        }
      ],
      "name": "renew",
      "outputs": [
        {
          "internalType": "uint256",
          "name": "",
          "type": "uint256"
        }
      ],
      "stateMutability": "nonpayable",
      "type": "function"
    },
    {
      "inputs": [],
      "name": "renounceOwnership",
      "outputs": [],
      "stateMutability": "nonpayable",
      "type": "function"
    },
    {
      "inputs": [
        {
          "internalType": "address",
          "name": "from",
          "type": "address"
        },
        {
          "internalType": "address",
          "name": "to",
          "type": "address"
        },
        {
          "internalType": "uint256",
          "name": "tokenId",
          "type": "uint256"
        }
      ],
      "name": "safeTransferFrom",
      "outputs": [],
      "stateMutability": "nonpayable",
      "type": "function"
    },
    {
      "inputs": [
        {
          "internalType": "address",
          "name": "from",
          "type": "address"
        },
        {
          "internalType": "address",
          "name": "to",
          "type": "address"
        },
        {
          "internalType": "uint256",
          "name": "tokenId",
          "type": "uint256"
        },
        {
          "internalType": "bytes",
          "name": "data",
          "type": "bytes"
        }
      ],
      "name": "safeTransferFrom",
      "outputs": [],
      "stateMutability": "nonpayable",
      "type": "function"
    },
    {
      "inputs": [
        {
          "internalType": "address",
          "name": "operator",
          "type": "address"
        },
        {
          "internalType": "bool",
          "name": "approved",
          "type": "bool"
        }
      ],
      "name": "setApprovalForAll",
      "outputs": [],
      "stateMutability": "nonpayable",
      "type": "function"
    },
    {
      "inputs": [
        {
          "internalType": "address",
          "name": "_defaultResolver",
          "type": "address"
        }
      ],
      "name": "setdefaultResolver",
      "outputs": [],
      "stateMutability": "nonpayable",
      "type": "function"
    },
    {
      "inputs": [
        {
          "internalType": "bytes4",
          "name": "interfaceId",
          "type": "bytes4"
        }
      ],
      "name": "supportsInterface",
      "outputs": [
        {
          "internalType": "bool",
          "name": "",
          "type": "bool"
        }
      ],
      "stateMutability": "view",
      "type": "function"
    },
    {
      "inputs": [],
      "name": "symbol",
      "outputs": [
        {
          "internalType": "string",
          "name": "",
          "type": "string"
        }
      ],
      "stateMutability": "view",
      "type": "function"
    },
    {
      "inputs": [
        {
          "internalType": "uint256",
          "name": "tokenId",
          "type": "uint256"
        }
      ],
      "name": "tokenURI",
      "outputs": [
        {
          "internalType": "string",
          "name": "",
          "type": "string"
        }
      ],
      "stateMutability": "view",
      "type": "function"
    },
    {
      "inputs": [
        {
          "internalType": "address",
          "name": "from",
          "type": "address"
        },
        {
          "internalType": "address",
          "name": "to",
          "type": "address"
        },
        {
          "internalType": "uint256",
          "name": "tokenId",
          "type": "uint256"
        }
      ],
      "name": "transferFrom",
      "outputs": [],
      "stateMutability": "nonpayable",
      "type": "function"
    },
    {
      "inputs": [
        {
          "internalType": "address",
          "name": "newOwner",
          "type": "address"
        }
      ],
      "name": "transferOwnership",
      "outputs": [],
      "stateMutability": "nonpayable",
      "type": "function"
    }
  ],
  "bytecode": "0x60806040523480156200001157600080fd5b5060405162003d9038038062003d9083398181016040528101906200003791906200033b565b6040518060400160405280600481526020017f73746172000000000000000000000000000000000000000000000000000000008152506040518060400160405280600481526020017f73746172000000000000000000000000000000000000000000000000000000008152508160009080519060200190620000bb9291906200020d565b508060019080519060200190620000d49291906200020d565b505050620000f7620000eb6200013f60201b60201c565b6200014760201b60201c565b80600760006101000a81548173ffffffffffffffffffffffffffffffffffffffff021916908373ffffffffffffffffffffffffffffffffffffffff16021790555050620003d2565b600033905090565b6000600660009054906101000a900473ffffffffffffffffffffffffffffffffffffffff16905081600660006101000a81548173ffffffffffffffffffffffffffffffffffffffff021916908373ffffffffffffffffffffffffffffffffffffffff1602179055508173ffffffffffffffffffffffffffffffffffffffff168173ffffffffffffffffffffffffffffffffffffffff167f8be0079c531659141344cd1fd0a4f28419497f9722a3daafe3b4186f6b6457e060405160405180910390a35050565b8280546200021b906200039c565b90600052602060002090601f0160209004810192826200023f57600085556200028b565b82601f106200025a57805160ff19168380011785556200028b565b828001600101855582156200028b579182015b828111156200028a5782518255916020019190600101906200026d565b5b5090506200029a91906200029e565b5090565b5b80821115620002b95760008160009055506001016200029f565b5090565b600080fd5b600073ffffffffffffffffffffffffffffffffffffffff82169050919050565b6000620002ef82620002c2565b9050919050565b60006200030382620002e2565b9050919050565b6200031581620002f6565b81146200032157600080fd5b50565b60008151905062000335816200030a565b92915050565b600060208284031215620003545762000353620002bd565b5b6000620003648482850162000324565b91505092915050565b7f4e487b7100000000000000000000000000000000000000000000000000000000600052602260045260246000fd5b60006002820490506001821680620003b557607f821691505b60208210811415620003cc57620003cb6200036d565b5b50919050565b6139ae80620003e26000396000f3fe608060405234801561001057600080fd5b50600436106101f05760003560e01c806395d89b411161010f578063c475abff116100a2578063e985e9c511610071578063e985e9c5146105f1578063f2fde38b14610621578063f6a74ed71461063d578063fca247ac14610659576101f0565b8063c475abff14610543578063c87b56dd14610573578063da8c229e146105a3578063e0497d0b146105d3576101f0565b8063a4cbf5f4116100de578063a4cbf5f4146104bd578063a7fc7a07146104ed578063b88d4fde14610509578063c1a287e214610525576101f0565b806395d89b411461042357806396e494e81461044157806399e4c79b14610471578063a22cb465146104a1576101f0565b80634d6993eb11610187578063715018a611610156578063715018a6146103ad578063828eab0e146103b7578063892a04b6146103d55780638da5cb5b14610405576101f0565b80634d6993eb146103135780636352211e146103315780636b80b9181461036157806370a082311461037d576101f0565b80630ae9eecf116101c35780630ae9eecf1461028f57806323b872dd146102bf57806328ed4f6c146102db57806342842e0e146102f7576101f0565b806301ffc9a7146101f557806306fdde0314610225578063081812fc14610243578063095ea7b314610273575b600080fd5b61020f600480360381019061020a919061268d565b610689565b60405161021c91906126d5565b60405180910390f35b61022d61076b565b60405161023a9190612789565b60405180910390f35b61025d600480360381019061025891906127e1565b6107fd565b60405161026a919061284f565b60405180910390f35b61028d60048036038101906102889190612896565b610843565b005b6102a960048036038101906102a4919061293b565b61095b565b6040516102b691906129a1565b60405180910390f35b6102d960048036038101906102d491906129bc565b6109d3565b005b6102f560048036038101906102f09190612a0f565b610a33565b005b610311600480360381019061030c91906129bc565b610c06565b005b61031b610c26565b6040516103289190612aae565b60405180910390f35b61034b600480360381019061034691906127e1565b610c4c565b604051610358919061284f565b60405180910390f35b61037b60048036038101906103769190612ac9565b610cfe565b005b61039760048036038101906103929190612ac9565b610d4a565b6040516103a49190612b05565b60405180910390f35b6103b5610e02565b005b6103bf610e16565b6040516103cc919061284f565b60405180910390f35b6103ef60048036038101906103ea91906127e1565b610e3c565b6040516103fc9190612b05565b60405180910390f35b61040d610e64565b60405161041a919061284f565b60405180910390f35b61042b610e8e565b6040516104389190612789565b60405180910390f35b61045b600480360381019061045691906127e1565b610f20565b60405161046891906126d5565b60405180910390f35b61048b6004803603810190610486919061293b565b610f4d565b60405161049891906129a1565b60405180910390f35b6104bb60048036038101906104b69190612b4c565b610fbf565b005b6104d760048036038101906104d291906127e1565b610fd5565b6040516104e49190612b05565b60405180910390f35b61050760048036038101906105029190612ac9565b610ff2565b005b610523600480360381019061051e9190612cbc565b611055565b005b61052d6110b7565b60405161053a9190612b05565b60405180910390f35b61055d60048036038101906105589190612d3f565b6110be565b60405161056a9190612b05565b60405180910390f35b61058d600480360381019061058891906127e1565b6110d2565b60405161059a9190612789565b60405180910390f35b6105bd60048036038101906105b89190612ac9565b61113a565b6040516105ca91906126d5565b60405180910390f35b6105db61115a565b6040516105e8919061284f565b60405180910390f35b61060b60048036038101906106069190612d7f565b611184565b60405161061891906126d5565b60405180910390f35b61063b60048036038101906106369190612ac9565b611218565b005b61065760048036038101906106529190612ac9565b61129c565b005b610673600480360381019061066e9190612dbf565b6112ff565b6040516106809190612b05565b60405180910390f35b60007f80ac58cd000000000000000000000000000000000000000000000000000000007bffffffffffffffffffffffffffffffffffffffffffffffffffffffff1916827bffffffffffffffffffffffffffffffffffffffffffffffffffffffff1916148061075457507f5b5e139f000000000000000000000000000000000000000000000000000000007bffffffffffffffffffffffffffffffffffffffffffffffffffffffff1916827bffffffffffffffffffffffffffffffffffffffffffffffffffffffff1916145b80610764575061076382611315565b5b9050919050565b60606000805461077a90612e41565b80601f01602080910402602001604051908101604052809291908181526020018280546107a690612e41565b80156107f35780601f106107c8576101008083540402835291602001916107f3565b820191906000526020600020905b8154815290600101906020018083116107d657829003601f168201915b5050505050905090565b60006108088261137f565b6004600083815260200190815260200160002060009054906101000a900473ffffffffffffffffffffffffffffffffffffffff169050919050565b600061084e82610c4c565b90508073ffffffffffffffffffffffffffffffffffffffff168373ffffffffffffffffffffffffffffffffffffffff1614156108bf576040517f08c379a00000000000000000000000000000000000000000000000000000000081526004016108b690612ee5565b60405180910390fd5b8073ffffffffffffffffffffffffffffffffffffffff166108de6113ca565b73ffffffffffffffffffffffffffffffffffffffff16148061090d575061090c816109076113ca565b611184565b5b61094c576040517f08c379a000000000000000000000000000000000000000000000000000000000815260040161094390612f77565b60405180910390fd5b61095683836113d2565b505050565b600080838360405161096e929190612fc7565b604051809103902060001c90507f24bb3ee1d13e66ad83f7d8f92faad2f685c75a758f36e5c579c522e29aef77e060001b8160001b6040516020016109b4929190613001565b6040516020818303038152906040528051906020012091505092915050565b6109e46109de6113ca565b8261148b565b610a23576040517f08c379a0000000000000000000000000000000000000000000000000000000008152600401610a1a9061309f565b60405180910390fd5b610a2e838383611520565b505050565b3073ffffffffffffffffffffffffffffffffffffffff16600760009054906101000a900473ffffffffffffffffffffffffffffffffffffffff1673ffffffffffffffffffffffffffffffffffffffff16638d2d22c07f24bb3ee1d13e66ad83f7d8f92faad2f685c75a758f36e5c579c522e29aef77e060001b6040518263ffffffff1660e01b8152600401610ac891906129a1565b60206040518083038186803b158015610ae057600080fd5b505afa158015610af4573d6000803e3d6000fd5b505050506040513d601f19601f82011682018060405250810190610b1891906130d4565b73ffffffffffffffffffffffffffffffffffffffff1614610b3857600080fd5b610b42338361148b565b610b4b57600080fd5b600760009054906101000a900473ffffffffffffffffffffffffffffffffffffffff1673ffffffffffffffffffffffffffffffffffffffff1663167da72a7f24bb3ee1d13e66ad83f7d8f92faad2f685c75a758f36e5c579c522e29aef77e060001b8460001b846040518463ffffffff1660e01b8152600401610bd093929190613101565b600060405180830381600087803b158015610bea57600080fd5b505af1158015610bfe573d6000803e3d6000fd5b505050505050565b610c2183838360405180602001604052806000815250611055565b505050565b600760009054906101000a900473ffffffffffffffffffffffffffffffffffffffff1681565b6000806002600084815260200190815260200160002060009054906101000a900473ffffffffffffffffffffffffffffffffffffffff169050600073ffffffffffffffffffffffffffffffffffffffff168173ffffffffffffffffffffffffffffffffffffffff161415610cf5576040517f08c379a0000000000000000000000000000000000000000000000000000000008152600401610cec90613184565b60405180910390fd5b80915050919050565b610d06611787565b80600860006101000a81548173ffffffffffffffffffffffffffffffffffffffff021916908373ffffffffffffffffffffffffffffffffffffffff16021790555050565b60008073ffffffffffffffffffffffffffffffffffffffff168273ffffffffffffffffffffffffffffffffffffffff161415610dbb576040517f08c379a0000000000000000000000000000000000000000000000000000000008152600401610db290613216565b60405180910390fd5b600360008373ffffffffffffffffffffffffffffffffffffffff1673ffffffffffffffffffffffffffffffffffffffff168152602001908152602001600020549050919050565b610e0a611787565b610e146000611805565b565b600860009054906101000a900473ffffffffffffffffffffffffffffffffffffffff1681565b6000426009600084815260200190815260200160002054610e5d9190613265565b9050919050565b6000600660009054906101000a900473ffffffffffffffffffffffffffffffffffffffff16905090565b606060018054610e9d90612e41565b80601f0160208091040260200160405190810160405280929190818152602001828054610ec990612e41565b8015610f165780601f10610eeb57610100808354040283529160200191610f16565b820191906000526020600020905b815481529060010190602001808311610ef957829003601f168201915b5050505050905090565b6000426224ea006009600085815260200190815260200160002054610f459190613299565b109050919050565b6000808383604051610f60929190612fc7565b604051809103902090507f24bb3ee1d13e66ad83f7d8f92faad2f685c75a758f36e5c579c522e29aef77e060001b81604051602001610fa0929190613001565b6040516020818303038152906040528051906020012091505092915050565b610fd1610fca6113ca565b83836118cb565b5050565b600060096000838152602001908152602001600020549050919050565b610ffa611787565b6001600a60008373ffffffffffffffffffffffffffffffffffffffff1673ffffffffffffffffffffffffffffffffffffffff16815260200190815260200160002060006101000a81548160ff02191690831515021790555050565b6110666110606113ca565b8361148b565b6110a5576040517f08c379a000000000000000000000000000000000000000000000000000000000815260040161109c9061309f565b60405180910390fd5b6110b184848484611a38565b50505050565b6224ea0081565b60006110ca8383611a94565b905092915050565b60606110dd8261137f565b60006110e7611cab565b905060008151116111075760405180602001604052806000815250611132565b8061111184611cc2565b60405160200161112292919061332b565b6040516020818303038152906040525b915050919050565b600a6020528060005260406000206000915054906101000a900460ff1681565b6000600860009054906101000a900473ffffffffffffffffffffffffffffffffffffffff16905090565b6000600560008473ffffffffffffffffffffffffffffffffffffffff1673ffffffffffffffffffffffffffffffffffffffff16815260200190815260200160002060008373ffffffffffffffffffffffffffffffffffffffff1673ffffffffffffffffffffffffffffffffffffffff16815260200190815260200160002060009054906101000a900460ff16905092915050565b611220611787565b600073ffffffffffffffffffffffffffffffffffffffff168173ffffffffffffffffffffffffffffffffffffffff161415611290576040517f08c379a0000000000000000000000000000000000000000000000000000000008152600401611287906133c1565b60405180910390fd5b61129981611805565b50565b6112a4611787565b6000600a60008373ffffffffffffffffffffffffffffffffffffffff1673ffffffffffffffffffffffffffffffffffffffff16815260200190815260200160002060006101000a81548160ff02191690831515021790555050565b600061130c848484611e23565b90509392505050565b60007f01ffc9a7000000000000000000000000000000000000000000000000000000007bffffffffffffffffffffffffffffffffffffffffffffffffffffffff1916827bffffffffffffffffffffffffffffffffffffffffffffffffffffffff1916149050919050565b611388816120fa565b6113c7576040517f08c379a00000000000000000000000000000000000000000000000000000000081526004016113be90613184565b60405180910390fd5b50565b600033905090565b816004600083815260200190815260200160002060006101000a81548173ffffffffffffffffffffffffffffffffffffffff021916908373ffffffffffffffffffffffffffffffffffffffff160217905550808273ffffffffffffffffffffffffffffffffffffffff1661144583610c4c565b73ffffffffffffffffffffffffffffffffffffffff167f8c5be1e5ebec7d5bd14f71427d1e84f3dd0314c0f7b2291e5b200ac8c7c3b92560405160405180910390a45050565b60008061149783610c4c565b90508073ffffffffffffffffffffffffffffffffffffffff168473ffffffffffffffffffffffffffffffffffffffff1614806114d957506114d88185611184565b5b8061151757508373ffffffffffffffffffffffffffffffffffffffff166114ff846107fd565b73ffffffffffffffffffffffffffffffffffffffff16145b91505092915050565b8273ffffffffffffffffffffffffffffffffffffffff1661154082610c4c565b73ffffffffffffffffffffffffffffffffffffffff1614611596576040517f08c379a000000000000000000000000000000000000000000000000000000000815260040161158d90613453565b60405180910390fd5b600073ffffffffffffffffffffffffffffffffffffffff168273ffffffffffffffffffffffffffffffffffffffff161415611606576040517f08c379a00000000000000000000000000000000000000000000000000000000081526004016115fd906134e5565b60405180910390fd5b611611838383612166565b61161c6000826113d2565b6001600360008573ffffffffffffffffffffffffffffffffffffffff1673ffffffffffffffffffffffffffffffffffffffff168152602001908152602001600020600082825461166c9190613265565b925050819055506001600360008473ffffffffffffffffffffffffffffffffffffffff1673ffffffffffffffffffffffffffffffffffffffff16815260200190815260200160002060008282546116c39190613299565b92505081905550816002600083815260200190815260200160002060006101000a81548173ffffffffffffffffffffffffffffffffffffffff021916908373ffffffffffffffffffffffffffffffffffffffff160217905550808273ffffffffffffffffffffffffffffffffffffffff168473ffffffffffffffffffffffffffffffffffffffff167fddf252ad1be2c89b69c2b068fc378daa952ba7f163c4a11628f55a4df523b3ef60405160405180910390a461178283838361216b565b505050565b61178f6113ca565b73ffffffffffffffffffffffffffffffffffffffff166117ad610e64565b73ffffffffffffffffffffffffffffffffffffffff1614611803576040517f08c379a00000000000000000000000000000000000000000000000000000000081526004016117fa90613551565b60405180910390fd5b565b6000600660009054906101000a900473ffffffffffffffffffffffffffffffffffffffff16905081600660006101000a81548173ffffffffffffffffffffffffffffffffffffffff021916908373ffffffffffffffffffffffffffffffffffffffff1602179055508173ffffffffffffffffffffffffffffffffffffffff168173ffffffffffffffffffffffffffffffffffffffff167f8be0079c531659141344cd1fd0a4f28419497f9722a3daafe3b4186f6b6457e060405160405180910390a35050565b8173ffffffffffffffffffffffffffffffffffffffff168373ffffffffffffffffffffffffffffffffffffffff16141561193a576040517f08c379a0000000000000000000000000000000000000000000000000000000008152600401611931906135bd565b60405180910390fd5b80600560008573ffffffffffffffffffffffffffffffffffffffff1673ffffffffffffffffffffffffffffffffffffffff16815260200190815260200160002060008473ffffffffffffffffffffffffffffffffffffffff1673ffffffffffffffffffffffffffffffffffffffff16815260200190815260200160002060006101000a81548160ff0219169083151502179055508173ffffffffffffffffffffffffffffffffffffffff168373ffffffffffffffffffffffffffffffffffffffff167f17307eab39ab6107e8899845ad3d59bd9653f200f220920489ca2b5937696c3183604051611a2b91906126d5565b60405180910390a3505050565b611a43848484611520565b611a4f84848484612170565b611a8e576040517f08c379a0000000000000000000000000000000000000000000000000000000008152600401611a859061364f565b60405180910390fd5b50505050565b6000600a60003373ffffffffffffffffffffffffffffffffffffffff1673ffffffffffffffffffffffffffffffffffffffff16815260200190815260200160002060009054906101000a900460ff16611aec57600080fd5b3073ffffffffffffffffffffffffffffffffffffffff16600760009054906101000a900473ffffffffffffffffffffffffffffffffffffffff1673ffffffffffffffffffffffffffffffffffffffff16638d2d22c07f24bb3ee1d13e66ad83f7d8f92faad2f685c75a758f36e5c579c522e29aef77e060001b6040518263ffffffff1660e01b8152600401611b8191906129a1565b60206040518083038186803b158015611b9957600080fd5b505afa158015611bad573d6000803e3d6000fd5b505050506040513d601f19601f82011682018060405250810190611bd191906130d4565b73ffffffffffffffffffffffffffffffffffffffff1614611bf157600080fd5b426224ea006009600086815260200190815260200160002054611c149190613299565b1015611c1f57600080fd5b6224ea0082611c2e9190613299565b6224ea00836009600087815260200190815260200160002054611c519190613299565b611c5b9190613299565b11611c6557600080fd5b81600960008581526020019081526020016000206000828254611c889190613299565b925050819055506009600084815260200190815260200160002054905092915050565b606060405180602001604052806000815250905090565b60606000821415611d0a576040518060400160405280600181526020017f30000000000000000000000000000000000000000000000000000000000000008152509050611e1e565b600082905060005b60008214611d3c578080611d259061366f565b915050600a82611d3591906136e7565b9150611d12565b60008167ffffffffffffffff811115611d5857611d57612b91565b5b6040519080825280601f01601f191660200182016040528015611d8a5781602001600182028036833780820191505090505b5090505b60008514611e1757600182611da39190613265565b9150600a85611db29190613718565b6030611dbe9190613299565b60f81b818381518110611dd457611dd3613749565b5b60200101907effffffffffffffffffffffffffffffffffffffffffffffffffffffffffffff1916908160001a905350600a85611e1091906136e7565b9450611d8e565b8093505050505b919050565b6000600a60003373ffffffffffffffffffffffffffffffffffffffff1673ffffffffffffffffffffffffffffffffffffffff16815260200190815260200160002060009054906101000a900460ff16611e7b57600080fd5b3073ffffffffffffffffffffffffffffffffffffffff16600760009054906101000a900473ffffffffffffffffffffffffffffffffffffffff1673ffffffffffffffffffffffffffffffffffffffff16638d2d22c07f24bb3ee1d13e66ad83f7d8f92faad2f685c75a758f36e5c579c522e29aef77e060001b6040518263ffffffff1660e01b8152600401611f1091906129a1565b60206040518083038186803b158015611f2857600080fd5b505afa158015611f3c573d6000803e3d6000fd5b505050506040513d601f19601f82011682018060405250810190611f6091906130d4565b73ffffffffffffffffffffffffffffffffffffffff1614611f8057600080fd5b611f8984610f20565b611f9257600080fd5b6224ea0042611fa19190613299565b6224ea008342611fb19190613299565b611fbb9190613299565b11611fc557600080fd5b8142611fd19190613299565b6009600086815260200190815260200160002081905550611ff1846120fa565b1561200057611fff84612307565b5b61200a8385612424565b600760009054906101000a900473ffffffffffffffffffffffffffffffffffffffff1673ffffffffffffffffffffffffffffffffffffffff1663a8b4f0507f24bb3ee1d13e66ad83f7d8f92faad2f685c75a758f36e5c579c522e29aef77e060001b8660001b86600860009054906101000a900473ffffffffffffffffffffffffffffffffffffffff166040518563ffffffff1660e01b81526004016120b39493929190613778565b600060405180830381600087803b1580156120cd57600080fd5b505af11580156120e1573d6000803e3d6000fd5b5050505081426120f19190613299565b90509392505050565b60008073ffffffffffffffffffffffffffffffffffffffff166002600084815260200190815260200160002060009054906101000a900473ffffffffffffffffffffffffffffffffffffffff1673ffffffffffffffffffffffffffffffffffffffff1614159050919050565b505050565b505050565b60006121918473ffffffffffffffffffffffffffffffffffffffff166125fe565b156122fa578373ffffffffffffffffffffffffffffffffffffffff1663150b7a026121ba6113ca565b8786866040518563ffffffff1660e01b81526004016121dc9493929190613812565b602060405180830381600087803b1580156121f657600080fd5b505af192505050801561222757506040513d601f19601f820116820180604052508101906122249190613873565b60015b6122aa573d8060008114612257576040519150601f19603f3d011682016040523d82523d6000602084013e61225c565b606091505b506000815114156122a2576040517f08c379a00000000000000000000000000000000000000000000000000000000081526004016122999061364f565b60405180910390fd5b805181602001fd5b63150b7a0260e01b7bffffffffffffffffffffffffffffffffffffffffffffffffffffffff1916817bffffffffffffffffffffffffffffffffffffffffffffffffffffffff1916149150506122ff565b600190505b949350505050565b600061231282610c4c565b905061232081600084612166565b61232b6000836113d2565b6001600360008373ffffffffffffffffffffffffffffffffffffffff1673ffffffffffffffffffffffffffffffffffffffff168152602001908152602001600020600082825461237b9190613265565b925050819055506002600083815260200190815260200160002060006101000a81549073ffffffffffffffffffffffffffffffffffffffff021916905581600073ffffffffffffffffffffffffffffffffffffffff168273ffffffffffffffffffffffffffffffffffffffff167fddf252ad1be2c89b69c2b068fc378daa952ba7f163c4a11628f55a4df523b3ef60405160405180910390a46124208160008461216b565b5050565b600073ffffffffffffffffffffffffffffffffffffffff168273ffffffffffffffffffffffffffffffffffffffff161415612494576040517f08c379a000000000000000000000000000000000000000000000000000000000815260040161248b906138ec565b60405180910390fd5b61249d816120fa565b156124dd576040517f08c379a00000000000000000000000000000000000000000000000000000000081526004016124d490613958565b60405180910390fd5b6124e960008383612166565b6001600360008473ffffffffffffffffffffffffffffffffffffffff1673ffffffffffffffffffffffffffffffffffffffff16815260200190815260200160002060008282546125399190613299565b92505081905550816002600083815260200190815260200160002060006101000a81548173ffffffffffffffffffffffffffffffffffffffff021916908373ffffffffffffffffffffffffffffffffffffffff160217905550808273ffffffffffffffffffffffffffffffffffffffff16600073ffffffffffffffffffffffffffffffffffffffff167fddf252ad1be2c89b69c2b068fc378daa952ba7f163c4a11628f55a4df523b3ef60405160405180910390a46125fa6000838361216b565b5050565b6000808273ffffffffffffffffffffffffffffffffffffffff163b119050919050565b6000604051905090565b600080fd5b600080fd5b60007fffffffff0000000000000000000000000000000000000000000000000000000082169050919050565b61266a81612635565b811461267557600080fd5b50565b60008135905061268781612661565b92915050565b6000602082840312156126a3576126a261262b565b5b60006126b184828501612678565b91505092915050565b60008115159050919050565b6126cf816126ba565b82525050565b60006020820190506126ea60008301846126c6565b92915050565b600081519050919050565b600082825260208201905092915050565b60005b8381101561272a57808201518184015260208101905061270f565b83811115612739576000848401525b50505050565b6000601f19601f8301169050919050565b600061275b826126f0565b61276581856126fb565b935061277581856020860161270c565b61277e8161273f565b840191505092915050565b600060208201905081810360008301526127a38184612750565b905092915050565b6000819050919050565b6127be816127ab565b81146127c957600080fd5b50565b6000813590506127db816127b5565b92915050565b6000602082840312156127f7576127f661262b565b5b6000612805848285016127cc565b91505092915050565b600073ffffffffffffffffffffffffffffffffffffffff82169050919050565b60006128398261280e565b9050919050565b6128498161282e565b82525050565b60006020820190506128646000830184612840565b92915050565b6128738161282e565b811461287e57600080fd5b50565b6000813590506128908161286a565b92915050565b600080604083850312156128ad576128ac61262b565b5b60006128bb85828601612881565b92505060206128cc858286016127cc565b9150509250929050565b600080fd5b600080fd5b600080fd5b60008083601f8401126128fb576128fa6128d6565b5b8235905067ffffffffffffffff811115612918576129176128db565b5b602083019150836001820283011115612934576129336128e0565b5b9250929050565b600080602083850312156129525761295161262b565b5b600083013567ffffffffffffffff8111156129705761296f612630565b5b61297c858286016128e5565b92509250509250929050565b6000819050919050565b61299b81612988565b82525050565b60006020820190506129b66000830184612992565b92915050565b6000806000606084860312156129d5576129d461262b565b5b60006129e386828701612881565b93505060206129f486828701612881565b9250506040612a05868287016127cc565b9150509250925092565b60008060408385031215612a2657612a2561262b565b5b6000612a34858286016127cc565b9250506020612a4585828601612881565b9150509250929050565b6000819050919050565b6000612a74612a6f612a6a8461280e565b612a4f565b61280e565b9050919050565b6000612a8682612a59565b9050919050565b6000612a9882612a7b565b9050919050565b612aa881612a8d565b82525050565b6000602082019050612ac36000830184612a9f565b92915050565b600060208284031215612adf57612ade61262b565b5b6000612aed84828501612881565b91505092915050565b612aff816127ab565b82525050565b6000602082019050612b1a6000830184612af6565b92915050565b612b29816126ba565b8114612b3457600080fd5b50565b600081359050612b4681612b20565b92915050565b60008060408385031215612b6357612b6261262b565b5b6000612b7185828601612881565b9250506020612b8285828601612b37565b9150509250929050565b600080fd5b7f4e487b7100000000000000000000000000000000000000000000000000000000600052604160045260246000fd5b612bc98261273f565b810181811067ffffffffffffffff82111715612be857612be7612b91565b5b80604052505050565b6000612bfb612621565b9050612c078282612bc0565b919050565b600067ffffffffffffffff821115612c2757612c26612b91565b5b612c308261273f565b9050602081019050919050565b82818337600083830152505050565b6000612c5f612c5a84612c0c565b612bf1565b905082815260208101848484011115612c7b57612c7a612b8c565b5b612c86848285612c3d565b509392505050565b600082601f830112612ca357612ca26128d6565b5b8135612cb3848260208601612c4c565b91505092915050565b60008060008060808587031215612cd657612cd561262b565b5b6000612ce487828801612881565b9450506020612cf587828801612881565b9350506040612d06878288016127cc565b925050606085013567ffffffffffffffff811115612d2757612d26612630565b5b612d3387828801612c8e565b91505092959194509250565b60008060408385031215612d5657612d5561262b565b5b6000612d64858286016127cc565b9250506020612d75858286016127cc565b9150509250929050565b60008060408385031215612d9657612d9561262b565b5b6000612da485828601612881565b9250506020612db585828601612881565b9150509250929050565b600080600060608486031215612dd857612dd761262b565b5b6000612de6868287016127cc565b9350506020612df786828701612881565b9250506040612e08868287016127cc565b9150509250925092565b7f4e487b7100000000000000000000000000000000000000000000000000000000600052602260045260246000fd5b60006002820490506001821680612e5957607f821691505b60208210811415612e6d57612e6c612e12565b5b50919050565b7f4552433732313a20617070726f76616c20746f2063757272656e74206f776e6560008201527f7200000000000000000000000000000000000000000000000000000000000000602082015250565b6000612ecf6021836126fb565b9150612eda82612e73565b604082019050919050565b60006020820190508181036000830152612efe81612ec2565b9050919050565b7f4552433732313a20617070726f76652063616c6c6572206973206e6f7420746f60008201527f6b656e206f776e6572206e6f7220617070726f76656420666f7220616c6c0000602082015250565b6000612f61603e836126fb565b9150612f6c82612f05565b604082019050919050565b60006020820190508181036000830152612f9081612f54565b9050919050565b600081905092915050565b6000612fae8385612f97565b9350612fbb838584612c3d565b82840190509392505050565b6000612fd4828486612fa2565b91508190509392505050565b6000819050919050565b612ffb612ff682612988565b612fe0565b82525050565b600061300d8285612fea565b60208201915061301d8284612fea565b6020820191508190509392505050565b7f4552433732313a2063616c6c6572206973206e6f7420746f6b656e206f776e6560008201527f72206e6f7220617070726f766564000000000000000000000000000000000000602082015250565b6000613089602e836126fb565b91506130948261302d565b604082019050919050565b600060208201905081810360008301526130b88161307c565b9050919050565b6000815190506130ce8161286a565b92915050565b6000602082840312156130ea576130e961262b565b5b60006130f8848285016130bf565b91505092915050565b60006060820190506131166000830186612992565b6131236020830185612992565b6131306040830184612840565b949350505050565b7f4552433732313a20696e76616c696420746f6b656e2049440000000000000000600082015250565b600061316e6018836126fb565b915061317982613138565b602082019050919050565b6000602082019050818103600083015261319d81613161565b9050919050565b7f4552433732313a2061646472657373207a65726f206973206e6f74206120766160008201527f6c6964206f776e65720000000000000000000000000000000000000000000000602082015250565b60006132006029836126fb565b915061320b826131a4565b604082019050919050565b6000602082019050818103600083015261322f816131f3565b9050919050565b7f4e487b7100000000000000000000000000000000000000000000000000000000600052601160045260246000fd5b6000613270826127ab565b915061327b836127ab565b92508282101561328e5761328d613236565b5b828203905092915050565b60006132a4826127ab565b91506132af836127ab565b9250827fffffffffffffffffffffffffffffffffffffffffffffffffffffffffffffffff038211156132e4576132e3613236565b5b828201905092915050565b600081905092915050565b6000613305826126f0565b61330f81856132ef565b935061331f81856020860161270c565b80840191505092915050565b600061333782856132fa565b915061334382846132fa565b91508190509392505050565b7f4f776e61626c653a206e6577206f776e657220697320746865207a65726f206160008201527f6464726573730000000000000000000000000000000000000000000000000000602082015250565b60006133ab6026836126fb565b91506133b68261334f565b604082019050919050565b600060208201905081810360008301526133da8161339e565b9050919050565b7f4552433732313a207472616e736665722066726f6d20696e636f72726563742060008201527f6f776e6572000000000000000000000000000000000000000000000000000000602082015250565b600061343d6025836126fb565b9150613448826133e1565b604082019050919050565b6000602082019050818103600083015261346c81613430565b9050919050565b7f4552433732313a207472616e7366657220746f20746865207a65726f2061646460008201527f7265737300000000000000000000000000000000000000000000000000000000602082015250565b60006134cf6024836126fb565b91506134da82613473565b604082019050919050565b600060208201905081810360008301526134fe816134c2565b9050919050565b7f4f776e61626c653a2063616c6c6572206973206e6f7420746865206f776e6572600082015250565b600061353b6020836126fb565b915061354682613505565b602082019050919050565b6000602082019050818103600083015261356a8161352e565b9050919050565b7f4552433732313a20617070726f766520746f2063616c6c657200000000000000600082015250565b60006135a76019836126fb565b91506135b282613571565b602082019050919050565b600060208201905081810360008301526135d68161359a565b9050919050565b7f4552433732313a207472616e7366657220746f206e6f6e20455243373231526560008201527f63656976657220696d706c656d656e7465720000000000000000000000000000602082015250565b60006136396032836126fb565b9150613644826135dd565b604082019050919050565b600060208201905081810360008301526136688161362c565b9050919050565b600061367a826127ab565b91507fffffffffffffffffffffffffffffffffffffffffffffffffffffffffffffffff8214156136ad576136ac613236565b5b600182019050919050565b7f4e487b7100000000000000000000000000000000000000000000000000000000600052601260045260246000fd5b60006136f2826127ab565b91506136fd836127ab565b92508261370d5761370c6136b8565b5b828204905092915050565b6000613723826127ab565b915061372e836127ab565b92508261373e5761373d6136b8565b5b828206905092915050565b7f4e487b7100000000000000000000000000000000000000000000000000000000600052603260045260246000fd5b600060808201905061378d6000830187612992565b61379a6020830186612992565b6137a76040830185612840565b6137b46060830184612840565b95945050505050565b600081519050919050565b600082825260208201905092915050565b60006137e4826137bd565b6137ee81856137c8565b93506137fe81856020860161270c565b6138078161273f565b840191505092915050565b60006080820190506138276000830187612840565b6138346020830186612840565b6138416040830185612af6565b818103606083015261385381846137d9565b905095945050505050565b60008151905061386d81612661565b92915050565b6000602082840312156138895761388861262b565b5b60006138978482850161385e565b91505092915050565b7f4552433732313a206d696e7420746f20746865207a65726f2061646472657373600082015250565b60006138d66020836126fb565b91506138e1826138a0565b602082019050919050565b60006020820190508181036000830152613905816138c9565b9050919050565b7f4552433732313a20746f6b656e20616c7265616479206d696e74656400000000600082015250565b6000613942601c836126fb565b915061394d8261390c565b602082019050919050565b6000602082019050818103600083015261397181613935565b905091905056fea2646970667358221220d0c41965faebd9db6026ac5dbf8cf3450fe45b3887aa42797e9e5196ad6c634164736f6c63430008090033",
  "linkReferences": {},
  "deployedLinkReferences": {}
}