{
  "_format": "hh-sol-artifact-1",
  "contractName": "Resolver",
  "sourceName": "contracts/eth-registry/Resolver.sol",
  "abi": [
    {
      "inputs": [
        {
          "internalType": "contract NodeController",
          "name": "_nodecontroller",
          "type": "address"
        }
      ],
      "stateMutability": "nonpayable",
      "type": "constructor"
    },
    {
      "anonymous": false,
      "inputs": [
        {
          "indexed": true,
          "internalType": "bytes32",
          "name": "node",
          "type": "bytes32"
        },
        {
          "indexed": false,
          "internalType": "bytes",
          "name": "hash",
          "type": "bytes"
        }
      ],
      "name": "ContenthashChanged",
      "type": "event"
    },
    {
      "anonymous": false,
      "inputs": [
        {
          "indexed": true,
          "internalType": "address",
          "name": "previousOwner",
          "type": "address"
        },
        {
          "indexed": true,
          "internalType": "address",
          "name": "newOwner",
          "type": "address"
        }
      ],
      "name": "OwnershipTransferred",
      "type": "event"
    },
    {
      "anonymous": false,
      "inputs": [
        {
          "indexed": true,
          "internalType": "bytes32",
          "name": "node",
          "type": "bytes32"
        },
        {
          "indexed": true,
          "internalType": "string",
          "name": "indexedKey",
          "type": "string"
        },
        {
          "indexed": false,
          "internalType": "string",
          "name": "key",
          "type": "string"
        },
        {
          "indexed": false,
          "internalType": "string",
          "name": "value",
          "type": "string"
        }
      ],
      "name": "TextChanged",
      "type": "event"
    },
    {
      "inputs": [
        {
          "internalType": "bytes32",
          "name": "node",
          "type": "bytes32"
        },
        {
          "internalType": "uint256",
          "name": "coinType",
          "type": "uint256"
        }
      ],
      "name": "_addr",
      "outputs": [
        {
          "internalType": "bytes",
          "name": "",
          "type": "bytes"
        }
      ],
      "stateMutability": "view",
      "type": "function"
    },
    {
      "inputs": [
        {
          "internalType": "bytes32",
          "name": "node",
          "type": "bytes32"
        },
        {
          "internalType": "uint256",
          "name": "coinType",
          "type": "uint256"
        },
        {
          "internalType": "bytes",
          "name": "a",
          "type": "bytes"
        }
      ],
      "name": "_setAddr",
      "outputs": [],
      "stateMutability": "nonpayable",
      "type": "function"
    },
    {
      "inputs": [
        {
          "internalType": "bytes32",
          "name": "node",
          "type": "bytes32"
        }
      ],
      "name": "addr",
      "outputs": [
        {
          "internalType": "address payable",
          "name": "",
          "type": "address"
        }
      ],
      "stateMutability": "view",
      "type": "function"
    },
    {
      "inputs": [
        {
          "internalType": "bytes32",
          "name": "node",
          "type": "bytes32"
        }
      ],
      "name": "contenthash",
      "outputs": [
        {
          "internalType": "bytes",
          "name": "",
          "type": "bytes"
        }
      ],
      "stateMutability": "view",
      "type": "function"
    },
    {
      "inputs": [],
      "name": "nodecontroller",
      "outputs": [
        {
          "internalType": "contract NodeController",
          "name": "",
          "type": "address"
        }
      ],
      "stateMutability": "view",
      "type": "function"
    },
    {
      "inputs": [],
      "name": "owner",
      "outputs": [
        {
          "internalType": "address",
          "name": "",
          "type": "address"
        }
      ],
      "stateMutability": "view",
      "type": "function"
    },
    {
      "inputs": [
        {
          "internalType": "bytes32",
          "name": "",
          "type": "bytes32"
        }
      ],
      "name": "recordVersions",
      "outputs": [
        {
          "internalType": "uint64",
          "name": "",
          "type": "uint64"
        }
      ],
      "stateMutability": "view",
      "type": "function"
    },
    {
      "inputs": [],
      "name": "renounceOwnership",
      "outputs": [],
      "stateMutability": "nonpayable",
      "type": "function"
    },
    {
      "inputs": [
        {
          "internalType": "bytes32",
          "name": "node",
          "type": "bytes32"
        },
        {
          "internalType": "address",
          "name": "a",
          "type": "address"
        }
      ],
      "name": "setAddr",
      "outputs": [],
      "stateMutability": "nonpayable",
      "type": "function"
    },
    {
      "inputs": [
        {
          "internalType": "bytes32",
          "name": "node",
          "type": "bytes32"
        },
        {
          "internalType": "bytes",
          "name": "hash",
          "type": "bytes"
        }
      ],
      "name": "setContenthash",
      "outputs": [],
      "stateMutability": "nonpayable",
      "type": "function"
    },
    {
      "inputs": [
        {
          "internalType": "bytes32",
          "name": "node",
          "type": "bytes32"
        },
        {
          "internalType": "string",
          "name": "newName",
          "type": "string"
        }
      ],
      "name": "setName",
      "outputs": [],
      "stateMutability": "nonpayable",
      "type": "function"
    },
    {
      "inputs": [
        {
          "internalType": "bytes32",
          "name": "node",
          "type": "bytes32"
        },
        {
          "internalType": "string",
          "name": "key",
          "type": "string"
        },
        {
          "internalType": "string",
          "name": "value",
          "type": "string"
        }
      ],
      "name": "setText",
      "outputs": [],
      "stateMutability": "nonpayable",
      "type": "function"
    },
    {
      "inputs": [
        {
          "internalType": "bytes32",
          "name": "node",
          "type": "bytes32"
        },
        {
          "internalType": "string",
          "name": "key",
          "type": "string"
        }
      ],
      "name": "text",
      "outputs": [
        {
          "internalType": "string",
          "name": "",
          "type": "string"
        }
      ],
      "stateMutability": "view",
      "type": "function"
    },
    {
      "inputs": [
        {
          "internalType": "address",
          "name": "newOwner",
          "type": "address"
        }
      ],
      "name": "transferOwnership",
      "outputs": [],
      "stateMutability": "nonpayable",
      "type": "function"
    }
  ],
  "bytecode": "0x60a06040523480156200001157600080fd5b5060405162002364380380620023648339818101604052810190620000379190620001dc565b620000576200004b6200009260201b60201c565b6200009a60201b60201c565b8073ffffffffffffffffffffffffffffffffffffffff1660808173ffffffffffffffffffffffffffffffffffffffff1681525050506200020e565b600033905090565b60008060009054906101000a900473ffffffffffffffffffffffffffffffffffffffff169050816000806101000a81548173ffffffffffffffffffffffffffffffffffffffff021916908373ffffffffffffffffffffffffffffffffffffffff1602179055508173ffffffffffffffffffffffffffffffffffffffff168173ffffffffffffffffffffffffffffffffffffffff167f8be0079c531659141344cd1fd0a4f28419497f9722a3daafe3b4186f6b6457e060405160405180910390a35050565b600080fd5b600073ffffffffffffffffffffffffffffffffffffffff82169050919050565b6000620001908262000163565b9050919050565b6000620001a48262000183565b9050919050565b620001b68162000197565b8114620001c257600080fd5b50565b600081519050620001d681620001ab565b92915050565b600060208284031215620001f557620001f46200015e565b5b60006200020584828501620001c5565b91505092915050565b6080516120f462000270600039600081816102d2015281816103b20152818161060d015281816106ed015281816108550152818161093501528181610a9e01528181610bea01528181610cca01528181610f120152610ff201526120f46000f3fe608060405234801561001057600080fd5b50600436106100ea5760003560e01c8063715018a61161008c578063bc1c58d111610066578063bc1c58d114610235578063d5fa2b0014610265578063d700ff3314610281578063f2fde38b146102b1576100ea565b8063715018a6146101f157806377372213146101fb5780638da5cb5b14610217576100ea565b8063330d591f116100c8578063330d591f146101575780633b3b57de146101735780634d6993eb146101a357806359d1d43c146101c1576100ea565b806310f13a8c146100ef5780632bf110311461010b578063304e6ade1461013b575b600080fd5b6101096004803603810190610104919061165b565b6102cd565b005b61012560048036038101906101209190611726565b610551565b60405161013291906117ff565b60405180910390f35b61015560048036038101906101509190611877565b610608565b005b610171600480360381019061016c9190611a07565b610850565b005b61018d60048036038101906101889190611a76565b610a66565b60405161019a9190611ae4565b60405180910390f35b6101ab610a9c565b6040516101b89190611b5e565b60405180910390f35b6101db60048036038101906101d69190611b79565b610ac0565b6040516101e89190611c2e565b60405180910390f35b6101f9610bd1565b005b61021560048036038101906102109190611b79565b610be5565b005b61021f610df3565b60405161022c9190611c71565b60405180910390f35b61024f600480360381019061024a9190611a76565b610e1c565b60405161025c91906117ff565b60405180910390f35b61027f600480360381019061027a9190611cb8565b610f0d565b005b61029b60048036038101906102969190611a76565b6110bf565b6040516102a89190611d1b565b60405180910390f35b6102cb60048036038101906102c69190611d36565b6110e6565b005b8460007f000000000000000000000000000000000000000000000000000000000000000073ffffffffffffffffffffffffffffffffffffffff16638d2d22c0836040518263ffffffff1660e01b81526004016103299190611d72565b60206040518083038186803b15801561034157600080fd5b505afa158015610355573d6000803e3d6000fd5b505050506040513d601f19601f820116820180604052508101906103799190611da2565b90503373ffffffffffffffffffffffffffffffffffffffff168173ffffffffffffffffffffffffffffffffffffffff16148061045c57507f000000000000000000000000000000000000000000000000000000000000000073ffffffffffffffffffffffffffffffffffffffff1663e985e9c582336040518363ffffffff1660e01b815260040161040b929190611dcf565b60206040518083038186803b15801561042357600080fd5b505afa158015610437573d6000803e3d6000fd5b505050506040513d601f19601f8201168201806040525081019061045b9190611e30565b5b61046557600080fd5b838360046000600160008c815260200190815260200160002060009054906101000a900467ffffffffffffffff1667ffffffffffffffff1667ffffffffffffffff16815260200190815260200160002060008a815260200190815260200160002088886040516104d6929190611e8d565b908152602001604051809103902091906104f19291906113fd565b508585604051610502929190611e8d565b6040518091039020877f448bc014f1536726cf8d54ff3d6481ed3cbc683c2591ca204274009afa09b1a1888888886040516105409493929190611ed3565b60405180910390a350505050505050565b6060600260008481526020019081526020016000206000838152602001908152602001600020805461058290611f3d565b80601f01602080910402602001604051908101604052809291908181526020018280546105ae90611f3d565b80156105fb5780601f106105d0576101008083540402835291602001916105fb565b820191906000526020600020905b8154815290600101906020018083116105de57829003601f168201915b5050505050905092915050565b8260007f000000000000000000000000000000000000000000000000000000000000000073ffffffffffffffffffffffffffffffffffffffff16638d2d22c0836040518263ffffffff1660e01b81526004016106649190611d72565b60206040518083038186803b15801561067c57600080fd5b505afa158015610690573d6000803e3d6000fd5b505050506040513d601f19601f820116820180604052508101906106b49190611da2565b90503373ffffffffffffffffffffffffffffffffffffffff168173ffffffffffffffffffffffffffffffffffffffff16148061079757507f000000000000000000000000000000000000000000000000000000000000000073ffffffffffffffffffffffffffffffffffffffff1663e985e9c582336040518363ffffffff1660e01b8152600401610746929190611dcf565b60206040518083038186803b15801561075e57600080fd5b505afa158015610772573d6000803e3d6000fd5b505050506040513d601f19601f820116820180604052508101906107969190611e30565b5b6107a057600080fd5b838360036000600160008a815260200190815260200160002060009054906101000a900467ffffffffffffffff1667ffffffffffffffff1667ffffffffffffffff1681526020019081526020016000206000888152602001908152602001600020919061080e929190611483565b50847fe379c1624ed7e714cc0937528a32359d69d5281337765313dba4e081b72d75788585604051610841929190611f9c565b60405180910390a25050505050565b8260007f000000000000000000000000000000000000000000000000000000000000000073ffffffffffffffffffffffffffffffffffffffff16638d2d22c0836040518263ffffffff1660e01b81526004016108ac9190611d72565b60206040518083038186803b1580156108c457600080fd5b505afa1580156108d8573d6000803e3d6000fd5b505050506040513d601f19601f820116820180604052508101906108fc9190611da2565b90503373ffffffffffffffffffffffffffffffffffffffff168173ffffffffffffffffffffffffffffffffffffffff1614806109df57507f000000000000000000000000000000000000000000000000000000000000000073ffffffffffffffffffffffffffffffffffffffff1663e985e9c582336040518363ffffffff1660e01b815260040161098e929190611dcf565b60206040518083038186803b1580156109a657600080fd5b505afa1580156109ba573d6000803e3d6000fd5b505050506040513d601f19601f820116820180604052508101906109de9190611e30565b5b6109e857600080fd5b826002600087815260200190815260200160002060008681526020019081526020016000209080519060200190610a20929190611509565b50610a5f6040518060400160405280600481526020017f646464640000000000000000000000000000000000000000000000000000000081525061116a565b5050505050565b600080610a7483603c610551565b9050600081511415610a8a576000915050610a97565b610a9381611203565b9150505b919050565b7f000000000000000000000000000000000000000000000000000000000000000081565b6060600460006001600087815260200190815260200160002060009054906101000a900467ffffffffffffffff1667ffffffffffffffff1667ffffffffffffffff16815260200190815260200160002060008581526020019081526020016000208383604051610b31929190611e8d565b90815260200160405180910390208054610b4a90611f3d565b80601f0160208091040260200160405190810160405280929190818152602001828054610b7690611f3d565b8015610bc35780601f10610b9857610100808354040283529160200191610bc3565b820191906000526020600020905b815481529060010190602001808311610ba657829003601f168201915b505050505090509392505050565b610bd9611226565b610be360006112a4565b565b8260007f000000000000000000000000000000000000000000000000000000000000000073ffffffffffffffffffffffffffffffffffffffff16638d2d22c0836040518263ffffffff1660e01b8152600401610c419190611d72565b60206040518083038186803b158015610c5957600080fd5b505afa158015610c6d573d6000803e3d6000fd5b505050506040513d601f19601f82011682018060405250810190610c919190611da2565b90503373ffffffffffffffffffffffffffffffffffffffff168173ffffffffffffffffffffffffffffffffffffffff161480610d7457507f000000000000000000000000000000000000000000000000000000000000000073ffffffffffffffffffffffffffffffffffffffff1663e985e9c582336040518363ffffffff1660e01b8152600401610d23929190611dcf565b60206040518083038186803b158015610d3b57600080fd5b505afa158015610d4f573d6000803e3d6000fd5b505050506040513d601f19601f82011682018060405250810190610d739190611e30565b5b610d7d57600080fd5b838360056000600160008a815260200190815260200160002060009054906101000a900467ffffffffffffffff1667ffffffffffffffff1667ffffffffffffffff16815260200190815260200160002060008881526020019081526020016000209190610deb9291906113fd565b505050505050565b60008060009054906101000a900473ffffffffffffffffffffffffffffffffffffffff16905090565b6060600360006001600085815260200190815260200160002060009054906101000a900467ffffffffffffffff1667ffffffffffffffff1667ffffffffffffffff16815260200190815260200160002060008381526020019081526020016000208054610e8890611f3d565b80601f0160208091040260200160405190810160405280929190818152602001828054610eb490611f3d565b8015610f015780601f10610ed657610100808354040283529160200191610f01565b820191906000526020600020905b815481529060010190602001808311610ee457829003601f168201915b50505050509050919050565b8160007f000000000000000000000000000000000000000000000000000000000000000073ffffffffffffffffffffffffffffffffffffffff16638d2d22c0836040518263ffffffff1660e01b8152600401610f699190611d72565b60206040518083038186803b158015610f8157600080fd5b505afa158015610f95573d6000803e3d6000fd5b505050506040513d601f19601f82011682018060405250810190610fb99190611da2565b90503373ffffffffffffffffffffffffffffffffffffffff168173ffffffffffffffffffffffffffffffffffffffff16148061109c57507f000000000000000000000000000000000000000000000000000000000000000073ffffffffffffffffffffffffffffffffffffffff1663e985e9c582336040518363ffffffff1660e01b815260040161104b929190611dcf565b60206040518083038186803b15801561106357600080fd5b505afa158015611077573d6000803e3d6000fd5b505050506040513d601f19601f8201168201806040525081019061109b9190611e30565b5b6110a557600080fd5b6110b984603c6110b486611368565b610850565b50505050565b60016020528060005260406000206000915054906101000a900467ffffffffffffffff1681565b6110ee611226565b600073ffffffffffffffffffffffffffffffffffffffff168173ffffffffffffffffffffffffffffffffffffffff16141561115e576040517f08c379a000000000000000000000000000000000000000000000000000000000815260040161115590612032565b60405180910390fd5b611167816112a4565b50565b6112008160405160240161117e9190611c2e565b6040516020818303038152906040527f41304fac000000000000000000000000000000000000000000000000000000007bffffffffffffffffffffffffffffffffffffffffffffffffffffffff19166020820180517bffffffffffffffffffffffffffffffffffffffffffffffffffffffff83818316178352505050506113cc565b50565b6000601482511461121357600080fd5b600c6101000a6020830151049050919050565b61122e6113f5565b73ffffffffffffffffffffffffffffffffffffffff1661124c610df3565b73ffffffffffffffffffffffffffffffffffffffff16146112a2576040517f08c379a00000000000000000000000000000000000000000000000000000000081526004016112999061209e565b60405180910390fd5b565b60008060009054906101000a900473ffffffffffffffffffffffffffffffffffffffff169050816000806101000a81548173ffffffffffffffffffffffffffffffffffffffff021916908373ffffffffffffffffffffffffffffffffffffffff1602179055508173ffffffffffffffffffffffffffffffffffffffff168173ffffffffffffffffffffffffffffffffffffffff167f8be0079c531659141344cd1fd0a4f28419497f9722a3daafe3b4186f6b6457e060405160405180910390a35050565b6060601467ffffffffffffffff811115611385576113846118dc565b5b6040519080825280601f01601f1916602001820160405280156113b75781602001600182028036833780820191505090505b509050600c6101000a82026020820152919050565b60008151905060006a636f6e736f6c652e6c6f679050602083016000808483855afa5050505050565b600033905090565b82805461140990611f3d565b90600052602060002090601f01602090048101928261142b5760008555611472565b82601f1061144457803560ff1916838001178555611472565b82800160010185558215611472579182015b82811115611471578235825591602001919060010190611456565b5b50905061147f919061158f565b5090565b82805461148f90611f3d565b90600052602060002090601f0160209004810192826114b157600085556114f8565b82601f106114ca57803560ff19168380011785556114f8565b828001600101855582156114f8579182015b828111156114f75782358255916020019190600101906114dc565b5b509050611505919061158f565b5090565b82805461151590611f3d565b90600052602060002090601f016020900481019282611537576000855561157e565b82601f1061155057805160ff191683800117855561157e565b8280016001018555821561157e579182015b8281111561157d578251825591602001919060010190611562565b5b50905061158b919061158f565b5090565b5b808211156115a8576000816000905550600101611590565b5090565b6000604051905090565b600080fd5b600080fd5b6000819050919050565b6115d3816115c0565b81146115de57600080fd5b50565b6000813590506115f0816115ca565b92915050565b600080fd5b600080fd5b600080fd5b60008083601f84011261161b5761161a6115f6565b5b8235905067ffffffffffffffff811115611638576116376115fb565b5b60208301915083600182028301111561165457611653611600565b5b9250929050565b600080600080600060608688031215611677576116766115b6565b5b6000611685888289016115e1565b955050602086013567ffffffffffffffff8111156116a6576116a56115bb565b5b6116b288828901611605565b9450945050604086013567ffffffffffffffff8111156116d5576116d46115bb565b5b6116e188828901611605565b92509250509295509295909350565b6000819050919050565b611703816116f0565b811461170e57600080fd5b50565b600081359050611720816116fa565b92915050565b6000806040838503121561173d5761173c6115b6565b5b600061174b858286016115e1565b925050602061175c85828601611711565b9150509250929050565b600081519050919050565b600082825260208201905092915050565b60005b838110156117a0578082015181840152602081019050611785565b838111156117af576000848401525b50505050565b6000601f19601f8301169050919050565b60006117d182611766565b6117db8185611771565b93506117eb818560208601611782565b6117f4816117b5565b840191505092915050565b6000602082019050818103600083015261181981846117c6565b905092915050565b60008083601f840112611837576118366115f6565b5b8235905067ffffffffffffffff811115611854576118536115fb565b5b6020830191508360018202830111156118705761186f611600565b5b9250929050565b6000806000604084860312156118905761188f6115b6565b5b600061189e868287016115e1565b935050602084013567ffffffffffffffff8111156118bf576118be6115bb565b5b6118cb86828701611821565b92509250509250925092565b600080fd5b7f4e487b7100000000000000000000000000000000000000000000000000000000600052604160045260246000fd5b611914826117b5565b810181811067ffffffffffffffff82111715611933576119326118dc565b5b80604052505050565b60006119466115ac565b9050611952828261190b565b919050565b600067ffffffffffffffff821115611972576119716118dc565b5b61197b826117b5565b9050602081019050919050565b82818337600083830152505050565b60006119aa6119a584611957565b61193c565b9050828152602081018484840111156119c6576119c56118d7565b5b6119d1848285611988565b509392505050565b600082601f8301126119ee576119ed6115f6565b5b81356119fe848260208601611997565b91505092915050565b600080600060608486031215611a2057611a1f6115b6565b5b6000611a2e868287016115e1565b9350506020611a3f86828701611711565b925050604084013567ffffffffffffffff811115611a6057611a5f6115bb565b5b611a6c868287016119d9565b9150509250925092565b600060208284031215611a8c57611a8b6115b6565b5b6000611a9a848285016115e1565b91505092915050565b600073ffffffffffffffffffffffffffffffffffffffff82169050919050565b6000611ace82611aa3565b9050919050565b611ade81611ac3565b82525050565b6000602082019050611af96000830184611ad5565b92915050565b6000819050919050565b6000611b24611b1f611b1a84611aa3565b611aff565b611aa3565b9050919050565b6000611b3682611b09565b9050919050565b6000611b4882611b2b565b9050919050565b611b5881611b3d565b82525050565b6000602082019050611b736000830184611b4f565b92915050565b600080600060408486031215611b9257611b916115b6565b5b6000611ba0868287016115e1565b935050602084013567ffffffffffffffff811115611bc157611bc06115bb565b5b611bcd86828701611605565b92509250509250925092565b600081519050919050565b600082825260208201905092915050565b6000611c0082611bd9565b611c0a8185611be4565b9350611c1a818560208601611782565b611c23816117b5565b840191505092915050565b60006020820190508181036000830152611c488184611bf5565b905092915050565b6000611c5b82611aa3565b9050919050565b611c6b81611c50565b82525050565b6000602082019050611c866000830184611c62565b92915050565b611c9581611c50565b8114611ca057600080fd5b50565b600081359050611cb281611c8c565b92915050565b60008060408385031215611ccf57611cce6115b6565b5b6000611cdd858286016115e1565b9250506020611cee85828601611ca3565b9150509250929050565b600067ffffffffffffffff82169050919050565b611d1581611cf8565b82525050565b6000602082019050611d306000830184611d0c565b92915050565b600060208284031215611d4c57611d4b6115b6565b5b6000611d5a84828501611ca3565b91505092915050565b611d6c816115c0565b82525050565b6000602082019050611d876000830184611d63565b92915050565b600081519050611d9c81611c8c565b92915050565b600060208284031215611db857611db76115b6565b5b6000611dc684828501611d8d565b91505092915050565b6000604082019050611de46000830185611c62565b611df16020830184611c62565b9392505050565b60008115159050919050565b611e0d81611df8565b8114611e1857600080fd5b50565b600081519050611e2a81611e04565b92915050565b600060208284031215611e4657611e456115b6565b5b6000611e5484828501611e1b565b91505092915050565b600081905092915050565b6000611e748385611e5d565b9350611e81838584611988565b82840190509392505050565b6000611e9a828486611e68565b91508190509392505050565b6000611eb28385611be4565b9350611ebf838584611988565b611ec8836117b5565b840190509392505050565b60006040820190508181036000830152611eee818688611ea6565b90508181036020830152611f03818486611ea6565b905095945050505050565b7f4e487b7100000000000000000000000000000000000000000000000000000000600052602260045260246000fd5b60006002820490506001821680611f5557607f821691505b60208210811415611f6957611f68611f0e565b5b50919050565b6000611f7b8385611771565b9350611f88838584611988565b611f91836117b5565b840190509392505050565b60006020820190508181036000830152611fb7818486611f6f565b90509392505050565b7f4f776e61626c653a206e6577206f776e657220697320746865207a65726f206160008201527f6464726573730000000000000000000000000000000000000000000000000000602082015250565b600061201c602683611be4565b915061202782611fc0565b604082019050919050565b6000602082019050818103600083015261204b8161200f565b9050919050565b7f4f776e61626c653a2063616c6c6572206973206e6f7420746865206f776e6572600082015250565b6000612088602083611be4565b915061209382612052565b602082019050919050565b600060208201905081810360008301526120b78161207b565b905091905056fea2646970667358221220a00d66823db3a11e53f25d4f2ffae825f02e3fd50092ee689ae3084325c202fd64736f6c63430008090033",
  "linkReferences": {},
  "deployedLinkReferences": {}
}