{
  "_format": "hh-sol-artifact-1",
  "contractName": "AdminInEth_Gen",
  "sourceName": "contracts/endpoint/AdminInEth_Gen.sol",
  "abi": [
    {
      "inputs": [
        {
          "internalType": "address",
          "name": "_endpoint",
          "type": "address"
        }
      ],
      "stateMutability": "nonpayable",
      "type": "constructor"
    },
    {
      "anonymous": false,
      "inputs": [
        {
          "indexed": true,
          "internalType": "address",
          "name": "owner",
          "type": "address"
        },
        {
          "indexed": true,
          "internalType": "address",
          "name": "approved",
          "type": "address"
        },
        {
          "indexed": true,
          "internalType": "uint256",
          "name": "tokenId",
          "type": "uint256"
        }
      ],
      "name": "Approval",
      "type": "event"
    },
    {
      "anonymous": false,
      "inputs": [
        {
          "indexed": true,
          "internalType": "address",
          "name": "owner",
          "type": "address"
        },
        {
          "indexed": true,
          "internalType": "address",
          "name": "operator",
          "type": "address"
        },
        {
          "indexed": false,
          "internalType": "bool",
          "name": "approved",
          "type": "bool"
        }
      ],
      "name": "ApprovalForAll",
      "type": "event"
    },
    {
      "anonymous": false,
      "inputs": [
        {
          "indexed": false,
          "internalType": "uint16",
          "name": "_srcChainId",
          "type": "uint16"
        },
        {
          "indexed": false,
          "internalType": "bytes",
          "name": "_srcAddress",
          "type": "bytes"
        },
        {
          "indexed": false,
          "internalType": "uint64",
          "name": "_nonce",
          "type": "uint64"
        },
        {
          "indexed": false,
          "internalType": "bytes",
          "name": "_payload",
          "type": "bytes"
        }
      ],
      "name": "MessageFailed",
      "type": "event"
    },
    {
      "anonymous": false,
      "inputs": [
        {
          "indexed": true,
          "internalType": "address",
          "name": "previousOwner",
          "type": "address"
        },
        {
          "indexed": true,
          "internalType": "address",
          "name": "newOwner",
          "type": "address"
        }
      ],
      "name": "OwnershipTransferred",
      "type": "event"
    },
    {
      "anonymous": false,
      "inputs": [
        {
          "indexed": false,
          "internalType": "uint16",
          "name": "_srcChainId",
          "type": "uint16"
        },
        {
          "indexed": false,
          "internalType": "address",
          "name": "_from",
          "type": "address"
        },
        {
          "indexed": false,
          "internalType": "bytes",
          "name": "_payload",
          "type": "bytes"
        }
      ],
      "name": "ReceiveMsg",
      "type": "event"
    },
    {
      "anonymous": false,
      "inputs": [
        {
          "indexed": true,
          "internalType": "address",
          "name": "from",
          "type": "address"
        },
        {
          "indexed": true,
          "internalType": "address",
          "name": "to",
          "type": "address"
        },
        {
          "indexed": true,
          "internalType": "uint256",
          "name": "tokenId",
          "type": "uint256"
        }
      ],
      "name": "Transfer",
      "type": "event"
    },
    {
      "inputs": [
        {
          "internalType": "address",
          "name": "to",
          "type": "address"
        },
        {
          "internalType": "uint256",
          "name": "tokenId",
          "type": "uint256"
        }
      ],
      "name": "approve",
      "outputs": [],
      "stateMutability": "nonpayable",
      "type": "function"
    },
    {
      "inputs": [
        {
          "internalType": "address",
          "name": "owner",
          "type": "address"
        }
      ],
      "name": "balanceOf",
      "outputs": [
        {
          "internalType": "uint256",
          "name": "",
          "type": "uint256"
        }
      ],
      "stateMutability": "view",
      "type": "function"
    },
    {
      "inputs": [
        {
          "internalType": "bool",
          "name": "_o",
          "type": "bool"
        }
      ],
      "name": "change",
      "outputs": [
        {
          "internalType": "bool",
          "name": "",
          "type": "bool"
        }
      ],
      "stateMutability": "nonpayable",
      "type": "function"
    },
    {
      "inputs": [],
      "name": "check",
      "outputs": [
        {
          "internalType": "bool",
          "name": "",
          "type": "bool"
        }
      ],
      "stateMutability": "view",
      "type": "function"
    },
    {
      "inputs": [
        {
          "internalType": "string",
          "name": "name",
          "type": "string"
        }
      ],
      "name": "checkLabel",
      "outputs": [
        {
          "internalType": "uint256",
          "name": "label",
          "type": "uint256"
        }
      ],
      "stateMutability": "pure",
      "type": "function"
    },
    {
      "inputs": [],
      "name": "check_message",
      "outputs": [
        {
          "internalType": "uint256",
          "name": "",
          "type": "uint256"
        },
        {
          "internalType": "uint256",
          "name": "",
          "type": "uint256"
        }
      ],
      "stateMutability": "view",
      "type": "function"
    },
    {
      "inputs": [],
      "name": "checkdepositAddress",
      "outputs": [
        {
          "internalType": "address",
          "name": "",
          "type": "address"
        }
      ],
      "stateMutability": "view",
      "type": "function"
    },
    {
      "inputs": [
        {
          "internalType": "uint16",
          "name": "_dstChainId",
          "type": "uint16"
        },
        {
          "internalType": "uint256",
          "name": "tokenId",
          "type": "uint256"
        }
      ],
      "name": "checkfee",
      "outputs": [
        {
          "internalType": "uint256",
          "name": "",
          "type": "uint256"
        }
      ],
      "stateMutability": "view",
      "type": "function"
    },
    {
      "inputs": [
        {
          "internalType": "uint16",
          "name": "_dstChainId",
          "type": "uint16"
        },
        {
          "internalType": "bytes",
          "name": "_destination",
          "type": "bytes"
        },
        {
          "internalType": "uint256",
          "name": "tokenId",
          "type": "uint256"
        }
      ],
      "name": "crossChain",
      "outputs": [],
      "stateMutability": "payable",
      "type": "function"
    },
    {
      "inputs": [],
      "name": "endpoint",
      "outputs": [
        {
          "internalType": "contract ILayerZeroEndpoint",
          "name": "",
          "type": "address"
        }
      ],
      "stateMutability": "view",
      "type": "function"
    },
    {
      "inputs": [
        {
          "internalType": "uint16",
          "name": "_dstChainId",
          "type": "uint16"
        },
        {
          "internalType": "address",
          "name": "_userApplication",
          "type": "address"
        },
        {
          "internalType": "bytes",
          "name": "_payload",
          "type": "bytes"
        },
        {
          "internalType": "bool",
          "name": "_payInZRO",
          "type": "bool"
        },
        {
          "internalType": "bytes",
          "name": "_adapterParams",
          "type": "bytes"
        }
      ],
      "name": "estimateFees",
      "outputs": [
        {
          "internalType": "uint256",
          "name": "nativeFee",
          "type": "uint256"
        },
        {
          "internalType": "uint256",
          "name": "zroFee",
          "type": "uint256"
        }
      ],
      "stateMutability": "view",
      "type": "function"
    },
    {
      "inputs": [
        {
          "internalType": "uint16",
          "name": "",
          "type": "uint16"
        },
        {
          "internalType": "bytes",
          "name": "",
          "type": "bytes"
        },
        {
          "internalType": "uint256",
          "name": "",
          "type": "uint256"
        }
      ],
      "name": "failedMessages",
      "outputs": [
        {
          "internalType": "uint256",
          "name": "payloadLength",
          "type": "uint256"
        },
        {
          "internalType": "bytes32",
          "name": "payloadHash",
          "type": "bytes32"
        }
      ],
      "stateMutability": "view",
      "type": "function"
    },
    {
      "inputs": [
        {
          "internalType": "uint256",
          "name": "tokenId",
          "type": "uint256"
        }
      ],
      "name": "getApproved",
      "outputs": [
        {
          "internalType": "address",
          "name": "",
          "type": "address"
        }
      ],
      "stateMutability": "view",
      "type": "function"
    },
    {
      "inputs": [
        {
          "internalType": "address",
          "name": "owner",
          "type": "address"
        },
        {
          "internalType": "address",
          "name": "operator",
          "type": "address"
        }
      ],
      "name": "isApprovedForAll",
      "outputs": [
        {
          "internalType": "bool",
          "name": "",
          "type": "bool"
        }
      ],
      "stateMutability": "view",
      "type": "function"
    },
    {
      "inputs": [
        {
          "internalType": "uint16",
          "name": "_srcChainId",
          "type": "uint16"
        },
        {
          "internalType": "bytes",
          "name": "_srcAddress",
          "type": "bytes"
        },
        {
          "internalType": "uint64",
          "name": "_nonce",
          "type": "uint64"
        },
        {
          "internalType": "bytes",
          "name": "_payload",
          "type": "bytes"
        }
      ],
      "name": "lzReceive",
      "outputs": [],
      "stateMutability": "nonpayable",
      "type": "function"
    },
    {
      "inputs": [],
      "name": "name",
      "outputs": [
        {
          "internalType": "string",
          "name": "",
          "type": "string"
        }
      ],
      "stateMutability": "view",
      "type": "function"
    },
    {
      "inputs": [],
      "name": "o",
      "outputs": [
        {
          "internalType": "bool",
          "name": "",
          "type": "bool"
        }
      ],
      "stateMutability": "view",
      "type": "function"
    },
    {
      "inputs": [
        {
          "internalType": "uint16",
          "name": "_srcChainId",
          "type": "uint16"
        },
        {
          "internalType": "bytes",
          "name": "_srcAddress",
          "type": "bytes"
        },
        {
          "internalType": "uint64",
          "name": "_nonce",
          "type": "uint64"
        },
        {
          "internalType": "bytes",
          "name": "_payload",
          "type": "bytes"
        }
      ],
      "name": "onLzReceive",
      "outputs": [],
      "stateMutability": "nonpayable",
      "type": "function"
    },
    {
      "inputs": [],
      "name": "owner",
      "outputs": [
        {
          "internalType": "address",
          "name": "",
          "type": "address"
        }
      ],
      "stateMutability": "view",
      "type": "function"
    },
    {
      "inputs": [
        {
          "internalType": "uint256",
          "name": "tokenId",
          "type": "uint256"
        }
      ],
      "name": "ownerOf",
      "outputs": [
        {
          "internalType": "address",
          "name": "",
          "type": "address"
        }
      ],
      "stateMutability": "view",
      "type": "function"
    },
    {
      "inputs": [],
      "name": "renounceOwnership",
      "outputs": [],
      "stateMutability": "nonpayable",
      "type": "function"
    },
    {
      "inputs": [
        {
          "internalType": "uint16",
          "name": "_srcChainId",
          "type": "uint16"
        },
        {
          "internalType": "bytes",
          "name": "_srcAddress",
          "type": "bytes"
        },
        {
          "internalType": "uint64",
          "name": "_nonce",
          "type": "uint64"
        },
        {
          "internalType": "bytes",
          "name": "_payload",
          "type": "bytes"
        }
      ],
      "name": "retryMessage",
      "outputs": [],
      "stateMutability": "payable",
      "type": "function"
    },
    {
      "inputs": [
        {
          "internalType": "address",
          "name": "from",
          "type": "address"
        },
        {
          "internalType": "address",
          "name": "to",
          "type": "address"
        },
        {
          "internalType": "uint256",
          "name": "tokenId",
          "type": "uint256"
        }
      ],
      "name": "safeTransferFrom",
      "outputs": [],
      "stateMutability": "nonpayable",
      "type": "function"
    },
    {
      "inputs": [
        {
          "internalType": "address",
          "name": "from",
          "type": "address"
        },
        {
          "internalType": "address",
          "name": "to",
          "type": "address"
        },
        {
          "internalType": "uint256",
          "name": "tokenId",
          "type": "uint256"
        },
        {
          "internalType": "bytes",
          "name": "data",
          "type": "bytes"
        }
      ],
      "name": "safeTransferFrom",
      "outputs": [],
      "stateMutability": "nonpayable",
      "type": "function"
    },
    {
      "inputs": [
        {
          "internalType": "address",
          "name": "operator",
          "type": "address"
        },
        {
          "internalType": "bool",
          "name": "approved",
          "type": "bool"
        }
      ],
      "name": "setApprovalForAll",
      "outputs": [],
      "stateMutability": "nonpayable",
      "type": "function"
    },
    {
      "inputs": [
        {
          "internalType": "uint16",
          "name": "_chainId",
          "type": "uint16"
        },
        {
          "internalType": "bytes",
          "name": "_trustedRemote",
          "type": "bytes"
        }
      ],
      "name": "setTrustedRemote",
      "outputs": [],
      "stateMutability": "nonpayable",
      "type": "function"
    },
    {
      "inputs": [
        {
          "internalType": "address",
          "name": "_deposit",
          "type": "address"
        }
      ],
      "name": "setdepositAddress",
      "outputs": [],
      "stateMutability": "nonpayable",
      "type": "function"
    },
    {
      "inputs": [
        {
          "internalType": "uint256",
          "name": "newVal",
          "type": "uint256"
        }
      ],
      "name": "setgas",
      "outputs": [],
      "stateMutability": "nonpayable",
      "type": "function"
    },
    {
      "inputs": [
        {
          "internalType": "bytes4",
          "name": "interfaceId",
          "type": "bytes4"
        }
      ],
      "name": "supportsInterface",
      "outputs": [
        {
          "internalType": "bool",
          "name": "",
          "type": "bool"
        }
      ],
      "stateMutability": "view",
      "type": "function"
    },
    {
      "inputs": [],
      "name": "symbol",
      "outputs": [
        {
          "internalType": "string",
          "name": "",
          "type": "string"
        }
      ],
      "stateMutability": "view",
      "type": "function"
    },
    {
      "inputs": [
        {
          "internalType": "uint256",
          "name": "tokenId",
          "type": "uint256"
        }
      ],
      "name": "tokenURI",
      "outputs": [
        {
          "internalType": "string",
          "name": "",
          "type": "string"
        }
      ],
      "stateMutability": "view",
      "type": "function"
    },
    {
      "inputs": [
        {
          "internalType": "address",
          "name": "from",
          "type": "address"
        },
        {
          "internalType": "address",
          "name": "to",
          "type": "address"
        },
        {
          "internalType": "uint256",
          "name": "tokenId",
          "type": "uint256"
        }
      ],
      "name": "transferFrom",
      "outputs": [],
      "stateMutability": "nonpayable",
      "type": "function"
    },
    {
      "inputs": [
        {
          "internalType": "address",
          "name": "newOwner",
          "type": "address"
        }
      ],
      "name": "transferOwnership",
      "outputs": [],
      "stateMutability": "nonpayable",
      "type": "function"
    },
    {
      "inputs": [
        {
          "internalType": "uint16",
          "name": "",
          "type": "uint16"
        }
      ],
      "name": "trustedRemoteLookup",
      "outputs": [
        {
          "internalType": "bytes",
          "name": "",
          "type": "bytes"
        }
      ],
      "stateMutability": "view",
      "type": "function"
    }
  ],
  "bytecode": "0x608060405260646007556205573060085560006009556000600a556000601060006101000a81548160ff0219169083151502179055503480156200004257600080fd5b5060405162004be038038062004be0833981810160405281019062000068919062000356565b6040518060400160405280600a81526020017f446f6d61696e4e616d65000000000000000000000000000000000000000000008152506040518060400160405280600a81526020017f446f6d61696e4e616d6500000000000000000000000000000000000000000000815250620000f4620000e86200017060201b60201c565b6200017860201b60201c565b81600190805190602001906200010c9291906200023c565b508060029080519060200190620001259291906200023c565b50505080600b60006101000a81548173ffffffffffffffffffffffffffffffffffffffff021916908373ffffffffffffffffffffffffffffffffffffffff16021790555050620003ed565b600033905090565b60008060009054906101000a900473ffffffffffffffffffffffffffffffffffffffff169050816000806101000a81548173ffffffffffffffffffffffffffffffffffffffff021916908373ffffffffffffffffffffffffffffffffffffffff1602179055508173ffffffffffffffffffffffffffffffffffffffff168173ffffffffffffffffffffffffffffffffffffffff167f8be0079c531659141344cd1fd0a4f28419497f9722a3daafe3b4186f6b6457e060405160405180910390a35050565b8280546200024a90620003b7565b90600052602060002090601f0160209004810192826200026e5760008555620002ba565b82601f106200028957805160ff1916838001178555620002ba565b82800160010185558215620002ba579182015b82811115620002b95782518255916020019190600101906200029c565b5b509050620002c99190620002cd565b5090565b5b80821115620002e8576000816000905550600101620002ce565b5090565b600080fd5b600073ffffffffffffffffffffffffffffffffffffffff82169050919050565b60006200031e82620002f1565b9050919050565b620003308162000311565b81146200033c57600080fd5b50565b600081519050620003508162000325565b92915050565b6000602082840312156200036f576200036e620002ec565b5b60006200037f848285016200033f565b91505092915050565b7f4e487b7100000000000000000000000000000000000000000000000000000000600052602260045260246000fd5b60006002820490506001821680620003d057607f821691505b60208210811415620003e757620003e662000388565b5b50919050565b6147e380620003fd6000396000f3fe6080604052600436106101f85760003560e01c806370a082311161010d578063a22cb465116100a0578063d1deba1f1161006f578063d1deba1f1461076f578063d275f5e01461078b578063e985e9c5146107b7578063eb8d72b7146107f4578063f2fde38b1461081d576101f8565b8063a22cb465146106c4578063b88d4fde146106ed578063baf1639e14610716578063c87b56dd14610732576101f8565b80638da5cb5b116100dc5780638da5cb5b146106055780638ee7491214610630578063919840ad1461066e57806395d89b4114610699576101f8565b806370a0823114610537578063715018a6146105745780637533d7881461058b57806384a7816e146105c8576101f8565b80632477ff011161019057806350cd4df21161015f57806350cd4df21461042a5780635e280f11146104555780636352211e146104805780636bca820e146104bd5780636bdfd3cc146104fa576101f8565b80632477ff0114610371578063383d81901461039a57806340a7bb10146103c357806342842e0e14610401576101f8565b8063095ea7b3116101cc578063095ea7b3146102cb57806311fc05cd146102f45780631c37a8221461031f57806323b872dd14610348576101f8565b80621d3567146101fd57806301ffc9a71461022657806306fdde0314610263578063081812fc1461028e575b600080fd5b34801561020957600080fd5b50610224600480360381019061021f9190612bf4565b610846565b005b34801561023257600080fd5b5061024d60048036038101906102489190612ceb565b6109dd565b60405161025a9190612d33565b60405180910390f35b34801561026f57600080fd5b50610278610abf565b6040516102859190612dd6565b60405180910390f35b34801561029a57600080fd5b506102b560048036038101906102b09190612e2e565b610b51565b6040516102c29190612e9c565b60405180910390f35b3480156102d757600080fd5b506102f260048036038101906102ed9190612ee3565b610b97565b005b34801561030057600080fd5b50610309610caf565b6040516103169190612e9c565b60405180910390f35b34801561032b57600080fd5b5061034660048036038101906103419190612bf4565b610cd9565b005b34801561035457600080fd5b5061036f600480360381019061036a9190612f23565b610d59565b005b34801561037d57600080fd5b5061039860048036038101906103939190612e2e565b610db9565b005b3480156103a657600080fd5b506103c160048036038101906103bc9190612f76565b610dcb565b005b3480156103cf57600080fd5b506103ea60048036038101906103e5919061302f565b610e17565b6040516103f89291906130fa565b60405180910390f35b34801561040d57600080fd5b5061042860048036038101906104239190612f23565b610ee0565b005b34801561043657600080fd5b5061043f610f00565b60405161044c9190612d33565b60405180910390f35b34801561046157600080fd5b5061046a610f13565b6040516104779190613182565b60405180910390f35b34801561048c57600080fd5b506104a760048036038101906104a29190612e2e565b610f39565b6040516104b49190612e9c565b60405180910390f35b3480156104c957600080fd5b506104e460048036038101906104df919061319d565b610feb565b6040516104f19190612d33565b60405180910390f35b34801561050657600080fd5b50610521600480360381019061051c9190613220565b61101e565b60405161052e919061326d565b60405180910390f35b34801561054357600080fd5b5061055e60048036038101906105599190612f76565b611043565b60405161056b919061326d565b60405180910390f35b34801561058057600080fd5b506105896110fb565b005b34801561059757600080fd5b506105b260048036038101906105ad9190613288565b61110f565b6040516105bf919061330a565b60405180910390f35b3480156105d457600080fd5b506105ef60048036038101906105ea919061332c565b6111af565b6040516105fc919061326d565b60405180910390f35b34801561061157600080fd5b5061061a6112c9565b6040516106279190612e9c565b60405180910390f35b34801561063c57600080fd5b506106576004803603810190610652919061336c565b6112f2565b6040516106659291906133f4565b60405180910390f35b34801561067a57600080fd5b50610683611346565b6040516106909190612d33565b60405180910390f35b3480156106a557600080fd5b506106ae61135d565b6040516106bb9190612dd6565b60405180910390f35b3480156106d057600080fd5b506106eb60048036038101906106e6919061341d565b6113ef565b005b3480156106f957600080fd5b50610714600480360381019061070f919061345d565b611405565b005b610730600480360381019061072b91906134e0565b611467565b005b34801561073e57600080fd5b5061075960048036038101906107549190612e2e565b6117b1565b6040516107669190612dd6565b60405180910390f35b61078960048036038101906107849190613554565b611819565b005b34801561079757600080fd5b506107a06119b9565b6040516107ae9291906130fa565b60405180910390f35b3480156107c357600080fd5b506107de60048036038101906107d991906135f8565b6119ca565b6040516107eb9190612d33565b60405180910390f35b34801561080057600080fd5b5061081b60048036038101906108169190613638565b611a5e565b005b34801561082957600080fd5b50610844600480360381019061083f9190612f76565b611a96565b005b600b60009054906101000a900473ffffffffffffffffffffffffffffffffffffffff1673ffffffffffffffffffffffffffffffffffffffff163373ffffffffffffffffffffffffffffffffffffffff16146108a057600080fd5b3073ffffffffffffffffffffffffffffffffffffffff16631c37a822858585856040518563ffffffff1660e01b81526004016108df94939291906136b6565b600060405180830381600087803b1580156108f957600080fd5b505af192505050801561090a575060015b6109d6576040518060400160405280825181526020018280519060200120815250600e60008661ffff1661ffff168152602001908152602001600020846040516109549190613745565b908152602001604051809103902060008467ffffffffffffffff16815260200190815260200160002060008201518160000155602082015181600101559050507fe6f254030bcb01ffd20558175c13fcaed6d1520be7becee4c961b65f79243b0d848484846040516109c994939291906136b6565b60405180910390a16109d7565b5b50505050565b60007f80ac58cd000000000000000000000000000000000000000000000000000000007bffffffffffffffffffffffffffffffffffffffffffffffffffffffff1916827bffffffffffffffffffffffffffffffffffffffffffffffffffffffff19161480610aa857507f5b5e139f000000000000000000000000000000000000000000000000000000007bffffffffffffffffffffffffffffffffffffffffffffffffffffffff1916827bffffffffffffffffffffffffffffffffffffffffffffffffffffffff1916145b80610ab85750610ab782611b1a565b5b9050919050565b606060018054610ace9061378b565b80601f0160208091040260200160405190810160405280929190818152602001828054610afa9061378b565b8015610b475780601f10610b1c57610100808354040283529160200191610b47565b820191906000526020600020905b815481529060010190602001808311610b2a57829003601f168201915b5050505050905090565b6000610b5c82611b84565b6005600083815260200190815260200160002060009054906101000a900473ffffffffffffffffffffffffffffffffffffffff169050919050565b6000610ba282610f39565b90508073ffffffffffffffffffffffffffffffffffffffff168373ffffffffffffffffffffffffffffffffffffffff161415610c13576040517f08c379a0000000000000000000000000000000000000000000000000000000008152600401610c0a9061382f565b60405180910390fd5b8073ffffffffffffffffffffffffffffffffffffffff16610c32611bcf565b73ffffffffffffffffffffffffffffffffffffffff161480610c615750610c6081610c5b611bcf565b6119ca565b5b610ca0576040517f08c379a0000000000000000000000000000000000000000000000000000000008152600401610c97906138c1565b60405180910390fd5b610caa8383611bd7565b505050565b6000600c60009054906101000a900473ffffffffffffffffffffffffffffffffffffffff16905090565b3073ffffffffffffffffffffffffffffffffffffffff163373ffffffffffffffffffffffffffffffffffffffff1614610d47576040517f08c379a0000000000000000000000000000000000000000000000000000000008152600401610d3e90613953565b60405180910390fd5b610d5384848484611c90565b50505050565b610d6a610d64611bcf565b82611df4565b610da9576040517f08c379a0000000000000000000000000000000000000000000000000000000008152600401610da0906139e5565b60405180910390fd5b610db4838383611e89565b505050565b610dc16120f0565b8060088190555050565b610dd36120f0565b80600c60006101000a81548173ffffffffffffffffffffffffffffffffffffffff021916908373ffffffffffffffffffffffffffffffffffffffff16021790555050565b600080600b60009054906101000a900473ffffffffffffffffffffffffffffffffffffffff1673ffffffffffffffffffffffffffffffffffffffff166340a7bb108a8a8a8a8a8a8a6040518863ffffffff1660e01b8152600401610e819796959493929190613a32565b604080518083038186803b158015610e9857600080fd5b505afa158015610eac573d6000803e3d6000fd5b505050506040513d601f19601f82011682018060405250810190610ed09190613aac565b9150915097509795505050505050565b610efb83838360405180602001604052806000815250611405565b505050565b601060009054906101000a900460ff1681565b600b60009054906101000a900473ffffffffffffffffffffffffffffffffffffffff1681565b6000806003600084815260200190815260200160002060009054906101000a900473ffffffffffffffffffffffffffffffffffffffff169050600073ffffffffffffffffffffffffffffffffffffffff168173ffffffffffffffffffffffffffffffffffffffff161415610fe2576040517f08c379a0000000000000000000000000000000000000000000000000000000008152600401610fd990613b38565b60405180910390fd5b80915050919050565b600081601060006101000a81548160ff021916908315150217905550601060009054906101000a900460ff169050919050565b60008282604051611030929190613b7d565b604051809103902060001c905092915050565b60008073ffffffffffffffffffffffffffffffffffffffff168273ffffffffffffffffffffffffffffffffffffffff1614156110b4576040517f08c379a00000000000000000000000000000000000000000000000000000000081526004016110ab90613c08565b60405180910390fd5b600460008373ffffffffffffffffffffffffffffffffffffffff1673ffffffffffffffffffffffffffffffffffffffff168152602001908152602001600020549050919050565b6111036120f0565b61110d600061216e565b565b600f602052806000526040600020600091509050805461112e9061378b565b80601f016020809104026020016040519081016040528092919081815260200182805461115a9061378b565b80156111a75780601f1061117c576101008083540402835291602001916111a7565b820191906000526020600020905b81548152906001019060200180831161118a57829003601f168201915b505050505081565b60008033836040516020016111c5929190613c28565b60405160208183030381529060405290506000600190506000816008546040516020016111f3929190613ca8565b60405160208183030381529060405290506000600b60009054906101000a900473ffffffffffffffffffffffffffffffffffffffff1673ffffffffffffffffffffffffffffffffffffffff166340a7bb108830876000876040518663ffffffff1660e01b815260040161126a959493929190613cd4565b604080518083038186803b15801561128157600080fd5b505afa158015611295573d6000803e3d6000fd5b505050506040513d601f19601f820116820180604052508101906112b99190613aac565b5090508094505050505092915050565b60008060009054906101000a900473ffffffffffffffffffffffffffffffffffffffff16905090565b600e6020528260005260406000208280516020810182018051848252602083016020850120818352809550505050505060205280600052604060002060009250925050508060000154908060010154905082565b6000601060009054906101000a900460ff16905090565b60606002805461136c9061378b565b80601f01602080910402602001604051908101604052809291908181526020018280546113989061378b565b80156113e55780601f106113ba576101008083540402835291602001916113e5565b820191906000526020600020905b8154815290600101906020018083116113c857829003601f168201915b5050505050905090565b6114016113fa611bcf565b8383612232565b5050565b611416611410611bcf565b83611df4565b611455576040517f08c379a000000000000000000000000000000000000000000000000000000000815260040161144c906139e5565b60405180910390fd5b6114618484848461239f565b50505050565b61147081610f39565b73ffffffffffffffffffffffffffffffffffffffff163373ffffffffffffffffffffffffffffffffffffffff16146114dd576040517f08c379a00000000000000000000000000000000000000000000000000000000081526004016114d490613d81565b60405180910390fd5b60006114e882610f39565b905061151733600c60009054906101000a900473ffffffffffffffffffffffffffffffffffffffff1684610d59565b600c60009054906101000a900473ffffffffffffffffffffffffffffffffffffffff1673ffffffffffffffffffffffffffffffffffffffff1663b6b55f25836040518263ffffffff1660e01b8152600401611572919061326d565b600060405180830381600087803b15801561158c57600080fd5b505af11580156115a0573d6000803e3d6000fd5b50505050600081836040516020016115b9929190613c28565b60405160208183030381529060405290506000600190506000816008546040516020016115e7929190613ca8565b60405160208183030381529060405290506000600b60009054906101000a900473ffffffffffffffffffffffffffffffffffffffff1673ffffffffffffffffffffffffffffffffffffffff166340a7bb108a30876000876040518663ffffffff1660e01b815260040161165e959493929190613cd4565b604080518083038186803b15801561167557600080fd5b505afa158015611689573d6000803e3d6000fd5b505050506040513d601f19601f820116820180604052508101906116ad9190613aac565b509050803410156116f3576040517f08c379a00000000000000000000000000000000000000000000000000000000081526004016116ea90613e13565b60405180910390fd5b600b60009054906101000a900473ffffffffffffffffffffffffffffffffffffffff1673ffffffffffffffffffffffffffffffffffffffff1663c5803100348b8b8b893360008a6040518963ffffffff1660e01b815260040161175c9796959493929190613e54565b6000604051808303818588803b15801561177557600080fd5b505af1158015611789573d6000803e3d6000fd5b5050505050600960008154809291906117a190613efb565b9190505550505050505050505050565b60606117bc82611b84565b60006117c66123fb565b905060008151116117e65760405180602001604052806000815250611811565b806117f084612412565b604051602001611801929190613f80565b6040516020818303038152906040525b915050919050565b6000600e60008761ffff1661ffff168152602001908152602001600020856040516118449190613745565b908152602001604051809103902060008567ffffffffffffffff16815260200190815260200160002090506000801b816001015414156118b9576040517f08c379a00000000000000000000000000000000000000000000000000000000081526004016118b090614016565b60405180910390fd5b8060000154838390501480156118e95750806001015483836040516118df929190613b7d565b6040518091039020145b611928576040517f08c379a000000000000000000000000000000000000000000000000000000000815260040161191f90614082565b60405180910390fd5b600081600001819055506000801b81600101819055503073ffffffffffffffffffffffffffffffffffffffff16631c37a82287878787876040518663ffffffff1660e01b815260040161197f9594939291906140a2565b600060405180830381600087803b15801561199957600080fd5b505af11580156119ad573d6000803e3d6000fd5b50505050505050505050565b600080600954600a54915091509091565b6000600660008473ffffffffffffffffffffffffffffffffffffffff1673ffffffffffffffffffffffffffffffffffffffff16815260200190815260200160002060008373ffffffffffffffffffffffffffffffffffffffff1673ffffffffffffffffffffffffffffffffffffffff16815260200190815260200160002060009054906101000a900460ff16905092915050565b611a666120f0565b8181600f60008661ffff1661ffff1681526020019081526020016000209190611a9092919061297d565b50505050565b611a9e6120f0565b600073ffffffffffffffffffffffffffffffffffffffff168173ffffffffffffffffffffffffffffffffffffffff161415611b0e576040517f08c379a0000000000000000000000000000000000000000000000000000000008152600401611b0590614169565b60405180910390fd5b611b178161216e565b50565b60007f01ffc9a7000000000000000000000000000000000000000000000000000000007bffffffffffffffffffffffffffffffffffffffffffffffffffffffff1916827bffffffffffffffffffffffffffffffffffffffffffffffffffffffff1916149050919050565b611b8d81612573565b611bcc576040517f08c379a0000000000000000000000000000000000000000000000000000000008152600401611bc390613b38565b60405180910390fd5b50565b600033905090565b816005600083815260200190815260200160002060006101000a81548173ffffffffffffffffffffffffffffffffffffffff021916908373ffffffffffffffffffffffffffffffffffffffff160217905550808273ffffffffffffffffffffffffffffffffffffffff16611c4a83610f39565b73ffffffffffffffffffffffffffffffffffffffff167f8c5be1e5ebec7d5bd14f71427d1e84f3dd0314c0f7b2291e5b200ac8c7c3b92560405160405180910390a45050565b600060148401519050600080600084806020019051810190611cb291906141b5565b9250925092506001601060006101000a81548160ff02191690831515021790555080600d600084815260200190815260200160002081905550611cf482612573565b15611d8c57600c60009054906101000a900473ffffffffffffffffffffffffffffffffffffffff1673ffffffffffffffffffffffffffffffffffffffff1662f714ce83856040518363ffffffff1660e01b8152600401611d55929190614208565b600060405180830381600087803b158015611d6f57600080fd5b505af1158015611d83573d6000803e3d6000fd5b50505050611d97565b611d9683836125df565b5b600a6000815480929190611daa90613efb565b91905055507fb2fc0605d8092337433832abc79c17edd73790ce82bcd45e4ac4843f3aae8239888587604051611de293929190614231565b60405180910390a15050505050505050565b600080611e0083610f39565b90508073ffffffffffffffffffffffffffffffffffffffff168473ffffffffffffffffffffffffffffffffffffffff161480611e425750611e4181856119ca565b5b80611e8057508373ffffffffffffffffffffffffffffffffffffffff16611e6884610b51565b73ffffffffffffffffffffffffffffffffffffffff16145b91505092915050565b8273ffffffffffffffffffffffffffffffffffffffff16611ea982610f39565b73ffffffffffffffffffffffffffffffffffffffff1614611eff576040517f08c379a0000000000000000000000000000000000000000000000000000000008152600401611ef6906142e1565b60405180910390fd5b600073ffffffffffffffffffffffffffffffffffffffff168273ffffffffffffffffffffffffffffffffffffffff161415611f6f576040517f08c379a0000000000000000000000000000000000000000000000000000000008152600401611f6690614373565b60405180910390fd5b611f7a8383836127b9565b611f85600082611bd7565b6001600460008573ffffffffffffffffffffffffffffffffffffffff1673ffffffffffffffffffffffffffffffffffffffff1681526020019081526020016000206000828254611fd59190614393565b925050819055506001600460008473ffffffffffffffffffffffffffffffffffffffff1673ffffffffffffffffffffffffffffffffffffffff168152602001908152602001600020600082825461202c91906143c7565b92505081905550816003600083815260200190815260200160002060006101000a81548173ffffffffffffffffffffffffffffffffffffffff021916908373ffffffffffffffffffffffffffffffffffffffff160217905550808273ffffffffffffffffffffffffffffffffffffffff168473ffffffffffffffffffffffffffffffffffffffff167fddf252ad1be2c89b69c2b068fc378daa952ba7f163c4a11628f55a4df523b3ef60405160405180910390a46120eb8383836127be565b505050565b6120f8611bcf565b73ffffffffffffffffffffffffffffffffffffffff166121166112c9565b73ffffffffffffffffffffffffffffffffffffffff161461216c576040517f08c379a000000000000000000000000000000000000000000000000000000000815260040161216390614469565b60405180910390fd5b565b60008060009054906101000a900473ffffffffffffffffffffffffffffffffffffffff169050816000806101000a81548173ffffffffffffffffffffffffffffffffffffffff021916908373ffffffffffffffffffffffffffffffffffffffff1602179055508173ffffffffffffffffffffffffffffffffffffffff168173ffffffffffffffffffffffffffffffffffffffff167f8be0079c531659141344cd1fd0a4f28419497f9722a3daafe3b4186f6b6457e060405160405180910390a35050565b8173ffffffffffffffffffffffffffffffffffffffff168373ffffffffffffffffffffffffffffffffffffffff1614156122a1576040517f08c379a0000000000000000000000000000000000000000000000000000000008152600401612298906144d5565b60405180910390fd5b80600660008573ffffffffffffffffffffffffffffffffffffffff1673ffffffffffffffffffffffffffffffffffffffff16815260200190815260200160002060008473ffffffffffffffffffffffffffffffffffffffff1673ffffffffffffffffffffffffffffffffffffffff16815260200190815260200160002060006101000a81548160ff0219169083151502179055508173ffffffffffffffffffffffffffffffffffffffff168373ffffffffffffffffffffffffffffffffffffffff167f17307eab39ab6107e8899845ad3d59bd9653f200f220920489ca2b5937696c31836040516123929190612d33565b60405180910390a3505050565b6123aa848484611e89565b6123b6848484846127c3565b6123f5576040517f08c379a00000000000000000000000000000000000000000000000000000000081526004016123ec90614567565b60405180910390fd5b50505050565b606060405180602001604052806000815250905090565b6060600082141561245a576040518060400160405280600181526020017f3000000000000000000000000000000000000000000000000000000000000000815250905061256e565b600082905060005b6000821461248c57808061247590613efb565b915050600a8261248591906145b6565b9150612462565b60008167ffffffffffffffff8111156124a8576124a7612a89565b5b6040519080825280601f01601f1916602001820160405280156124da5781602001600182028036833780820191505090505b5090505b60008514612567576001826124f39190614393565b9150600a8561250291906145e7565b603061250e91906143c7565b60f81b81838151811061252457612523614618565b5b60200101907effffffffffffffffffffffffffffffffffffffffffffffffffffffffffffff1916908160001a905350600a8561256091906145b6565b94506124de565b8093505050505b919050565b60008073ffffffffffffffffffffffffffffffffffffffff166003600084815260200190815260200160002060009054906101000a900473ffffffffffffffffffffffffffffffffffffffff1673ffffffffffffffffffffffffffffffffffffffff1614159050919050565b600073ffffffffffffffffffffffffffffffffffffffff168273ffffffffffffffffffffffffffffffffffffffff16141561264f576040517f08c379a000000000000000000000000000000000000000000000000000000000815260040161264690614693565b60405180910390fd5b61265881612573565b15612698576040517f08c379a000000000000000000000000000000000000000000000000000000000815260040161268f906146ff565b60405180910390fd5b6126a4600083836127b9565b6001600460008473ffffffffffffffffffffffffffffffffffffffff1673ffffffffffffffffffffffffffffffffffffffff16815260200190815260200160002060008282546126f491906143c7565b92505081905550816003600083815260200190815260200160002060006101000a81548173ffffffffffffffffffffffffffffffffffffffff021916908373ffffffffffffffffffffffffffffffffffffffff160217905550808273ffffffffffffffffffffffffffffffffffffffff16600073ffffffffffffffffffffffffffffffffffffffff167fddf252ad1be2c89b69c2b068fc378daa952ba7f163c4a11628f55a4df523b3ef60405160405180910390a46127b5600083836127be565b5050565b505050565b505050565b60006127e48473ffffffffffffffffffffffffffffffffffffffff1661295a565b1561294d578373ffffffffffffffffffffffffffffffffffffffff1663150b7a0261280d611bcf565b8786866040518563ffffffff1660e01b815260040161282f949392919061471f565b602060405180830381600087803b15801561284957600080fd5b505af192505050801561287a57506040513d601f19601f820116820180604052508101906128779190614780565b60015b6128fd573d80600081146128aa576040519150601f19603f3d011682016040523d82523d6000602084013e6128af565b606091505b506000815114156128f5576040517f08c379a00000000000000000000000000000000000000000000000000000000081526004016128ec90614567565b60405180910390fd5b805181602001fd5b63150b7a0260e01b7bffffffffffffffffffffffffffffffffffffffffffffffffffffffff1916817bffffffffffffffffffffffffffffffffffffffffffffffffffffffff191614915050612952565b600190505b949350505050565b6000808273ffffffffffffffffffffffffffffffffffffffff163b119050919050565b8280546129899061378b565b90600052602060002090601f0160209004810192826129ab57600085556129f2565b82601f106129c457803560ff19168380011785556129f2565b828001600101855582156129f2579182015b828111156129f15782358255916020019190600101906129d6565b5b5090506129ff9190612a03565b5090565b5b80821115612a1c576000816000905550600101612a04565b5090565b6000604051905090565b600080fd5b600080fd5b600061ffff82169050919050565b612a4b81612a34565b8114612a5657600080fd5b50565b600081359050612a6881612a42565b92915050565b600080fd5b600080fd5b6000601f19601f8301169050919050565b7f4e487b7100000000000000000000000000000000000000000000000000000000600052604160045260246000fd5b612ac182612a78565b810181811067ffffffffffffffff82111715612ae057612adf612a89565b5b80604052505050565b6000612af3612a20565b9050612aff8282612ab8565b919050565b600067ffffffffffffffff821115612b1f57612b1e612a89565b5b612b2882612a78565b9050602081019050919050565b82818337600083830152505050565b6000612b57612b5284612b04565b612ae9565b905082815260208101848484011115612b7357612b72612a73565b5b612b7e848285612b35565b509392505050565b600082601f830112612b9b57612b9a612a6e565b5b8135612bab848260208601612b44565b91505092915050565b600067ffffffffffffffff82169050919050565b612bd181612bb4565b8114612bdc57600080fd5b50565b600081359050612bee81612bc8565b92915050565b60008060008060808587031215612c0e57612c0d612a2a565b5b6000612c1c87828801612a59565b945050602085013567ffffffffffffffff811115612c3d57612c3c612a2f565b5b612c4987828801612b86565b9350506040612c5a87828801612bdf565b925050606085013567ffffffffffffffff811115612c7b57612c7a612a2f565b5b612c8787828801612b86565b91505092959194509250565b60007fffffffff0000000000000000000000000000000000000000000000000000000082169050919050565b612cc881612c93565b8114612cd357600080fd5b50565b600081359050612ce581612cbf565b92915050565b600060208284031215612d0157612d00612a2a565b5b6000612d0f84828501612cd6565b91505092915050565b60008115159050919050565b612d2d81612d18565b82525050565b6000602082019050612d486000830184612d24565b92915050565b600081519050919050565b600082825260208201905092915050565b60005b83811015612d88578082015181840152602081019050612d6d565b83811115612d97576000848401525b50505050565b6000612da882612d4e565b612db28185612d59565b9350612dc2818560208601612d6a565b612dcb81612a78565b840191505092915050565b60006020820190508181036000830152612df08184612d9d565b905092915050565b6000819050919050565b612e0b81612df8565b8114612e1657600080fd5b50565b600081359050612e2881612e02565b92915050565b600060208284031215612e4457612e43612a2a565b5b6000612e5284828501612e19565b91505092915050565b600073ffffffffffffffffffffffffffffffffffffffff82169050919050565b6000612e8682612e5b565b9050919050565b612e9681612e7b565b82525050565b6000602082019050612eb16000830184612e8d565b92915050565b612ec081612e7b565b8114612ecb57600080fd5b50565b600081359050612edd81612eb7565b92915050565b60008060408385031215612efa57612ef9612a2a565b5b6000612f0885828601612ece565b9250506020612f1985828601612e19565b9150509250929050565b600080600060608486031215612f3c57612f3b612a2a565b5b6000612f4a86828701612ece565b9350506020612f5b86828701612ece565b9250506040612f6c86828701612e19565b9150509250925092565b600060208284031215612f8c57612f8b612a2a565b5b6000612f9a84828501612ece565b91505092915050565b600080fd5b600080fd5b60008083601f840112612fc357612fc2612a6e565b5b8235905067ffffffffffffffff811115612fe057612fdf612fa3565b5b602083019150836001820283011115612ffc57612ffb612fa8565b5b9250929050565b61300c81612d18565b811461301757600080fd5b50565b60008135905061302981613003565b92915050565b600080600080600080600060a0888a03121561304e5761304d612a2a565b5b600061305c8a828b01612a59565b975050602061306d8a828b01612ece565b965050604088013567ffffffffffffffff81111561308e5761308d612a2f565b5b61309a8a828b01612fad565b955095505060606130ad8a828b0161301a565b935050608088013567ffffffffffffffff8111156130ce576130cd612a2f565b5b6130da8a828b01612fad565b925092505092959891949750929550565b6130f481612df8565b82525050565b600060408201905061310f60008301856130eb565b61311c60208301846130eb565b9392505050565b6000819050919050565b600061314861314361313e84612e5b565b613123565b612e5b565b9050919050565b600061315a8261312d565b9050919050565b600061316c8261314f565b9050919050565b61317c81613161565b82525050565b60006020820190506131976000830184613173565b92915050565b6000602082840312156131b3576131b2612a2a565b5b60006131c18482850161301a565b91505092915050565b60008083601f8401126131e0576131df612a6e565b5b8235905067ffffffffffffffff8111156131fd576131fc612fa3565b5b60208301915083600182028301111561321957613218612fa8565b5b9250929050565b6000806020838503121561323757613236612a2a565b5b600083013567ffffffffffffffff81111561325557613254612a2f565b5b613261858286016131ca565b92509250509250929050565b600060208201905061328260008301846130eb565b92915050565b60006020828403121561329e5761329d612a2a565b5b60006132ac84828501612a59565b91505092915050565b600081519050919050565b600082825260208201905092915050565b60006132dc826132b5565b6132e681856132c0565b93506132f6818560208601612d6a565b6132ff81612a78565b840191505092915050565b6000602082019050818103600083015261332481846132d1565b905092915050565b6000806040838503121561334357613342612a2a565b5b600061335185828601612a59565b925050602061336285828601612e19565b9150509250929050565b60008060006060848603121561338557613384612a2a565b5b600061339386828701612a59565b935050602084013567ffffffffffffffff8111156133b4576133b3612a2f565b5b6133c086828701612b86565b92505060406133d186828701612e19565b9150509250925092565b6000819050919050565b6133ee816133db565b82525050565b600060408201905061340960008301856130eb565b61341660208301846133e5565b9392505050565b6000806040838503121561343457613433612a2a565b5b600061344285828601612ece565b92505060206134538582860161301a565b9150509250929050565b6000806000806080858703121561347757613476612a2a565b5b600061348587828801612ece565b945050602061349687828801612ece565b93505060406134a787828801612e19565b925050606085013567ffffffffffffffff8111156134c8576134c7612a2f565b5b6134d487828801612b86565b91505092959194509250565b600080600080606085870312156134fa576134f9612a2a565b5b600061350887828801612a59565b945050602085013567ffffffffffffffff81111561352957613528612a2f565b5b61353587828801612fad565b9350935050604061354887828801612e19565b91505092959194509250565b6000806000806000608086880312156135705761356f612a2a565b5b600061357e88828901612a59565b955050602086013567ffffffffffffffff81111561359f5761359e612a2f565b5b6135ab88828901612b86565b94505060406135bc88828901612bdf565b935050606086013567ffffffffffffffff8111156135dd576135dc612a2f565b5b6135e988828901612fad565b92509250509295509295909350565b6000806040838503121561360f5761360e612a2a565b5b600061361d85828601612ece565b925050602061362e85828601612ece565b9150509250929050565b60008060006040848603121561365157613650612a2a565b5b600061365f86828701612a59565b935050602084013567ffffffffffffffff8111156136805761367f612a2f565b5b61368c86828701612fad565b92509250509250925092565b6136a181612a34565b82525050565b6136b081612bb4565b82525050565b60006080820190506136cb6000830187613698565b81810360208301526136dd81866132d1565b90506136ec60408301856136a7565b81810360608301526136fe81846132d1565b905095945050505050565b600081905092915050565b600061371f826132b5565b6137298185613709565b9350613739818560208601612d6a565b80840191505092915050565b60006137518284613714565b915081905092915050565b7f4e487b7100000000000000000000000000000000000000000000000000000000600052602260045260246000fd5b600060028204905060018216806137a357607f821691505b602082108114156137b7576137b661375c565b5b50919050565b7f4552433732313a20617070726f76616c20746f2063757272656e74206f776e6560008201527f7200000000000000000000000000000000000000000000000000000000000000602082015250565b6000613819602183612d59565b9150613824826137bd565b604082019050919050565b600060208201905081810360008301526138488161380c565b9050919050565b7f4552433732313a20617070726f76652063616c6c6572206973206e6f7420746f60008201527f6b656e206f776e6572206e6f7220617070726f76656420666f7220616c6c0000602082015250565b60006138ab603e83612d59565b91506138b68261384f565b604082019050919050565b600060208201905081810360008301526138da8161389e565b9050919050565b7f4e6f6e626c6f636b696e6752656365697665723a2063616c6c6572206d75737460008201527f206265204272696467652e000000000000000000000000000000000000000000602082015250565b600061393d602b83612d59565b9150613948826138e1565b604082019050919050565b6000602082019050818103600083015261396c81613930565b9050919050565b7f4552433732313a2063616c6c6572206973206e6f7420746f6b656e206f776e6560008201527f72206e6f7220617070726f766564000000000000000000000000000000000000602082015250565b60006139cf602e83612d59565b91506139da82613973565b604082019050919050565b600060208201905081810360008301526139fe816139c2565b9050919050565b6000613a1183856132c0565b9350613a1e838584612b35565b613a2783612a78565b840190509392505050565b600060a082019050613a47600083018a613698565b613a546020830189612e8d565b8181036040830152613a67818789613a05565b9050613a766060830186612d24565b8181036080830152613a89818486613a05565b905098975050505050505050565b600081519050613aa681612e02565b92915050565b60008060408385031215613ac357613ac2612a2a565b5b6000613ad185828601613a97565b9250506020613ae285828601613a97565b9150509250929050565b7f4552433732313a20696e76616c696420746f6b656e2049440000000000000000600082015250565b6000613b22601883612d59565b9150613b2d82613aec565b602082019050919050565b60006020820190508181036000830152613b5181613b15565b9050919050565b6000613b648385613709565b9350613b71838584612b35565b82840190509392505050565b6000613b8a828486613b58565b91508190509392505050565b7f4552433732313a2061646472657373207a65726f206973206e6f74206120766160008201527f6c6964206f776e65720000000000000000000000000000000000000000000000602082015250565b6000613bf2602983612d59565b9150613bfd82613b96565b604082019050919050565b60006020820190508181036000830152613c2181613be5565b9050919050565b6000604082019050613c3d6000830185612e8d565b613c4a60208301846130eb565b9392505050565b60008160f01b9050919050565b6000613c6982613c51565b9050919050565b613c81613c7c82612a34565b613c5e565b82525050565b6000819050919050565b613ca2613c9d82612df8565b613c87565b82525050565b6000613cb48285613c70565b600282019150613cc48284613c91565b6020820191508190509392505050565b600060a082019050613ce96000830188613698565b613cf66020830187612e8d565b8181036040830152613d0881866132d1565b9050613d176060830185612d24565b8181036080830152613d2981846132d1565b90509695505050505050565b7f4e6f7420746865206f776e657200000000000000000000000000000000000000600082015250565b6000613d6b600d83612d59565b9150613d7682613d35565b602082019050919050565b60006020820190508181036000830152613d9a81613d5e565b9050919050565b7f4d7573742073656e6420656e6f7567682076616c756520746f20636f7665722060008201527f6d65737361676546656500000000000000000000000000000000000000000000602082015250565b6000613dfd602a83612d59565b9150613e0882613da1565b604082019050919050565b60006020820190508181036000830152613e2c81613df0565b9050919050565b6000613e3e82612e5b565b9050919050565b613e4e81613e33565b82525050565b600060c082019050613e69600083018a613698565b8181036020830152613e7c81888a613a05565b90508181036040830152613e9081876132d1565b9050613e9f6060830186613e45565b613eac6080830185612e8d565b81810360a0830152613ebe81846132d1565b905098975050505050505050565b7f4e487b7100000000000000000000000000000000000000000000000000000000600052601160045260246000fd5b6000613f0682612df8565b91507fffffffffffffffffffffffffffffffffffffffffffffffffffffffffffffffff821415613f3957613f38613ecc565b5b600182019050919050565b600081905092915050565b6000613f5a82612d4e565b613f648185613f44565b9350613f74818560208601612d6a565b80840191505092915050565b6000613f8c8285613f4f565b9150613f988284613f4f565b91508190509392505050565b7f4e6f6e626c6f636b696e6752656365697665723a206e6f2073746f726564206d60008201527f6573736167650000000000000000000000000000000000000000000000000000602082015250565b6000614000602683612d59565b915061400b82613fa4565b604082019050919050565b6000602082019050818103600083015261402f81613ff3565b9050919050565b7f4c617965725a65726f3a20696e76616c6964207061796c6f6164000000000000600082015250565b600061406c601a83612d59565b915061407782614036565b602082019050919050565b6000602082019050818103600083015261409b8161405f565b9050919050565b60006080820190506140b76000830188613698565b81810360208301526140c981876132d1565b90506140d860408301866136a7565b81810360608301526140eb818486613a05565b90509695505050505050565b7f4f776e61626c653a206e6577206f776e657220697320746865207a65726f206160008201527f6464726573730000000000000000000000000000000000000000000000000000602082015250565b6000614153602683612d59565b915061415e826140f7565b604082019050919050565b6000602082019050818103600083015261418281614146565b9050919050565b61419281613e33565b811461419d57600080fd5b50565b6000815190506141af81614189565b92915050565b6000806000606084860312156141ce576141cd612a2a565b5b60006141dc868287016141a0565b93505060206141ed86828701613a97565b92505060406141fe86828701613a97565b9150509250925092565b600060408201905061421d60008301856130eb565b61422a6020830184612e8d565b9392505050565b60006060820190506142466000830186613698565b6142536020830185612e8d565b818103604083015261426581846132d1565b9050949350505050565b7f4552433732313a207472616e736665722066726f6d20696e636f72726563742060008201527f6f776e6572000000000000000000000000000000000000000000000000000000602082015250565b60006142cb602583612d59565b91506142d68261426f565b604082019050919050565b600060208201905081810360008301526142fa816142be565b9050919050565b7f4552433732313a207472616e7366657220746f20746865207a65726f2061646460008201527f7265737300000000000000000000000000000000000000000000000000000000602082015250565b600061435d602483612d59565b915061436882614301565b604082019050919050565b6000602082019050818103600083015261438c81614350565b9050919050565b600061439e82612df8565b91506143a983612df8565b9250828210156143bc576143bb613ecc565b5b828203905092915050565b60006143d282612df8565b91506143dd83612df8565b9250827fffffffffffffffffffffffffffffffffffffffffffffffffffffffffffffffff0382111561441257614411613ecc565b5b828201905092915050565b7f4f776e61626c653a2063616c6c6572206973206e6f7420746865206f776e6572600082015250565b6000614453602083612d59565b915061445e8261441d565b602082019050919050565b6000602082019050818103600083015261448281614446565b9050919050565b7f4552433732313a20617070726f766520746f2063616c6c657200000000000000600082015250565b60006144bf601983612d59565b91506144ca82614489565b602082019050919050565b600060208201905081810360008301526144ee816144b2565b9050919050565b7f4552433732313a207472616e7366657220746f206e6f6e20455243373231526560008201527f63656976657220696d706c656d656e7465720000000000000000000000000000602082015250565b6000614551603283612d59565b915061455c826144f5565b604082019050919050565b6000602082019050818103600083015261458081614544565b9050919050565b7f4e487b7100000000000000000000000000000000000000000000000000000000600052601260045260246000fd5b60006145c182612df8565b91506145cc83612df8565b9250826145dc576145db614587565b5b828204905092915050565b60006145f282612df8565b91506145fd83612df8565b92508261460d5761460c614587565b5b828206905092915050565b7f4e487b7100000000000000000000000000000000000000000000000000000000600052603260045260246000fd5b7f4552433732313a206d696e7420746f20746865207a65726f2061646472657373600082015250565b600061467d602083612d59565b915061468882614647565b602082019050919050565b600060208201905081810360008301526146ac81614670565b9050919050565b7f4552433732313a20746f6b656e20616c7265616479206d696e74656400000000600082015250565b60006146e9601c83612d59565b91506146f4826146b3565b602082019050919050565b60006020820190508181036000830152614718816146dc565b9050919050565b60006080820190506147346000830187612e8d565b6147416020830186612e8d565b61474e60408301856130eb565b818103606083015261476081846132d1565b905095945050505050565b60008151905061477a81612cbf565b92915050565b60006020828403121561479657614795612a2a565b5b60006147a48482850161476b565b9150509291505056fea2646970667358221220bb2c0206ed9c43178e3ce545cbe6419daec3ba91fd8bfefff5e2f816b3ef729364736f6c63430008090033",
  "linkReferences": {},
  "deployedLinkReferences": {}
}