{
  "_format": "hh-sol-artifact-1",
  "contractName": "AdminInEth",
  "sourceName": "contracts/endpoint/AdminInEth.sol",
  "abi": [
    {
      "inputs": [
        {
          "internalType": "address",
          "name": "_endpoint",
          "type": "address"
        },
        {
          "internalType": "address",
          "name": "_base",
          "type": "address"
        }
      ],
      "stateMutability": "nonpayable",
      "type": "constructor"
    },
    {
      "anonymous": false,
      "inputs": [
        {
          "indexed": false,
          "internalType": "uint16",
          "name": "_srcChainId",
          "type": "uint16"
        },
        {
          "indexed": false,
          "internalType": "bytes",
          "name": "_srcAddress",
          "type": "bytes"
        },
        {
          "indexed": false,
          "internalType": "uint64",
          "name": "_nonce",
          "type": "uint64"
        },
        {
          "indexed": false,
          "internalType": "bytes",
          "name": "_payload",
          "type": "bytes"
        }
      ],
      "name": "MessageFailed",
      "type": "event"
    },
    {
      "anonymous": false,
      "inputs": [
        {
          "indexed": true,
          "internalType": "address",
          "name": "previousOwner",
          "type": "address"
        },
        {
          "indexed": true,
          "internalType": "address",
          "name": "newOwner",
          "type": "address"
        }
      ],
      "name": "OwnershipTransferred",
      "type": "event"
    },
    {
      "anonymous": false,
      "inputs": [
        {
          "indexed": false,
          "internalType": "uint16",
          "name": "_srcChainId",
          "type": "uint16"
        },
        {
          "indexed": false,
          "internalType": "address",
          "name": "_from",
          "type": "address"
        },
        {
          "indexed": false,
          "internalType": "bytes",
          "name": "_payload",
          "type": "bytes"
        }
      ],
      "name": "ReceiveMsg",
      "type": "event"
    },
    {
      "inputs": [],
      "name": "b",
      "outputs": [
        {
          "internalType": "uint256",
          "name": "",
          "type": "uint256"
        }
      ],
      "stateMutability": "view",
      "type": "function"
    },
    {
      "inputs": [],
      "name": "base",
      "outputs": [
        {
          "internalType": "contract IRegister",
          "name": "",
          "type": "address"
        }
      ],
      "stateMutability": "view",
      "type": "function"
    },
    {
      "inputs": [
        {
          "internalType": "string",
          "name": "name",
          "type": "string"
        }
      ],
      "name": "checkLabel",
      "outputs": [
        {
          "internalType": "uint256",
          "name": "label",
          "type": "uint256"
        }
      ],
      "stateMutability": "pure",
      "type": "function"
    },
    {
      "inputs": [],
      "name": "check_j",
      "outputs": [
        {
          "internalType": "bool",
          "name": "",
          "type": "bool"
        }
      ],
      "stateMutability": "view",
      "type": "function"
    },
    {
      "inputs": [
        {
          "internalType": "string",
          "name": "name",
          "type": "string"
        }
      ],
      "name": "check_label",
      "outputs": [
        {
          "internalType": "uint256",
          "name": "",
          "type": "uint256"
        }
      ],
      "stateMutability": "pure",
      "type": "function"
    },
    {
      "inputs": [],
      "name": "check_msg",
      "outputs": [
        {
          "internalType": "uint256",
          "name": "",
          "type": "uint256"
        },
        {
          "internalType": "uint256",
          "name": "",
          "type": "uint256"
        }
      ],
      "stateMutability": "view",
      "type": "function"
    },
    {
      "inputs": [],
      "name": "check_receive",
      "outputs": [
        {
          "internalType": "address",
          "name": "",
          "type": "address"
        },
        {
          "internalType": "uint256",
          "name": "",
          "type": "uint256"
        },
        {
          "internalType": "uint256",
          "name": "",
          "type": "uint256"
        }
      ],
      "stateMutability": "view",
      "type": "function"
    },
    {
      "inputs": [],
      "name": "checkdepositAddress",
      "outputs": [
        {
          "internalType": "address",
          "name": "",
          "type": "address"
        }
      ],
      "stateMutability": "view",
      "type": "function"
    },
    {
      "inputs": [
        {
          "internalType": "uint16",
          "name": "_dstChainId",
          "type": "uint16"
        },
        {
          "internalType": "string",
          "name": "name",
          "type": "string"
        }
      ],
      "name": "checkfee",
      "outputs": [
        {
          "internalType": "uint256",
          "name": "",
          "type": "uint256"
        }
      ],
      "stateMutability": "view",
      "type": "function"
    },
    {
      "inputs": [
        {
          "internalType": "uint16",
          "name": "_dstChainId",
          "type": "uint16"
        },
        {
          "internalType": "bytes",
          "name": "_destination",
          "type": "bytes"
        },
        {
          "internalType": "uint256",
          "name": "label",
          "type": "uint256"
        }
      ],
      "name": "crossChain",
      "outputs": [],
      "stateMutability": "payable",
      "type": "function"
    },
    {
      "inputs": [],
      "name": "endpoint",
      "outputs": [
        {
          "internalType": "contract ILayerZeroEndpoint",
          "name": "",
          "type": "address"
        }
      ],
      "stateMutability": "view",
      "type": "function"
    },
    {
      "inputs": [
        {
          "internalType": "uint16",
          "name": "_dstChainId",
          "type": "uint16"
        },
        {
          "internalType": "address",
          "name": "_userApplication",
          "type": "address"
        },
        {
          "internalType": "bytes",
          "name": "_payload",
          "type": "bytes"
        },
        {
          "internalType": "bool",
          "name": "_payInZRO",
          "type": "bool"
        },
        {
          "internalType": "bytes",
          "name": "_adapterParams",
          "type": "bytes"
        }
      ],
      "name": "estimateFees",
      "outputs": [
        {
          "internalType": "uint256",
          "name": "nativeFee",
          "type": "uint256"
        },
        {
          "internalType": "uint256",
          "name": "zroFee",
          "type": "uint256"
        }
      ],
      "stateMutability": "view",
      "type": "function"
    },
    {
      "inputs": [
        {
          "internalType": "uint16",
          "name": "",
          "type": "uint16"
        },
        {
          "internalType": "bytes",
          "name": "",
          "type": "bytes"
        },
        {
          "internalType": "uint256",
          "name": "",
          "type": "uint256"
        }
      ],
      "name": "failedMessages",
      "outputs": [
        {
          "internalType": "uint256",
          "name": "payloadLength",
          "type": "uint256"
        },
        {
          "internalType": "bytes32",
          "name": "payloadHash",
          "type": "bytes32"
        }
      ],
      "stateMutability": "view",
      "type": "function"
    },
    {
      "inputs": [],
      "name": "j",
      "outputs": [
        {
          "internalType": "bool",
          "name": "",
          "type": "bool"
        }
      ],
      "stateMutability": "view",
      "type": "function"
    },
    {
      "inputs": [
        {
          "internalType": "uint16",
          "name": "_srcChainId",
          "type": "uint16"
        },
        {
          "internalType": "bytes",
          "name": "_srcAddress",
          "type": "bytes"
        },
        {
          "internalType": "uint64",
          "name": "_nonce",
          "type": "uint64"
        },
        {
          "internalType": "bytes",
          "name": "_payload",
          "type": "bytes"
        }
      ],
      "name": "lzReceive",
      "outputs": [],
      "stateMutability": "nonpayable",
      "type": "function"
    },
    {
      "inputs": [],
      "name": "message_receive",
      "outputs": [
        {
          "internalType": "uint256",
          "name": "",
          "type": "uint256"
        }
      ],
      "stateMutability": "view",
      "type": "function"
    },
    {
      "inputs": [],
      "name": "message_send",
      "outputs": [
        {
          "internalType": "uint256",
          "name": "",
          "type": "uint256"
        }
      ],
      "stateMutability": "view",
      "type": "function"
    },
    {
      "inputs": [
        {
          "internalType": "uint16",
          "name": "_srcChainId",
          "type": "uint16"
        },
        {
          "internalType": "bytes",
          "name": "_srcAddress",
          "type": "bytes"
        },
        {
          "internalType": "uint64",
          "name": "_nonce",
          "type": "uint64"
        },
        {
          "internalType": "bytes",
          "name": "_payload",
          "type": "bytes"
        }
      ],
      "name": "onLzReceive",
      "outputs": [],
      "stateMutability": "nonpayable",
      "type": "function"
    },
    {
      "inputs": [],
      "name": "owner",
      "outputs": [
        {
          "internalType": "address",
          "name": "",
          "type": "address"
        }
      ],
      "stateMutability": "view",
      "type": "function"
    },
    {
      "inputs": [],
      "name": "renounceOwnership",
      "outputs": [],
      "stateMutability": "nonpayable",
      "type": "function"
    },
    {
      "inputs": [
        {
          "internalType": "uint16",
          "name": "_srcChainId",
          "type": "uint16"
        },
        {
          "internalType": "bytes",
          "name": "_srcAddress",
          "type": "bytes"
        },
        {
          "internalType": "uint64",
          "name": "_nonce",
          "type": "uint64"
        },
        {
          "internalType": "bytes",
          "name": "_payload",
          "type": "bytes"
        }
      ],
      "name": "retryMessage",
      "outputs": [],
      "stateMutability": "payable",
      "type": "function"
    },
    {
      "inputs": [
        {
          "internalType": "uint16",
          "name": "_chainId",
          "type": "uint16"
        },
        {
          "internalType": "bytes",
          "name": "_trustedRemote",
          "type": "bytes"
        }
      ],
      "name": "setTrustedRemote",
      "outputs": [],
      "stateMutability": "nonpayable",
      "type": "function"
    },
    {
      "inputs": [
        {
          "internalType": "address",
          "name": "_deposit",
          "type": "address"
        }
      ],
      "name": "setdepositAddress",
      "outputs": [],
      "stateMutability": "nonpayable",
      "type": "function"
    },
    {
      "inputs": [
        {
          "internalType": "uint256",
          "name": "newVal",
          "type": "uint256"
        }
      ],
      "name": "setgas",
      "outputs": [],
      "stateMutability": "nonpayable",
      "type": "function"
    },
    {
      "inputs": [
        {
          "internalType": "string",
          "name": "name",
          "type": "string"
        }
      ],
      "name": "test",
      "outputs": [],
      "stateMutability": "nonpayable",
      "type": "function"
    },
    {
      "inputs": [],
      "name": "test_existence",
      "outputs": [
        {
          "internalType": "uint256",
          "name": "",
          "type": "uint256"
        }
      ],
      "stateMutability": "view",
      "type": "function"
    },
    {
      "inputs": [],
      "name": "test_label",
      "outputs": [
        {
          "internalType": "uint256",
          "name": "",
          "type": "uint256"
        }
      ],
      "stateMutability": "view",
      "type": "function"
    },
    {
      "inputs": [],
      "name": "test_owner",
      "outputs": [
        {
          "internalType": "address",
          "name": "",
          "type": "address"
        }
      ],
      "stateMutability": "view",
      "type": "function"
    },
    {
      "inputs": [
        {
          "internalType": "address",
          "name": "newOwner",
          "type": "address"
        }
      ],
      "name": "transferOwnership",
      "outputs": [],
      "stateMutability": "nonpayable",
      "type": "function"
    },
    {
      "inputs": [
        {
          "internalType": "uint16",
          "name": "",
          "type": "uint16"
        }
      ],
      "name": "trustedRemoteLookup",
      "outputs": [
        {
          "internalType": "bytes",
          "name": "",
          "type": "bytes"
        }
      ],
      "stateMutability": "view",
      "type": "function"
    }
  ],
  "bytecode": "0x60806040526064600155620557306002556000600560146101000a81548160ff0219169083151502179055506000600655600060075560006008553480156200004757600080fd5b506040516200321d3803806200321d83398181016040528101906200006d91906200024d565b6200008d620000816200011760201b60201c565b6200011f60201b60201c565b81600360006101000a81548173ffffffffffffffffffffffffffffffffffffffff021916908373ffffffffffffffffffffffffffffffffffffffff16021790555080600460006101000a81548173ffffffffffffffffffffffffffffffffffffffff021916908373ffffffffffffffffffffffffffffffffffffffff160217905550505062000294565b600033905090565b60008060009054906101000a900473ffffffffffffffffffffffffffffffffffffffff169050816000806101000a81548173ffffffffffffffffffffffffffffffffffffffff021916908373ffffffffffffffffffffffffffffffffffffffff1602179055508173ffffffffffffffffffffffffffffffffffffffff168173ffffffffffffffffffffffffffffffffffffffff167f8be0079c531659141344cd1fd0a4f28419497f9722a3daafe3b4186f6b6457e060405160405180910390a35050565b600080fd5b600073ffffffffffffffffffffffffffffffffffffffff82169050919050565b60006200021582620001e8565b9050919050565b620002278162000208565b81146200023357600080fd5b50565b60008151905062000247816200021c565b92915050565b60008060408385031215620002675762000266620001e3565b5b6000620002778582860162000236565b92505060206200028a8582860162000236565b9150509250929050565b612f7980620002a46000396000f3fe6080604052600436106101cc5760003560e01c80636c7e5131116100f7578063baf1639e11610095578063eb8d72b711610064578063eb8d72b714610664578063f0d991c91461068d578063f2fde38b146106ba578063f9fbd554146106e3576101cc565b8063baf1639e146105c4578063d1deba1f146105e0578063dc9d9bed146105fc578063e700bcbe14610627576101cc565b80637a8062ee116100d15780637a8062ee146105055780638da5cb5b146105305780638ee749121461055b578063b582ec5f14610599576101cc565b80636c7e513114610486578063715018a6146104b15780637533d788146104c8576101cc565b806336d694f91161016f5780635001f3b51161013e5780635001f3b5146103c85780635d09514a146103f35780635e280f111461041e5780636bdfd3cc14610449576101cc565b806336d694f91461030b578063383d81901461033657806340a7bb101461035f5780634df7e3d01461039d576101cc565b80631669fb28116101ab5780631669fb28146102625780631c37a8221461028e5780632477ff01146102b75780632865a8f4146102e0576101cc565b80621d3567146101d15780630843501e146101fa57806311fc05cd14610237575b600080fd5b3480156101dd57600080fd5b506101f860048036038101906101f39190611b46565b61070c565b005b34801561020657600080fd5b50610221600480360381019061021c9190611c45565b6108a3565b60405161022e9190611cbe565b60405180910390f35b34801561024357600080fd5b5061024c6109cd565b6040516102599190611d1a565b60405180910390f35b34801561026e57600080fd5b506102776109f7565b604051610285929190611d35565b60405180910390f35b34801561029a57600080fd5b506102b560048036038101906102b09190611b46565b610a08565b005b3480156102c357600080fd5b506102de60048036038101906102d99190611d8a565b610a88565b005b3480156102ec57600080fd5b506102f5610a9a565b6040516103029190611cbe565b60405180910390f35b34801561031757600080fd5b50610320610aa0565b60405161032d9190611cbe565b60405180910390f35b34801561034257600080fd5b5061035d60048036038101906103589190611de3565b610aa6565b005b34801561036b57600080fd5b5061038660048036038101906103819190611e9e565b610af2565b604051610394929190611d35565b60405180910390f35b3480156103a957600080fd5b506103b2610bbb565b6040516103bf9190611cbe565b60405180910390f35b3480156103d457600080fd5b506103dd610bc1565b6040516103ea9190611fb9565b60405180910390f35b3480156103ff57600080fd5b50610408610be7565b6040516104159190611fe3565b60405180910390f35b34801561042a57600080fd5b50610433610bfe565b604051610440919061201f565b60405180910390f35b34801561045557600080fd5b50610470600480360381019061046b919061203a565b610c24565b60405161047d9190611cbe565b60405180910390f35b34801561049257600080fd5b5061049b610c49565b6040516104a89190611cbe565b60405180910390f35b3480156104bd57600080fd5b506104c6610c4f565b005b3480156104d457600080fd5b506104ef60048036038101906104ea9190612087565b610c63565b6040516104fc919061213c565b60405180910390f35b34801561051157600080fd5b5061051a610d03565b6040516105279190611d1a565b60405180910390f35b34801561053c57600080fd5b50610545610d29565b6040516105529190611d1a565b60405180910390f35b34801561056757600080fd5b50610582600480360381019061057d919061215e565b610d52565b6040516105909291906121e6565b60405180910390f35b3480156105a557600080fd5b506105ae610da6565b6040516105bb9190611fe3565b60405180910390f35b6105de60048036038101906105d9919061220f565b610db9565b005b6105fa60048036038101906105f59190612283565b6112cf565b005b34801561060857600080fd5b5061061161146f565b60405161061e9190611cbe565b60405180910390f35b34801561063357600080fd5b5061064e6004803603810190610649919061203a565b611475565b60405161065b9190611cbe565b60405180910390f35b34801561067057600080fd5b5061068b60048036038101906106869190612327565b61149a565b005b34801561069957600080fd5b506106a26114d2565b6040516106b193929190612387565b60405180910390f35b3480156106c657600080fd5b506106e160048036038101906106dc9190611de3565b61150b565b005b3480156106ef57600080fd5b5061070a6004803603810190610705919061245f565b61158f565b005b600360009054906101000a900473ffffffffffffffffffffffffffffffffffffffff1673ffffffffffffffffffffffffffffffffffffffff163373ffffffffffffffffffffffffffffffffffffffff161461076657600080fd5b3073ffffffffffffffffffffffffffffffffffffffff16631c37a822858585856040518563ffffffff1660e01b81526004016107a594939291906124c6565b600060405180830381600087803b1580156107bf57600080fd5b505af19250505080156107d0575060015b61089c576040518060400160405280825181526020018280519060200120815250600960008661ffff1661ffff1681526020019081526020016000208460405161081a9190612555565b908152602001604051809103902060008467ffffffffffffffff16815260200190815260200160002060008201518160000155602082015181600101559050507fe6f254030bcb01ffd20558175c13fcaed6d1520be7becee4c961b65f79243b0d8484848460405161088f94939291906124c6565b60405180910390a161089d565b5b50505050565b6000806108b08484610c24565b9050600033826040516020016108c792919061256c565b60405160208183030381529060405290506000600190506000816002546040516020016108f59291906125ec565b60405160208183030381529060405290506000600360009054906101000a900473ffffffffffffffffffffffffffffffffffffffff1673ffffffffffffffffffffffffffffffffffffffff166340a7bb108a30876000876040518663ffffffff1660e01b815260040161096c959493929190612618565b604080518083038186803b15801561098357600080fd5b505afa158015610997573d6000803e3d6000fd5b505050506040513d601f19601f820116820180604052508101906109bb919061268e565b50905080955050505050509392505050565b6000600560009054906101000a900473ffffffffffffffffffffffffffffffffffffffff16905090565b600080600854600654915091509091565b3073ffffffffffffffffffffffffffffffffffffffff163373ffffffffffffffffffffffffffffffffffffffff1614610a76576040517f08c379a0000000000000000000000000000000000000000000000000000000008152600401610a6d90612751565b60405180910390fd5b610a8284848484611677565b50505050565b610a90611785565b8060028190555050565b600d5481565b60085481565b610aae611785565b80600560006101000a81548173ffffffffffffffffffffffffffffffffffffffff021916908373ffffffffffffffffffffffffffffffffffffffff16021790555050565b600080600360009054906101000a900473ffffffffffffffffffffffffffffffffffffffff1673ffffffffffffffffffffffffffffffffffffffff166340a7bb108a8a8a8a8a8a8a6040518863ffffffff1660e01b8152600401610b5c979695949392919061279e565b604080518083038186803b158015610b7357600080fd5b505afa158015610b87573d6000803e3d6000fd5b505050506040513d601f19601f82011682018060405250810190610bab919061268e565b9150915097509795505050505050565b60075481565b600460009054906101000a900473ffffffffffffffffffffffffffffffffffffffff1681565b6000600560149054906101000a900460ff16905090565b600360009054906101000a900473ffffffffffffffffffffffffffffffffffffffff1681565b60008282604051610c36929190612828565b604051809103902060001c905092915050565b60065481565b610c57611785565b610c616000611803565b565b600a6020528060005260406000206000915090508054610c8290612870565b80601f0160208091040260200160405190810160405280929190818152602001828054610cae90612870565b8015610cfb5780601f10610cd057610100808354040283529160200191610cfb565b820191906000526020600020905b815481529060010190602001808311610cde57829003601f168201915b505050505081565b600b60009054906101000a900473ffffffffffffffffffffffffffffffffffffffff1681565b60008060009054906101000a900473ffffffffffffffffffffffffffffffffffffffff16905090565b60096020528260005260406000208280516020810182018051848252602083016020850120818352809550505050505060205280600052604060002060009250925050508060000154908060010154905082565b600560149054906101000a900460ff1681565b600460009054906101000a900473ffffffffffffffffffffffffffffffffffffffff1673ffffffffffffffffffffffffffffffffffffffff16636352211e826040518263ffffffff1660e01b8152600401610e149190611cbe565b60206040518083038186803b158015610e2c57600080fd5b505afa158015610e40573d6000803e3d6000fd5b505050506040513d601f19601f82011682018060405250810190610e6491906128b7565b73ffffffffffffffffffffffffffffffffffffffff163373ffffffffffffffffffffffffffffffffffffffff1614610ed1576040517f08c379a0000000000000000000000000000000000000000000000000000000008152600401610ec890612930565b60405180910390fd5b6000339050600460009054906101000a900473ffffffffffffffffffffffffffffffffffffffff1673ffffffffffffffffffffffffffffffffffffffff166323b872dd33600560009054906101000a900473ffffffffffffffffffffffffffffffffffffffff16856040518463ffffffff1660e01b8152600401610f5793929190612950565b600060405180830381600087803b158015610f7157600080fd5b505af1158015610f85573d6000803e3d6000fd5b50505050600560009054906101000a900473ffffffffffffffffffffffffffffffffffffffff1673ffffffffffffffffffffffffffffffffffffffff1663b6b55f25836040518263ffffffff1660e01b8152600401610fe49190611cbe565b600060405180830381600087803b158015610ffe57600080fd5b505af1158015611012573d6000803e3d6000fd5b5050505060008183600460009054906101000a900473ffffffffffffffffffffffffffffffffffffffff1673ffffffffffffffffffffffffffffffffffffffff1663a4cbf5f4866040518263ffffffff1660e01b81526004016110759190611cbe565b60206040518083038186803b15801561108d57600080fd5b505afa1580156110a1573d6000803e3d6000fd5b505050506040513d601f19601f820116820180604052508101906110c59190612987565b6040516020016110d793929190612387565b60405160208183030381529060405290506000600190506000816002546040516020016111059291906125ec565b60405160208183030381529060405290506000600360009054906101000a900473ffffffffffffffffffffffffffffffffffffffff1673ffffffffffffffffffffffffffffffffffffffff166340a7bb108a30876000876040518663ffffffff1660e01b815260040161117c959493929190612618565b604080518083038186803b15801561119357600080fd5b505afa1580156111a7573d6000803e3d6000fd5b505050506040513d601f19601f820116820180604052508101906111cb919061268e565b50905080341015611211576040517f08c379a000000000000000000000000000000000000000000000000000000000815260040161120890612a26565b60405180910390fd5b600360009054906101000a900473ffffffffffffffffffffffffffffffffffffffff1673ffffffffffffffffffffffffffffffffffffffff1663c5803100348b8b8b893360008a6040518963ffffffff1660e01b815260040161127a9796959493929190612a67565b6000604051808303818588803b15801561129357600080fd5b505af11580156112a7573d6000803e3d6000fd5b5050505050600860008154809291906112bf90612b0e565b9190505550505050505050505050565b6000600960008761ffff1661ffff168152602001908152602001600020856040516112fa9190612555565b908152602001604051809103902060008567ffffffffffffffff16815260200190815260200160002090506000801b8160010154141561136f576040517f08c379a000000000000000000000000000000000000000000000000000000000815260040161136690612bc9565b60405180910390fd5b80600001548383905014801561139f575080600101548383604051611395929190612828565b6040518091039020145b6113de576040517f08c379a00000000000000000000000000000000000000000000000000000000081526004016113d590612c35565b60405180910390fd5b600081600001819055506000801b81600101819055503073ffffffffffffffffffffffffffffffffffffffff16631c37a82287878787876040518663ffffffff1660e01b8152600401611435959493929190612c55565b600060405180830381600087803b15801561144f57600080fd5b505af1158015611463573d6000803e3d6000fd5b50505050505050505050565b600c5481565b60008282604051611487929190612828565b604051809103902060001c905092915050565b6114a2611785565b8181600a60008661ffff1661ffff16815260200190815260200160002091906114cc9291906118cf565b50505050565b6000806000600b60009054906101000a900473ffffffffffffffffffffffffffffffffffffffff16600c54600d54925092509250909192565b611513611785565b600073ffffffffffffffffffffffffffffffffffffffff168173ffffffffffffffffffffffffffffffffffffffff161415611583576040517f08c379a000000000000000000000000000000000000000000000000000000000815260040161157a90612d1c565b60405180910390fd5b61158c81611803565b50565b60003390506000828051906020012060001c9050600460009054906101000a900473ffffffffffffffffffffffffffffffffffffffff1673ffffffffffffffffffffffffffffffffffffffff1663fca247ac8284620186a06040518463ffffffff1660e01b815260040161160593929190612d77565b602060405180830381600087803b15801561161f57600080fd5b505af1158015611633573d6000803e3d6000fd5b505050506040513d601f19601f820116820180604052508101906116579190612987565b5060016006600082825461166b9190612dae565b92505081905550505050565b600060148401519050600080838060200190518101906116979190612e30565b91509150600560009054906101000a900473ffffffffffffffffffffffffffffffffffffffff1673ffffffffffffffffffffffffffffffffffffffff1662f714ce82846040518363ffffffff1660e01b81526004016116f7929190612e70565b600060405180830381600087803b15801561171157600080fd5b505af1158015611725573d6000803e3d6000fd5b505050506006600081548092919061173c90612b0e565b91905055507fb2fc0605d8092337433832abc79c17edd73790ce82bcd45e4ac4843f3aae823987848660405161177493929190612e99565b60405180910390a150505050505050565b61178d6118c7565b73ffffffffffffffffffffffffffffffffffffffff166117ab610d29565b73ffffffffffffffffffffffffffffffffffffffff1614611801576040517f08c379a00000000000000000000000000000000000000000000000000000000081526004016117f890612f23565b60405180910390fd5b565b60008060009054906101000a900473ffffffffffffffffffffffffffffffffffffffff169050816000806101000a81548173ffffffffffffffffffffffffffffffffffffffff021916908373ffffffffffffffffffffffffffffffffffffffff1602179055508173ffffffffffffffffffffffffffffffffffffffff168173ffffffffffffffffffffffffffffffffffffffff167f8be0079c531659141344cd1fd0a4f28419497f9722a3daafe3b4186f6b6457e060405160405180910390a35050565b600033905090565b8280546118db90612870565b90600052602060002090601f0160209004810192826118fd5760008555611944565b82601f1061191657803560ff1916838001178555611944565b82800160010185558215611944579182015b82811115611943578235825591602001919060010190611928565b5b5090506119519190611955565b5090565b5b8082111561196e576000816000905550600101611956565b5090565b6000604051905090565b600080fd5b600080fd5b600061ffff82169050919050565b61199d81611986565b81146119a857600080fd5b50565b6000813590506119ba81611994565b92915050565b600080fd5b600080fd5b6000601f19601f8301169050919050565b7f4e487b7100000000000000000000000000000000000000000000000000000000600052604160045260246000fd5b611a13826119ca565b810181811067ffffffffffffffff82111715611a3257611a316119db565b5b80604052505050565b6000611a45611972565b9050611a518282611a0a565b919050565b600067ffffffffffffffff821115611a7157611a706119db565b5b611a7a826119ca565b9050602081019050919050565b82818337600083830152505050565b6000611aa9611aa484611a56565b611a3b565b905082815260208101848484011115611ac557611ac46119c5565b5b611ad0848285611a87565b509392505050565b600082601f830112611aed57611aec6119c0565b5b8135611afd848260208601611a96565b91505092915050565b600067ffffffffffffffff82169050919050565b611b2381611b06565b8114611b2e57600080fd5b50565b600081359050611b4081611b1a565b92915050565b60008060008060808587031215611b6057611b5f61197c565b5b6000611b6e878288016119ab565b945050602085013567ffffffffffffffff811115611b8f57611b8e611981565b5b611b9b87828801611ad8565b9350506040611bac87828801611b31565b925050606085013567ffffffffffffffff811115611bcd57611bcc611981565b5b611bd987828801611ad8565b91505092959194509250565b600080fd5b600080fd5b60008083601f840112611c0557611c046119c0565b5b8235905067ffffffffffffffff811115611c2257611c21611be5565b5b602083019150836001820283011115611c3e57611c3d611bea565b5b9250929050565b600080600060408486031215611c5e57611c5d61197c565b5b6000611c6c868287016119ab565b935050602084013567ffffffffffffffff811115611c8d57611c8c611981565b5b611c9986828701611bef565b92509250509250925092565b6000819050919050565b611cb881611ca5565b82525050565b6000602082019050611cd36000830184611caf565b92915050565b600073ffffffffffffffffffffffffffffffffffffffff82169050919050565b6000611d0482611cd9565b9050919050565b611d1481611cf9565b82525050565b6000602082019050611d2f6000830184611d0b565b92915050565b6000604082019050611d4a6000830185611caf565b611d576020830184611caf565b9392505050565b611d6781611ca5565b8114611d7257600080fd5b50565b600081359050611d8481611d5e565b92915050565b600060208284031215611da057611d9f61197c565b5b6000611dae84828501611d75565b91505092915050565b611dc081611cf9565b8114611dcb57600080fd5b50565b600081359050611ddd81611db7565b92915050565b600060208284031215611df957611df861197c565b5b6000611e0784828501611dce565b91505092915050565b60008083601f840112611e2657611e256119c0565b5b8235905067ffffffffffffffff811115611e4357611e42611be5565b5b602083019150836001820283011115611e5f57611e5e611bea565b5b9250929050565b60008115159050919050565b611e7b81611e66565b8114611e8657600080fd5b50565b600081359050611e9881611e72565b92915050565b600080600080600080600060a0888a031215611ebd57611ebc61197c565b5b6000611ecb8a828b016119ab565b9750506020611edc8a828b01611dce565b965050604088013567ffffffffffffffff811115611efd57611efc611981565b5b611f098a828b01611e10565b95509550506060611f1c8a828b01611e89565b935050608088013567ffffffffffffffff811115611f3d57611f3c611981565b5b611f498a828b01611e10565b925092505092959891949750929550565b6000819050919050565b6000611f7f611f7a611f7584611cd9565b611f5a565b611cd9565b9050919050565b6000611f9182611f64565b9050919050565b6000611fa382611f86565b9050919050565b611fb381611f98565b82525050565b6000602082019050611fce6000830184611faa565b92915050565b611fdd81611e66565b82525050565b6000602082019050611ff86000830184611fd4565b92915050565b600061200982611f86565b9050919050565b61201981611ffe565b82525050565b60006020820190506120346000830184612010565b92915050565b600080602083850312156120515761205061197c565b5b600083013567ffffffffffffffff81111561206f5761206e611981565b5b61207b85828601611bef565b92509250509250929050565b60006020828403121561209d5761209c61197c565b5b60006120ab848285016119ab565b91505092915050565b600081519050919050565b600082825260208201905092915050565b60005b838110156120ee5780820151818401526020810190506120d3565b838111156120fd576000848401525b50505050565b600061210e826120b4565b61211881856120bf565b93506121288185602086016120d0565b612131816119ca565b840191505092915050565b600060208201905081810360008301526121568184612103565b905092915050565b6000806000606084860312156121775761217661197c565b5b6000612185868287016119ab565b935050602084013567ffffffffffffffff8111156121a6576121a5611981565b5b6121b286828701611ad8565b92505060406121c386828701611d75565b9150509250925092565b6000819050919050565b6121e0816121cd565b82525050565b60006040820190506121fb6000830185611caf565b61220860208301846121d7565b9392505050565b600080600080606085870312156122295761222861197c565b5b6000612237878288016119ab565b945050602085013567ffffffffffffffff81111561225857612257611981565b5b61226487828801611e10565b9350935050604061227787828801611d75565b91505092959194509250565b60008060008060006080868803121561229f5761229e61197c565b5b60006122ad888289016119ab565b955050602086013567ffffffffffffffff8111156122ce576122cd611981565b5b6122da88828901611ad8565b94505060406122eb88828901611b31565b935050606086013567ffffffffffffffff81111561230c5761230b611981565b5b61231888828901611e10565b92509250509295509295909350565b6000806000604084860312156123405761233f61197c565b5b600061234e868287016119ab565b935050602084013567ffffffffffffffff81111561236f5761236e611981565b5b61237b86828701611e10565b92509250509250925092565b600060608201905061239c6000830186611d0b565b6123a96020830185611caf565b6123b66040830184611caf565b949350505050565b600067ffffffffffffffff8211156123d9576123d86119db565b5b6123e2826119ca565b9050602081019050919050565b60006124026123fd846123be565b611a3b565b90508281526020810184848401111561241e5761241d6119c5565b5b612429848285611a87565b509392505050565b600082601f830112612446576124456119c0565b5b81356124568482602086016123ef565b91505092915050565b6000602082840312156124755761247461197c565b5b600082013567ffffffffffffffff81111561249357612492611981565b5b61249f84828501612431565b91505092915050565b6124b181611986565b82525050565b6124c081611b06565b82525050565b60006080820190506124db60008301876124a8565b81810360208301526124ed8186612103565b90506124fc60408301856124b7565b818103606083015261250e8184612103565b905095945050505050565b600081905092915050565b600061252f826120b4565b6125398185612519565b93506125498185602086016120d0565b80840191505092915050565b60006125618284612524565b915081905092915050565b60006040820190506125816000830185611d0b565b61258e6020830184611caf565b9392505050565b60008160f01b9050919050565b60006125ad82612595565b9050919050565b6125c56125c082611986565b6125a2565b82525050565b6000819050919050565b6125e66125e182611ca5565b6125cb565b82525050565b60006125f882856125b4565b60028201915061260882846125d5565b6020820191508190509392505050565b600060a08201905061262d60008301886124a8565b61263a6020830187611d0b565b818103604083015261264c8186612103565b905061265b6060830185611fd4565b818103608083015261266d8184612103565b90509695505050505050565b60008151905061268881611d5e565b92915050565b600080604083850312156126a5576126a461197c565b5b60006126b385828601612679565b92505060206126c485828601612679565b9150509250929050565b600082825260208201905092915050565b7f4e6f6e626c6f636b696e6752656365697665723a2063616c6c6572206d75737460008201527f206265204272696467652e000000000000000000000000000000000000000000602082015250565b600061273b602b836126ce565b9150612746826126df565b604082019050919050565b6000602082019050818103600083015261276a8161272e565b9050919050565b600061277d83856120bf565b935061278a838584611a87565b612793836119ca565b840190509392505050565b600060a0820190506127b3600083018a6124a8565b6127c06020830189611d0b565b81810360408301526127d3818789612771565b90506127e26060830186611fd4565b81810360808301526127f5818486612771565b905098975050505050505050565b600061280f8385612519565b935061281c838584611a87565b82840190509392505050565b6000612835828486612803565b91508190509392505050565b7f4e487b7100000000000000000000000000000000000000000000000000000000600052602260045260246000fd5b6000600282049050600182168061288857607f821691505b6020821081141561289c5761289b612841565b5b50919050565b6000815190506128b181611db7565b92915050565b6000602082840312156128cd576128cc61197c565b5b60006128db848285016128a2565b91505092915050565b7f4e6f7420746865206f776e657200000000000000000000000000000000000000600082015250565b600061291a600d836126ce565b9150612925826128e4565b602082019050919050565b600060208201905081810360008301526129498161290d565b9050919050565b60006060820190506129656000830186611d0b565b6129726020830185611d0b565b61297f6040830184611caf565b949350505050565b60006020828403121561299d5761299c61197c565b5b60006129ab84828501612679565b91505092915050565b7f4d7573742073656e6420656e6f7567682076616c756520746f20636f7665722060008201527f6d65737361676546656500000000000000000000000000000000000000000000602082015250565b6000612a10602a836126ce565b9150612a1b826129b4565b604082019050919050565b60006020820190508181036000830152612a3f81612a03565b9050919050565b6000612a5182611cd9565b9050919050565b612a6181612a46565b82525050565b600060c082019050612a7c600083018a6124a8565b8181036020830152612a8f81888a612771565b90508181036040830152612aa38187612103565b9050612ab26060830186612a58565b612abf6080830185611d0b565b81810360a0830152612ad18184612103565b905098975050505050505050565b7f4e487b7100000000000000000000000000000000000000000000000000000000600052601160045260246000fd5b6000612b1982611ca5565b91507fffffffffffffffffffffffffffffffffffffffffffffffffffffffffffffffff821415612b4c57612b4b612adf565b5b600182019050919050565b7f4e6f6e626c6f636b696e6752656365697665723a206e6f2073746f726564206d60008201527f6573736167650000000000000000000000000000000000000000000000000000602082015250565b6000612bb36026836126ce565b9150612bbe82612b57565b604082019050919050565b60006020820190508181036000830152612be281612ba6565b9050919050565b7f4c617965725a65726f3a20696e76616c6964207061796c6f6164000000000000600082015250565b6000612c1f601a836126ce565b9150612c2a82612be9565b602082019050919050565b60006020820190508181036000830152612c4e81612c12565b9050919050565b6000608082019050612c6a60008301886124a8565b8181036020830152612c7c8187612103565b9050612c8b60408301866124b7565b8181036060830152612c9e818486612771565b90509695505050505050565b7f4f776e61626c653a206e6577206f776e657220697320746865207a65726f206160008201527f6464726573730000000000000000000000000000000000000000000000000000602082015250565b6000612d066026836126ce565b9150612d1182612caa565b604082019050919050565b60006020820190508181036000830152612d3581612cf9565b9050919050565b6000819050919050565b6000612d61612d5c612d5784612d3c565b611f5a565b611ca5565b9050919050565b612d7181612d46565b82525050565b6000606082019050612d8c6000830186611caf565b612d996020830185611d0b565b612da66040830184612d68565b949350505050565b6000612db982611ca5565b9150612dc483611ca5565b9250827fffffffffffffffffffffffffffffffffffffffffffffffffffffffffffffffff03821115612df957612df8612adf565b5b828201905092915050565b612e0d81612a46565b8114612e1857600080fd5b50565b600081519050612e2a81612e04565b92915050565b60008060408385031215612e4757612e4661197c565b5b6000612e5585828601612e1b565b9250506020612e6685828601612679565b9150509250929050565b6000604082019050612e856000830185611caf565b612e926020830184611d0b565b9392505050565b6000606082019050612eae60008301866124a8565b612ebb6020830185611d0b565b8181036040830152612ecd8184612103565b9050949350505050565b7f4f776e61626c653a2063616c6c6572206973206e6f7420746865206f776e6572600082015250565b6000612f0d6020836126ce565b9150612f1882612ed7565b602082019050919050565b60006020820190508181036000830152612f3c81612f00565b905091905056fea2646970667358221220f53c14f89880c670be0894f64ab80a7ba36f6c1b5be0d1055f85468f4e03ca4364736f6c63430008090033",
  "linkReferences": {},
  "deployedLinkReferences": {}
}